{
	"crowdfunding/Crowdfunding.sol": {
		"Crowd": {
			"abi": [
				{
					"inputs": [
						{
							"internalType": "address",
							"name": "_token",
							"type": "address"
						}
					],
					"stateMutability": "nonpayable",
					"type": "constructor"
				},
				{
					"anonymous": false,
					"inputs": [
						{
							"indexed": false,
							"internalType": "uint256",
							"name": "_id",
							"type": "uint256"
						}
					],
					"name": "Claimed",
					"type": "event"
				},
				{
					"anonymous": false,
					"inputs": [
						{
							"indexed": false,
							"internalType": "uint256",
							"name": "ID",
							"type": "uint256"
						},
						{
							"indexed": false,
							"internalType": "address",
							"name": "owner",
							"type": "address"
						},
						{
							"indexed": false,
							"internalType": "uint256",
							"name": "goal",
							"type": "uint256"
						},
						{
							"indexed": false,
							"internalType": "uint256",
							"name": "startsAt",
							"type": "uint256"
						},
						{
							"indexed": false,
							"internalType": "uint256",
							"name": "endsAt",
							"type": "uint256"
						}
					],
					"name": "Launched",
					"type": "event"
				},
				{
					"anonymous": false,
					"inputs": [
						{
							"indexed": false,
							"internalType": "uint256",
							"name": "_id",
							"type": "uint256"
						},
						{
							"indexed": false,
							"internalType": "address",
							"name": "pledger",
							"type": "address"
						},
						{
							"indexed": false,
							"internalType": "uint256",
							"name": "_amount",
							"type": "uint256"
						}
					],
					"name": "Pledged",
					"type": "event"
				},
				{
					"anonymous": false,
					"inputs": [
						{
							"indexed": false,
							"internalType": "uint256",
							"name": "_id",
							"type": "uint256"
						},
						{
							"indexed": false,
							"internalType": "address",
							"name": "pledger",
							"type": "address"
						},
						{
							"indexed": false,
							"internalType": "uint256",
							"name": "pledgedAmount",
							"type": "uint256"
						}
					],
					"name": "Refunded",
					"type": "event"
				},
				{
					"anonymous": false,
					"inputs": [
						{
							"indexed": false,
							"internalType": "uint256",
							"name": "_id",
							"type": "uint256"
						},
						{
							"indexed": false,
							"internalType": "address",
							"name": "pledger",
							"type": "address"
						},
						{
							"indexed": false,
							"internalType": "uint256",
							"name": "_amount",
							"type": "uint256"
						}
					],
					"name": "Unpledged",
					"type": "event"
				},
				{
					"inputs": [],
					"name": "MAX_DURATION",
					"outputs": [
						{
							"internalType": "uint256",
							"name": "",
							"type": "uint256"
						}
					],
					"stateMutability": "view",
					"type": "function"
				},
				{
					"inputs": [
						{
							"internalType": "uint256",
							"name": "_id",
							"type": "uint256"
						}
					],
					"name": "cancel",
					"outputs": [],
					"stateMutability": "nonpayable",
					"type": "function"
				},
				{
					"inputs": [
						{
							"internalType": "uint256",
							"name": "_id",
							"type": "uint256"
						}
					],
					"name": "claim",
					"outputs": [],
					"stateMutability": "nonpayable",
					"type": "function"
				},
				{
					"inputs": [],
					"name": "currentID",
					"outputs": [
						{
							"internalType": "uint256",
							"name": "",
							"type": "uint256"
						}
					],
					"stateMutability": "view",
					"type": "function"
				},
				{
					"inputs": [
						{
							"internalType": "uint256",
							"name": "_goal",
							"type": "uint256"
						},
						{
							"internalType": "uint256",
							"name": "_startsAt",
							"type": "uint256"
						},
						{
							"internalType": "uint256",
							"name": "_endsAt",
							"type": "uint256"
						}
					],
					"name": "launch",
					"outputs": [],
					"stateMutability": "nonpayable",
					"type": "function"
				},
				{
					"inputs": [
						{
							"internalType": "uint256",
							"name": "_id",
							"type": "uint256"
						},
						{
							"internalType": "uint256",
							"name": "_amount",
							"type": "uint256"
						}
					],
					"name": "pledge",
					"outputs": [],
					"stateMutability": "nonpayable",
					"type": "function"
				},
				{
					"inputs": [
						{
							"internalType": "uint256",
							"name": "",
							"type": "uint256"
						},
						{
							"internalType": "address",
							"name": "",
							"type": "address"
						}
					],
					"name": "pledges",
					"outputs": [
						{
							"internalType": "uint256",
							"name": "",
							"type": "uint256"
						}
					],
					"stateMutability": "view",
					"type": "function"
				},
				{
					"inputs": [
						{
							"internalType": "uint256",
							"name": "_id",
							"type": "uint256"
						}
					],
					"name": "refund",
					"outputs": [],
					"stateMutability": "nonpayable",
					"type": "function"
				},
				{
					"inputs": [],
					"name": "token",
					"outputs": [
						{
							"internalType": "contract IERC20",
							"name": "",
							"type": "address"
						}
					],
					"stateMutability": "view",
					"type": "function"
				},
				{
					"inputs": [
						{
							"internalType": "uint256",
							"name": "_id",
							"type": "uint256"
						},
						{
							"internalType": "uint256",
							"name": "_amount",
							"type": "uint256"
						}
					],
					"name": "unpledge",
					"outputs": [],
					"stateMutability": "nonpayable",
					"type": "function"
				}
			],
			"devdoc": {
				"kind": "dev",
				"methods": {},
				"version": 1
			},
			"evm": {
				"assembly": "    /* \"crowdfunding/Crowdfunding.sol\":92:3476  contract Crowd {... */\n  mstore(0x40, 0xa0)\n    /* \"crowdfunding/Crowdfunding.sol\":828:894  constructor(address _token){... */\n  callvalue\n  dup1\n  iszero\n  tag_1\n  jumpi\n  0x00\n  dup1\n  revert\ntag_1:\n  pop\n  mload(0x40)\n  sub(codesize, bytecodeSize)\n  dup1\n  bytecodeSize\n  dup4\n  codecopy\n  dup2\n  dup2\n  add\n  0x40\n  mstore\n  dup2\n  add\n  swap1\n  tag_2\n  swap2\n  swap1\n  tag_3\n  jump\t// in\ntag_2:\n    /* \"crowdfunding/Crowdfunding.sol\":880:886  _token */\n  dup1\n    /* \"crowdfunding/Crowdfunding.sol\":865:887  token = IERC20(_token) */\n  0xffffffffffffffffffffffffffffffffffffffff\n  and\n  0x80\n  dup2\n  0xffffffffffffffffffffffffffffffffffffffff\n  and\n  0x60\n  shl\n  dup2\n  mstore\n  pop\n  pop\n    /* \"crowdfunding/Crowdfunding.sol\":828:894  constructor(address _token){... */\n  pop\n    /* \"crowdfunding/Crowdfunding.sol\":92:3476  contract Crowd {... */\n  jump(tag_6)\n    /* \"#utility.yul\":7:150   */\ntag_8:\n    /* \"#utility.yul\":64:69   */\n  0x00\n    /* \"#utility.yul\":95:101   */\n  dup2\n    /* \"#utility.yul\":89:102   */\n  mload\n    /* \"#utility.yul\":80:102   */\n  swap1\n  pop\n    /* \"#utility.yul\":111:144   */\n  tag_10\n    /* \"#utility.yul\":138:143   */\n  dup2\n    /* \"#utility.yul\":111:144   */\n  tag_11\n  jump\t// in\ntag_10:\n    /* \"#utility.yul\":7:150   */\n  swap3\n  swap2\n  pop\n  pop\n  jump\t// out\n    /* \"#utility.yul\":156:507   */\ntag_3:\n    /* \"#utility.yul\":226:232   */\n  0x00\n    /* \"#utility.yul\":275:277   */\n  0x20\n    /* \"#utility.yul\":263:272   */\n  dup3\n    /* \"#utility.yul\":254:261   */\n  dup5\n    /* \"#utility.yul\":250:273   */\n  sub\n    /* \"#utility.yul\":246:278   */\n  slt\n    /* \"#utility.yul\":243:362   */\n  iszero\n  tag_13\n  jumpi\n    /* \"#utility.yul\":281:360   */\n  tag_14\n  tag_15\n  jump\t// in\ntag_14:\n    /* \"#utility.yul\":243:362   */\ntag_13:\n    /* \"#utility.yul\":401:402   */\n  0x00\n    /* \"#utility.yul\":426:490   */\n  tag_16\n    /* \"#utility.yul\":482:489   */\n  dup5\n    /* \"#utility.yul\":473:479   */\n  dup3\n    /* \"#utility.yul\":462:471   */\n  dup6\n    /* \"#utility.yul\":458:480   */\n  add\n    /* \"#utility.yul\":426:490   */\n  tag_8\n  jump\t// in\ntag_16:\n    /* \"#utility.yul\":416:490   */\n  swap2\n  pop\n    /* \"#utility.yul\":372:500   */\n  pop\n    /* \"#utility.yul\":156:507   */\n  swap3\n  swap2\n  pop\n  pop\n  jump\t// out\n    /* \"#utility.yul\":594:690   */\ntag_19:\n    /* \"#utility.yul\":631:638   */\n  0x00\n    /* \"#utility.yul\":660:684   */\n  tag_21\n    /* \"#utility.yul\":678:683   */\n  dup3\n    /* \"#utility.yul\":660:684   */\n  tag_22\n  jump\t// in\ntag_21:\n    /* \"#utility.yul\":649:684   */\n  swap1\n  pop\n    /* \"#utility.yul\":594:690   */\n  swap2\n  swap1\n  pop\n  jump\t// out\n    /* \"#utility.yul\":696:822   */\ntag_22:\n    /* \"#utility.yul\":733:740   */\n  0x00\n    /* \"#utility.yul\":773:815   */\n  0xffffffffffffffffffffffffffffffffffffffff\n    /* \"#utility.yul\":766:771   */\n  dup3\n    /* \"#utility.yul\":762:816   */\n  and\n    /* \"#utility.yul\":751:816   */\n  swap1\n  pop\n    /* \"#utility.yul\":696:822   */\n  swap2\n  swap1\n  pop\n  jump\t// out\n    /* \"#utility.yul\":951:1068   */\ntag_15:\n    /* \"#utility.yul\":1060:1061   */\n  0x00\n    /* \"#utility.yul\":1057:1058   */\n  dup1\n    /* \"#utility.yul\":1050:1062   */\n  revert\n    /* \"#utility.yul\":1074:1196   */\ntag_11:\n    /* \"#utility.yul\":1147:1171   */\n  tag_28\n    /* \"#utility.yul\":1165:1170   */\n  dup2\n    /* \"#utility.yul\":1147:1171   */\n  tag_19\n  jump\t// in\ntag_28:\n    /* \"#utility.yul\":1140:1145   */\n  dup2\n    /* \"#utility.yul\":1137:1172   */\n  eq\n    /* \"#utility.yul\":1127:1190   */\n  tag_29\n  jumpi\n    /* \"#utility.yul\":1186:1187   */\n  0x00\n    /* \"#utility.yul\":1183:1184   */\n  dup1\n    /* \"#utility.yul\":1176:1188   */\n  revert\n    /* \"#utility.yul\":1127:1190   */\ntag_29:\n    /* \"#utility.yul\":1074:1196   */\n  pop\n  jump\t// out\n    /* \"crowdfunding/Crowdfunding.sol\":92:3476  contract Crowd {... */\ntag_6:\n  shr(0x60, mload(0x80))\n  codecopy(0x00, dataOffset(sub_0), dataSize(sub_0))\n  0x00\n  assignImmutable(\"0xcc193713febc75d3d9bd2f9ce113f403ff19633f15c8cdbcf79756ae23e77f9a\")\n  return(0x00, dataSize(sub_0))\nstop\n\nsub_0: assembly {\n        /* \"crowdfunding/Crowdfunding.sol\":92:3476  contract Crowd {... */\n      mstore(0x40, 0x80)\n      callvalue\n      dup1\n      iszero\n      tag_1\n      jumpi\n      0x00\n      dup1\n      revert\n    tag_1:\n      pop\n      jumpi(tag_2, lt(calldatasize, 0x04))\n      shr(0xe0, calldataload(0x00))\n      dup1\n      0x8736c179\n      gt\n      tag_13\n      jumpi\n      dup1\n      0x8736c179\n      eq\n      tag_8\n      jumpi\n      dup1\n      0x8e97f524\n      eq\n      tag_9\n      jumpi\n      dup1\n      0xb1724b46\n      eq\n      tag_10\n      jumpi\n      dup1\n      0xfc0c546a\n      eq\n      tag_11\n      jumpi\n      dup1\n      0xfde327be\n      eq\n      tag_12\n      jumpi\n      jump(tag_2)\n    tag_13:\n      dup1\n      0x1c75cfb4\n      eq\n      tag_3\n      jumpi\n      dup1\n      0x278ecde1\n      eq\n      tag_4\n      jumpi\n      dup1\n      0x379607f5\n      eq\n      tag_5\n      jumpi\n      dup1\n      0x40e58ee5\n      eq\n      tag_6\n      jumpi\n      dup1\n      0x711853ab\n      eq\n      tag_7\n      jumpi\n    tag_2:\n      0x00\n      dup1\n      revert\n        /* \"crowdfunding/Crowdfunding.sol\":351:372  uint public currentID */\n    tag_3:\n      tag_14\n      tag_15\n      jump\t// in\n    tag_14:\n      mload(0x40)\n      tag_16\n      swap2\n      swap1\n      tag_17\n      jump\t// in\n    tag_16:\n      mload(0x40)\n      dup1\n      swap2\n      sub\n      swap1\n      return\n        /* \"crowdfunding/Crowdfunding.sol\":3036:3474  function refund(uint _id) external {... */\n    tag_4:\n      tag_18\n      0x04\n      dup1\n      calldatasize\n      sub\n      dup2\n      add\n      swap1\n      tag_19\n      swap2\n      swap1\n      tag_20\n      jump\t// in\n    tag_19:\n      tag_21\n      jump\t// in\n    tag_18:\n      stop\n        /* \"crowdfunding/Crowdfunding.sol\":2566:3031  function claim(uint _id) external {... */\n    tag_5:\n      tag_22\n      0x04\n      dup1\n      calldatasize\n      sub\n      dup2\n      add\n      swap1\n      tag_23\n      swap2\n      swap1\n      tag_20\n      jump\t// in\n    tag_23:\n      tag_24\n      jump\t// in\n    tag_22:\n      stop\n        /* \"crowdfunding/Crowdfunding.sol\":1506:1773  function cancel(uint _id) external {... */\n    tag_6:\n      tag_25\n      0x04\n      dup1\n      calldatasize\n      sub\n      dup2\n      add\n      swap1\n      tag_26\n      swap2\n      swap1\n      tag_20\n      jump\t// in\n    tag_26:\n      tag_27\n      jump\t// in\n    tag_25:\n      stop\n        /* \"crowdfunding/Crowdfunding.sol\":2214:2561  function unpledge(uint _id, uint _amount) external {... */\n    tag_7:\n      tag_28\n      0x04\n      dup1\n      calldatasize\n      sub\n      dup2\n      add\n      swap1\n      tag_29\n      swap2\n      swap1\n      tag_30\n      jump\t// in\n    tag_29:\n      tag_31\n      jump\t// in\n    tag_28:\n      stop\n        /* \"crowdfunding/Crowdfunding.sol\":900:1501  function launch(uint _goal, uint _startsAt,uint _endsAt) external {... */\n    tag_8:\n      tag_32\n      0x04\n      dup1\n      calldatasize\n      sub\n      dup2\n      add\n      swap1\n      tag_33\n      swap2\n      swap1\n      tag_34\n      jump\t// in\n    tag_33:\n      tag_35\n      jump\t// in\n    tag_32:\n      stop\n        /* \"crowdfunding/Crowdfunding.sol\":378:434  mapping(uint => mapping(address => uint)) public pledges */\n    tag_9:\n      tag_36\n      0x04\n      dup1\n      calldatasize\n      sub\n      dup2\n      add\n      swap1\n      tag_37\n      swap2\n      swap1\n      tag_38\n      jump\t// in\n    tag_37:\n      tag_39\n      jump\t// in\n    tag_36:\n      mload(0x40)\n      tag_40\n      swap2\n      swap1\n      tag_17\n      jump\t// in\n    tag_40:\n      mload(0x40)\n      dup1\n      swap2\n      sub\n      swap1\n      return\n        /* \"crowdfunding/Crowdfunding.sol\":440:484  uint public constant MAX_DURATION = 100 days */\n    tag_10:\n      tag_41\n      tag_42\n      jump\t// in\n    tag_41:\n      mload(0x40)\n      tag_43\n      swap2\n      swap1\n      tag_17\n      jump\t// in\n    tag_43:\n      mload(0x40)\n      dup1\n      swap2\n      sub\n      swap1\n      return\n        /* \"crowdfunding/Crowdfunding.sol\":275:304  IERC20 public immutable token */\n    tag_11:\n      tag_44\n      tag_45\n      jump\t// in\n    tag_44:\n      mload(0x40)\n      tag_46\n      swap2\n      swap1\n      tag_47\n      jump\t// in\n    tag_46:\n      mload(0x40)\n      dup1\n      swap2\n      sub\n      swap1\n      return\n        /* \"crowdfunding/Crowdfunding.sol\":1778:2209  function pledge(uint _id, uint _amount) external {... */\n    tag_12:\n      tag_48\n      0x04\n      dup1\n      calldatasize\n      sub\n      dup2\n      add\n      swap1\n      tag_49\n      swap2\n      swap1\n      tag_30\n      jump\t// in\n    tag_49:\n      tag_50\n      jump\t// in\n    tag_48:\n      stop\n        /* \"crowdfunding/Crowdfunding.sol\":351:372  uint public currentID */\n    tag_15:\n      sload(0x01)\n      dup2\n      jump\t// out\n        /* \"crowdfunding/Crowdfunding.sol\":3036:3474  function refund(uint _id) external {... */\n    tag_21:\n        /* \"crowdfunding/Crowdfunding.sol\":3081:3106  Campaign storage campaign */\n      0x00\n        /* \"crowdfunding/Crowdfunding.sol\":3109:3118  campaigns */\n      dup1\n        /* \"crowdfunding/Crowdfunding.sol\":3109:3123  campaigns[_id] */\n      0x00\n        /* \"crowdfunding/Crowdfunding.sol\":3119:3122  _id */\n      dup4\n        /* \"crowdfunding/Crowdfunding.sol\":3109:3123  campaigns[_id] */\n      dup2\n      mstore\n      0x20\n      add\n      swap1\n      dup2\n      mstore\n      0x20\n      add\n      0x00\n      keccak256\n        /* \"crowdfunding/Crowdfunding.sol\":3081:3123  Campaign storage campaign = campaigns[_id] */\n      swap1\n      pop\n        /* \"crowdfunding/Crowdfunding.sol\":3159:3167  campaign */\n      dup1\n        /* \"crowdfunding/Crowdfunding.sol\":3159:3174  campaign.endsAt */\n      0x04\n      add\n      sload\n        /* \"crowdfunding/Crowdfunding.sol\":3141:3156  block.timestamp */\n      timestamp\n        /* \"crowdfunding/Crowdfunding.sol\":3141:3174  block.timestamp > campaign.endsAt */\n      gt\n        /* \"crowdfunding/Crowdfunding.sol\":3133:3188  require(block.timestamp > campaign.endsAt,\"not ended!\") */\n      tag_52\n      jumpi\n      mload(0x40)\n      0x08c379a000000000000000000000000000000000000000000000000000000000\n      dup2\n      mstore\n      0x04\n      add\n      tag_53\n      swap1\n      tag_54\n      jump\t// in\n    tag_53:\n      mload(0x40)\n      dup1\n      swap2\n      sub\n      swap1\n      revert\n    tag_52:\n        /* \"crowdfunding/Crowdfunding.sol\":3226:3234  campaign */\n      dup1\n        /* \"crowdfunding/Crowdfunding.sol\":3226:3244  campaign.goalfunds */\n      0x01\n      add\n      sload\n        /* \"crowdfunding/Crowdfunding.sol\":3207:3215  campaign */\n      dup2\n        /* \"crowdfunding/Crowdfunding.sol\":3207:3223  campaign.pledged */\n      0x02\n      add\n      sload\n        /* \"crowdfunding/Crowdfunding.sol\":3207:3244  campaign.pledged < campaign.goalfunds */\n      lt\n        /* \"crowdfunding/Crowdfunding.sol\":3199:3267  require(campaign.pledged < campaign.goalfunds, \"reached the goal!!\") */\n      tag_55\n      jumpi\n      mload(0x40)\n      0x08c379a000000000000000000000000000000000000000000000000000000000\n      dup2\n      mstore\n      0x04\n      add\n      tag_56\n      swap1\n      tag_57\n      jump\t// in\n    tag_56:\n      mload(0x40)\n      dup1\n      swap2\n      sub\n      swap1\n      revert\n    tag_55:\n        /* \"crowdfunding/Crowdfunding.sol\":3278:3296  uint pledgedAmount */\n      0x00\n        /* \"crowdfunding/Crowdfunding.sol\":3299:3306  pledges */\n      0x02\n        /* \"crowdfunding/Crowdfunding.sol\":3299:3311  pledges[_id] */\n      0x00\n        /* \"crowdfunding/Crowdfunding.sol\":3307:3310  _id */\n      dup5\n        /* \"crowdfunding/Crowdfunding.sol\":3299:3311  pledges[_id] */\n      dup2\n      mstore\n      0x20\n      add\n      swap1\n      dup2\n      mstore\n      0x20\n      add\n      0x00\n      keccak256\n        /* \"crowdfunding/Crowdfunding.sol\":3299:3323  pledges[_id][msg.sender] */\n      0x00\n        /* \"crowdfunding/Crowdfunding.sol\":3312:3322  msg.sender */\n      caller\n        /* \"crowdfunding/Crowdfunding.sol\":3299:3323  pledges[_id][msg.sender] */\n      0xffffffffffffffffffffffffffffffffffffffff\n      and\n      0xffffffffffffffffffffffffffffffffffffffff\n      and\n      dup2\n      mstore\n      0x20\n      add\n      swap1\n      dup2\n      mstore\n      0x20\n      add\n      0x00\n      keccak256\n      sload\n        /* \"crowdfunding/Crowdfunding.sol\":3278:3323  uint pledgedAmount = pledges[_id][msg.sender] */\n      swap1\n      pop\n        /* \"crowdfunding/Crowdfunding.sol\":3361:3362  0 */\n      0x00\n        /* \"crowdfunding/Crowdfunding.sol\":3334:3341  pledges */\n      0x02\n        /* \"crowdfunding/Crowdfunding.sol\":3334:3346  pledges[_id] */\n      0x00\n        /* \"crowdfunding/Crowdfunding.sol\":3342:3345  _id */\n      dup6\n        /* \"crowdfunding/Crowdfunding.sol\":3334:3346  pledges[_id] */\n      dup2\n      mstore\n      0x20\n      add\n      swap1\n      dup2\n      mstore\n      0x20\n      add\n      0x00\n      keccak256\n        /* \"crowdfunding/Crowdfunding.sol\":3334:3358  pledges[_id][msg.sender] */\n      0x00\n        /* \"crowdfunding/Crowdfunding.sol\":3347:3357  msg.sender */\n      caller\n        /* \"crowdfunding/Crowdfunding.sol\":3334:3358  pledges[_id][msg.sender] */\n      0xffffffffffffffffffffffffffffffffffffffff\n      and\n      0xffffffffffffffffffffffffffffffffffffffff\n      and\n      dup2\n      mstore\n      0x20\n      add\n      swap1\n      dup2\n      mstore\n      0x20\n      add\n      0x00\n      keccak256\n        /* \"crowdfunding/Crowdfunding.sol\":3334:3362  pledges[_id][msg.sender] = 0 */\n      dup2\n      swap1\n      sstore\n      pop\n        /* \"crowdfunding/Crowdfunding.sol\":3373:3378  token */\n      immutable(\"0xcc193713febc75d3d9bd2f9ce113f403ff19633f15c8cdbcf79756ae23e77f9a\")\n        /* \"crowdfunding/Crowdfunding.sol\":3373:3387  token.transfer */\n      0xffffffffffffffffffffffffffffffffffffffff\n      and\n      0xa9059cbb\n        /* \"crowdfunding/Crowdfunding.sol\":3388:3398  msg.sender */\n      caller\n        /* \"crowdfunding/Crowdfunding.sol\":3399:3412  pledgedAmount */\n      dup4\n        /* \"crowdfunding/Crowdfunding.sol\":3373:3413  token.transfer(msg.sender,pledgedAmount) */\n      mload(0x40)\n      dup4\n      0xffffffff\n      and\n      0xe0\n      shl\n      dup2\n      mstore\n      0x04\n      add\n      tag_58\n      swap3\n      swap2\n      swap1\n      tag_59\n      jump\t// in\n    tag_58:\n      0x00\n      mload(0x40)\n      dup1\n      dup4\n      sub\n      dup2\n      0x00\n      dup8\n      dup1\n      extcodesize\n      iszero\n      dup1\n      iszero\n      tag_60\n      jumpi\n      0x00\n      dup1\n      revert\n    tag_60:\n      pop\n      gas\n      call\n      iszero\n      dup1\n      iszero\n      tag_62\n      jumpi\n      returndatasize\n      0x00\n      dup1\n      returndatacopy\n      revert(0x00, returndatasize)\n    tag_62:\n      pop\n      pop\n      pop\n      pop\n        /* \"crowdfunding/Crowdfunding.sol\":3429:3467  Refunded(_id,msg.sender,pledgedAmount) */\n      0x7ca5472b7ea78c2c0141c5a12ee6d170cf4ce8ed06be3d22c8252ddfc7a6a2c4\n        /* \"crowdfunding/Crowdfunding.sol\":3438:3441  _id */\n      dup4\n        /* \"crowdfunding/Crowdfunding.sol\":3442:3452  msg.sender */\n      caller\n        /* \"crowdfunding/Crowdfunding.sol\":3453:3466  pledgedAmount */\n      dup4\n        /* \"crowdfunding/Crowdfunding.sol\":3429:3467  Refunded(_id,msg.sender,pledgedAmount) */\n      mload(0x40)\n      tag_63\n      swap4\n      swap3\n      swap2\n      swap1\n      tag_64\n      jump\t// in\n    tag_63:\n      mload(0x40)\n      dup1\n      swap2\n      sub\n      swap1\n      log1\n        /* \"crowdfunding/Crowdfunding.sol\":3071:3474  {... */\n      pop\n      pop\n        /* \"crowdfunding/Crowdfunding.sol\":3036:3474  function refund(uint _id) external {... */\n      pop\n      jump\t// out\n        /* \"crowdfunding/Crowdfunding.sol\":2566:3031  function claim(uint _id) external {... */\n    tag_24:\n        /* \"crowdfunding/Crowdfunding.sol\":2610:2635  Campaign storage campaign */\n      0x00\n        /* \"crowdfunding/Crowdfunding.sol\":2638:2647  campaigns */\n      dup1\n        /* \"crowdfunding/Crowdfunding.sol\":2638:2652  campaigns[_id] */\n      0x00\n        /* \"crowdfunding/Crowdfunding.sol\":2648:2651  _id */\n      dup4\n        /* \"crowdfunding/Crowdfunding.sol\":2638:2652  campaigns[_id] */\n      dup2\n      mstore\n      0x20\n      add\n      swap1\n      dup2\n      mstore\n      0x20\n      add\n      0x00\n      keccak256\n        /* \"crowdfunding/Crowdfunding.sol\":2610:2652  Campaign storage campaign = campaigns[_id] */\n      swap1\n      pop\n        /* \"crowdfunding/Crowdfunding.sol\":2684:2692  campaign */\n      dup1\n        /* \"crowdfunding/Crowdfunding.sol\":2684:2698  campaign.owner */\n      0x00\n      add\n      0x00\n      swap1\n      sload\n      swap1\n      0x0100\n      exp\n      swap1\n      div\n      0xffffffffffffffffffffffffffffffffffffffff\n      and\n        /* \"crowdfunding/Crowdfunding.sol\":2670:2698  msg.sender == campaign.owner */\n      0xffffffffffffffffffffffffffffffffffffffff\n      and\n        /* \"crowdfunding/Crowdfunding.sol\":2670:2680  msg.sender */\n      caller\n        /* \"crowdfunding/Crowdfunding.sol\":2670:2698  msg.sender == campaign.owner */\n      0xffffffffffffffffffffffffffffffffffffffff\n      and\n      eq\n        /* \"crowdfunding/Crowdfunding.sol\":2662:2715  require(msg.sender == campaign.owner,\"not an owner!\") */\n      tag_66\n      jumpi\n      mload(0x40)\n      0x08c379a000000000000000000000000000000000000000000000000000000000\n      dup2\n      mstore\n      0x04\n      add\n      tag_67\n      swap1\n      tag_68\n      jump\t// in\n    tag_67:\n      mload(0x40)\n      dup1\n      swap2\n      sub\n      swap1\n      revert\n    tag_66:\n        /* \"crowdfunding/Crowdfunding.sol\":2751:2759  campaign */\n      dup1\n        /* \"crowdfunding/Crowdfunding.sol\":2751:2766  campaign.endsAt */\n      0x04\n      add\n      sload\n        /* \"crowdfunding/Crowdfunding.sol\":2733:2748  block.timestamp */\n      timestamp\n        /* \"crowdfunding/Crowdfunding.sol\":2733:2766  block.timestamp > campaign.endsAt */\n      gt\n        /* \"crowdfunding/Crowdfunding.sol\":2725:2780  require(block.timestamp > campaign.endsAt,\"not ended!\") */\n      tag_69\n      jumpi\n      mload(0x40)\n      0x08c379a000000000000000000000000000000000000000000000000000000000\n      dup2\n      mstore\n      0x04\n      add\n      tag_70\n      swap1\n      tag_54\n      jump\t// in\n    tag_70:\n      mload(0x40)\n      dup1\n      swap2\n      sub\n      swap1\n      revert\n    tag_69:\n        /* \"crowdfunding/Crowdfunding.sol\":2818:2826  campaign */\n      dup1\n        /* \"crowdfunding/Crowdfunding.sol\":2818:2836  campaign.goalfunds */\n      0x01\n      add\n      sload\n        /* \"crowdfunding/Crowdfunding.sol\":2798:2806  campaign */\n      dup2\n        /* \"crowdfunding/Crowdfunding.sol\":2798:2814  campaign.pledged */\n      0x02\n      add\n      sload\n        /* \"crowdfunding/Crowdfunding.sol\":2798:2836  campaign.pledged >= campaign.goalfunds */\n      lt\n      iszero\n        /* \"crowdfunding/Crowdfunding.sol\":2790:2857  require(campaign.pledged >= campaign.goalfunds, \"pledged too low!\") */\n      tag_71\n      jumpi\n      mload(0x40)\n      0x08c379a000000000000000000000000000000000000000000000000000000000\n      dup2\n      mstore\n      0x04\n      add\n      tag_72\n      swap1\n      tag_73\n      jump\t// in\n    tag_72:\n      mload(0x40)\n      dup1\n      swap2\n      sub\n      swap1\n      revert\n    tag_71:\n        /* \"crowdfunding/Crowdfunding.sol\":2875:2883  campaign */\n      dup1\n        /* \"crowdfunding/Crowdfunding.sol\":2875:2891  campaign.claimed */\n      0x05\n      add\n      0x00\n      swap1\n      sload\n      swap1\n      0x0100\n      exp\n      swap1\n      div\n      0xff\n      and\n        /* \"crowdfunding/Crowdfunding.sol\":2867:2910  require(campaign.claimed,\"already claimed\") */\n      tag_74\n      jumpi\n      mload(0x40)\n      0x08c379a000000000000000000000000000000000000000000000000000000000\n      dup2\n      mstore\n      0x04\n      add\n      tag_75\n      swap1\n      tag_76\n      jump\t// in\n    tag_75:\n      mload(0x40)\n      dup1\n      swap2\n      sub\n      swap1\n      revert\n    tag_74:\n        /* \"crowdfunding/Crowdfunding.sol\":2939:2943  true */\n      0x01\n        /* \"crowdfunding/Crowdfunding.sol\":2920:2928  campaign */\n      dup2\n        /* \"crowdfunding/Crowdfunding.sol\":2920:2936  campaign.claimed */\n      0x05\n      add\n      0x00\n        /* \"crowdfunding/Crowdfunding.sol\":2920:2943  campaign.claimed = true */\n      0x0100\n      exp\n      dup2\n      sload\n      dup2\n      0xff\n      mul\n      not\n      and\n      swap1\n      dup4\n      iszero\n      iszero\n      mul\n      or\n      swap1\n      sstore\n      pop\n        /* \"crowdfunding/Crowdfunding.sol\":2953:2958  token */\n      immutable(\"0xcc193713febc75d3d9bd2f9ce113f403ff19633f15c8cdbcf79756ae23e77f9a\")\n        /* \"crowdfunding/Crowdfunding.sol\":2953:2967  token.transfer */\n      0xffffffffffffffffffffffffffffffffffffffff\n      and\n      0xa9059cbb\n        /* \"crowdfunding/Crowdfunding.sol\":2968:2978  msg.sender */\n      caller\n        /* \"crowdfunding/Crowdfunding.sol\":2979:2987  campaign */\n      dup4\n        /* \"crowdfunding/Crowdfunding.sol\":2979:2995  campaign.pledged */\n      0x02\n      add\n      sload\n        /* \"crowdfunding/Crowdfunding.sol\":2953:2996  token.transfer(msg.sender,campaign.pledged) */\n      mload(0x40)\n      dup4\n      0xffffffff\n      and\n      0xe0\n      shl\n      dup2\n      mstore\n      0x04\n      add\n      tag_77\n      swap3\n      swap2\n      swap1\n      tag_59\n      jump\t// in\n    tag_77:\n      0x00\n      mload(0x40)\n      dup1\n      dup4\n      sub\n      dup2\n      0x00\n      dup8\n      dup1\n      extcodesize\n      iszero\n      dup1\n      iszero\n      tag_78\n      jumpi\n      0x00\n      dup1\n      revert\n    tag_78:\n      pop\n      gas\n      call\n      iszero\n      dup1\n      iszero\n      tag_80\n      jumpi\n      returndatasize\n      0x00\n      dup1\n      returndatacopy\n      revert(0x00, returndatasize)\n    tag_80:\n      pop\n      pop\n      pop\n      pop\n        /* \"crowdfunding/Crowdfunding.sol\":3011:3023  Claimed(_id) */\n      0x7a355715549cfe7c1cba26304350343fbddc4b4f72d3ce3e7c27117dd20b5cb8\n        /* \"crowdfunding/Crowdfunding.sol\":3019:3022  _id */\n      dup3\n        /* \"crowdfunding/Crowdfunding.sol\":3011:3023  Claimed(_id) */\n      mload(0x40)\n      tag_81\n      swap2\n      swap1\n      tag_17\n      jump\t// in\n    tag_81:\n      mload(0x40)\n      dup1\n      swap2\n      sub\n      swap1\n      log1\n        /* \"crowdfunding/Crowdfunding.sol\":2600:3031  {... */\n      pop\n        /* \"crowdfunding/Crowdfunding.sol\":2566:3031  function claim(uint _id) external {... */\n      pop\n      jump\t// out\n        /* \"crowdfunding/Crowdfunding.sol\":1506:1773  function cancel(uint _id) external {... */\n    tag_27:\n        /* \"crowdfunding/Crowdfunding.sol\":1551:1575  Campaign memory campaign */\n      0x00\n        /* \"crowdfunding/Crowdfunding.sol\":1578:1587  campaigns */\n      dup1\n        /* \"crowdfunding/Crowdfunding.sol\":1578:1592  campaigns[_id] */\n      0x00\n        /* \"crowdfunding/Crowdfunding.sol\":1588:1591  _id */\n      dup4\n        /* \"crowdfunding/Crowdfunding.sol\":1578:1592  campaigns[_id] */\n      dup2\n      mstore\n      0x20\n      add\n      swap1\n      dup2\n      mstore\n      0x20\n      add\n      0x00\n      keccak256\n        /* \"crowdfunding/Crowdfunding.sol\":1551:1592  Campaign memory campaign = campaigns[_id] */\n      mload(0x40)\n      dup1\n      0xc0\n      add\n      0x40\n      mstore\n      swap1\n      dup2\n      0x00\n      dup3\n      add\n      0x00\n      swap1\n      sload\n      swap1\n      0x0100\n      exp\n      swap1\n      div\n      0xffffffffffffffffffffffffffffffffffffffff\n      and\n      0xffffffffffffffffffffffffffffffffffffffff\n      and\n      0xffffffffffffffffffffffffffffffffffffffff\n      and\n      dup2\n      mstore\n      0x20\n      add\n      0x01\n      dup3\n      add\n      sload\n      dup2\n      mstore\n      0x20\n      add\n      0x02\n      dup3\n      add\n      sload\n      dup2\n      mstore\n      0x20\n      add\n      0x03\n      dup3\n      add\n      sload\n      dup2\n      mstore\n      0x20\n      add\n      0x04\n      dup3\n      add\n      sload\n      dup2\n      mstore\n      0x20\n      add\n      0x05\n      dup3\n      add\n      0x00\n      swap1\n      sload\n      swap1\n      0x0100\n      exp\n      swap1\n      div\n      0xff\n      and\n      iszero\n      iszero\n      iszero\n      iszero\n      dup2\n      mstore\n      pop\n      pop\n      swap1\n      pop\n        /* \"crowdfunding/Crowdfunding.sol\":1624:1632  campaign */\n      dup1\n        /* \"crowdfunding/Crowdfunding.sol\":1624:1638  campaign.owner */\n      0x00\n      add\n      mload\n        /* \"crowdfunding/Crowdfunding.sol\":1610:1638  msg.sender == campaign.owner */\n      0xffffffffffffffffffffffffffffffffffffffff\n      and\n        /* \"crowdfunding/Crowdfunding.sol\":1610:1620  msg.sender */\n      caller\n        /* \"crowdfunding/Crowdfunding.sol\":1610:1638  msg.sender == campaign.owner */\n      0xffffffffffffffffffffffffffffffffffffffff\n      and\n      eq\n        /* \"crowdfunding/Crowdfunding.sol\":1602:1656  require(msg.sender == campaign.owner, \"not an owner!\") */\n      tag_83\n      jumpi\n      mload(0x40)\n      0x08c379a000000000000000000000000000000000000000000000000000000000\n      dup2\n      mstore\n      0x04\n      add\n      tag_84\n      swap1\n      tag_68\n      jump\t// in\n    tag_84:\n      mload(0x40)\n      dup1\n      swap2\n      sub\n      swap1\n      revert\n    tag_83:\n        /* \"crowdfunding/Crowdfunding.sol\":1692:1700  campaign */\n      dup1\n        /* \"crowdfunding/Crowdfunding.sol\":1692:1708  campaign.startAt */\n      0x60\n      add\n      mload\n        /* \"crowdfunding/Crowdfunding.sol\":1674:1689  block.timestamp */\n      timestamp\n        /* \"crowdfunding/Crowdfunding.sol\":1674:1708  block.timestamp < campaign.startAt */\n      lt\n        /* \"crowdfunding/Crowdfunding.sol\":1666:1726  require(block.timestamp < campaign.startAt,\"TRYNA FOOL ME?\") */\n      tag_85\n      jumpi\n      mload(0x40)\n      0x08c379a000000000000000000000000000000000000000000000000000000000\n      dup2\n      mstore\n      0x04\n      add\n      tag_86\n      swap1\n      tag_87\n      jump\t// in\n    tag_86:\n      mload(0x40)\n      dup1\n      swap2\n      sub\n      swap1\n      revert\n    tag_85:\n        /* \"crowdfunding/Crowdfunding.sol\":1752:1761  campaigns */\n      0x00\n        /* \"crowdfunding/Crowdfunding.sol\":1752:1766  campaigns[_id] */\n      dup1\n        /* \"crowdfunding/Crowdfunding.sol\":1762:1765  _id */\n      dup4\n        /* \"crowdfunding/Crowdfunding.sol\":1752:1766  campaigns[_id] */\n      dup2\n      mstore\n      0x20\n      add\n      swap1\n      dup2\n      mstore\n      0x20\n      add\n      0x00\n      keccak256\n      0x00\n        /* \"crowdfunding/Crowdfunding.sol\":1745:1766  delete campaigns[_id] */\n      dup1\n      dup3\n      add\n      exp(0x0100, 0x00)\n      dup2\n      sload\n      swap1\n      0xffffffffffffffffffffffffffffffffffffffff\n      mul\n      not\n      and\n      swap1\n      sstore\n      0x01\n      dup3\n      add\n      0x00\n      swap1\n      sstore\n      0x02\n      dup3\n      add\n      0x00\n      swap1\n      sstore\n      0x03\n      dup3\n      add\n      0x00\n      swap1\n      sstore\n      0x04\n      dup3\n      add\n      0x00\n      swap1\n      sstore\n      0x05\n      dup3\n      add\n      exp(0x0100, 0x00)\n      dup2\n      sload\n      swap1\n      0xff\n      mul\n      not\n      and\n      swap1\n      sstore\n      pop\n      pop\n        /* \"crowdfunding/Crowdfunding.sol\":1541:1773  {... */\n      pop\n        /* \"crowdfunding/Crowdfunding.sol\":1506:1773  function cancel(uint _id) external {... */\n      pop\n      jump\t// out\n        /* \"crowdfunding/Crowdfunding.sol\":2214:2561  function unpledge(uint _id, uint _amount) external {... */\n    tag_31:\n        /* \"crowdfunding/Crowdfunding.sol\":2275:2300  Campaign storage campaign */\n      0x00\n        /* \"crowdfunding/Crowdfunding.sol\":2303:2312  campaigns */\n      dup1\n        /* \"crowdfunding/Crowdfunding.sol\":2303:2317  campaigns[_id] */\n      0x00\n        /* \"crowdfunding/Crowdfunding.sol\":2313:2316  _id */\n      dup5\n        /* \"crowdfunding/Crowdfunding.sol\":2303:2317  campaigns[_id] */\n      dup2\n      mstore\n      0x20\n      add\n      swap1\n      dup2\n      mstore\n      0x20\n      add\n      0x00\n      keccak256\n        /* \"crowdfunding/Crowdfunding.sol\":2275:2317  Campaign storage campaign = campaigns[_id] */\n      swap1\n      pop\n        /* \"crowdfunding/Crowdfunding.sol\":2353:2361  campaign */\n      dup1\n        /* \"crowdfunding/Crowdfunding.sol\":2353:2368  campaign.endsAt */\n      0x04\n      add\n      sload\n        /* \"crowdfunding/Crowdfunding.sol\":2335:2350  block.timestamp */\n      timestamp\n        /* \"crowdfunding/Crowdfunding.sol\":2335:2368  block.timestamp < campaign.endsAt */\n      lt\n        /* \"crowdfunding/Crowdfunding.sol\":2327:2378  require(block.timestamp < campaign.endsAt, \"ended\") */\n      tag_89\n      jumpi\n      mload(0x40)\n      0x08c379a000000000000000000000000000000000000000000000000000000000\n      dup2\n      mstore\n      0x04\n      add\n      tag_90\n      swap1\n      tag_91\n      jump\t// in\n    tag_90:\n      mload(0x40)\n      dup1\n      swap2\n      sub\n      swap1\n      revert\n    tag_89:\n        /* \"crowdfunding/Crowdfunding.sol\":2409:2416  _amount */\n      dup2\n        /* \"crowdfunding/Crowdfunding.sol\":2389:2397  campaign */\n      dup2\n        /* \"crowdfunding/Crowdfunding.sol\":2389:2405  campaign.pledged */\n      0x02\n      add\n      0x00\n        /* \"crowdfunding/Crowdfunding.sol\":2389:2416  campaign.pledged -= _amount */\n      dup3\n      dup3\n      sload\n      tag_92\n      swap2\n      swap1\n      tag_93\n      jump\t// in\n    tag_92:\n      swap3\n      pop\n      pop\n      dup2\n      swap1\n      sstore\n      pop\n        /* \"crowdfunding/Crowdfunding.sol\":2454:2461  _amount */\n      dup2\n        /* \"crowdfunding/Crowdfunding.sol\":2426:2433  pledges */\n      0x02\n        /* \"crowdfunding/Crowdfunding.sol\":2426:2438  pledges[_id] */\n      0x00\n        /* \"crowdfunding/Crowdfunding.sol\":2434:2437  _id */\n      dup6\n        /* \"crowdfunding/Crowdfunding.sol\":2426:2438  pledges[_id] */\n      dup2\n      mstore\n      0x20\n      add\n      swap1\n      dup2\n      mstore\n      0x20\n      add\n      0x00\n      keccak256\n        /* \"crowdfunding/Crowdfunding.sol\":2426:2450  pledges[_id][msg.sender] */\n      0x00\n        /* \"crowdfunding/Crowdfunding.sol\":2439:2449  msg.sender */\n      caller\n        /* \"crowdfunding/Crowdfunding.sol\":2426:2450  pledges[_id][msg.sender] */\n      0xffffffffffffffffffffffffffffffffffffffff\n      and\n      0xffffffffffffffffffffffffffffffffffffffff\n      and\n      dup2\n      mstore\n      0x20\n      add\n      swap1\n      dup2\n      mstore\n      0x20\n      add\n      0x00\n      keccak256\n      0x00\n        /* \"crowdfunding/Crowdfunding.sol\":2426:2461  pledges[_id][msg.sender] -= _amount */\n      dup3\n      dup3\n      sload\n      tag_94\n      swap2\n      swap1\n      tag_93\n      jump\t// in\n    tag_94:\n      swap3\n      pop\n      pop\n      dup2\n      swap1\n      sstore\n      pop\n        /* \"crowdfunding/Crowdfunding.sol\":2471:2476  token */\n      immutable(\"0xcc193713febc75d3d9bd2f9ce113f403ff19633f15c8cdbcf79756ae23e77f9a\")\n        /* \"crowdfunding/Crowdfunding.sol\":2471:2485  token.transfer */\n      0xffffffffffffffffffffffffffffffffffffffff\n      and\n      0xa9059cbb\n        /* \"crowdfunding/Crowdfunding.sol\":2486:2496  msg.sender */\n      caller\n        /* \"crowdfunding/Crowdfunding.sol\":2497:2504  _amount */\n      dup5\n        /* \"crowdfunding/Crowdfunding.sol\":2471:2505  token.transfer(msg.sender,_amount) */\n      mload(0x40)\n      dup4\n      0xffffffff\n      and\n      0xe0\n      shl\n      dup2\n      mstore\n      0x04\n      add\n      tag_95\n      swap3\n      swap2\n      swap1\n      tag_59\n      jump\t// in\n    tag_95:\n      0x00\n      mload(0x40)\n      dup1\n      dup4\n      sub\n      dup2\n      0x00\n      dup8\n      dup1\n      extcodesize\n      iszero\n      dup1\n      iszero\n      tag_96\n      jumpi\n      0x00\n      dup1\n      revert\n    tag_96:\n      pop\n      gas\n      call\n      iszero\n      dup1\n      iszero\n      tag_98\n      jumpi\n      returndatasize\n      0x00\n      dup1\n      returndatacopy\n      revert(0x00, returndatasize)\n    tag_98:\n      pop\n      pop\n      pop\n      pop\n        /* \"crowdfunding/Crowdfunding.sol\":2520:2554  Unpledged(_id, msg.sender,_amount) */\n      0xfcd29b1632c6748a9a4bb9b4cd5c6486c3c84a8550dce2368f83fef3969d9685\n        /* \"crowdfunding/Crowdfunding.sol\":2530:2533  _id */\n      dup4\n        /* \"crowdfunding/Crowdfunding.sol\":2535:2545  msg.sender */\n      caller\n        /* \"crowdfunding/Crowdfunding.sol\":2546:2553  _amount */\n      dup5\n        /* \"crowdfunding/Crowdfunding.sol\":2520:2554  Unpledged(_id, msg.sender,_amount) */\n      mload(0x40)\n      tag_99\n      swap4\n      swap3\n      swap2\n      swap1\n      tag_64\n      jump\t// in\n    tag_99:\n      mload(0x40)\n      dup1\n      swap2\n      sub\n      swap1\n      log1\n        /* \"crowdfunding/Crowdfunding.sol\":2265:2561  {... */\n      pop\n        /* \"crowdfunding/Crowdfunding.sol\":2214:2561  function unpledge(uint _id, uint _amount) external {... */\n      pop\n      pop\n      jump\t// out\n        /* \"crowdfunding/Crowdfunding.sol\":900:1501  function launch(uint _goal, uint _startsAt,uint _endsAt) external {... */\n    tag_35:\n        /* \"crowdfunding/Crowdfunding.sol\":997:1012  block.timestamp */\n      timestamp\n        /* \"crowdfunding/Crowdfunding.sol\":984:993  _startsAt */\n      dup3\n        /* \"crowdfunding/Crowdfunding.sol\":984:1012  _startsAt >= block.timestamp */\n      lt\n      iszero\n        /* \"crowdfunding/Crowdfunding.sol\":976:1032  require(_startsAt >= block.timestamp, \"incorrect start\") */\n      tag_101\n      jumpi\n      mload(0x40)\n      0x08c379a000000000000000000000000000000000000000000000000000000000\n      dup2\n      mstore\n      0x04\n      add\n      tag_102\n      swap1\n      tag_103\n      jump\t// in\n    tag_102:\n      mload(0x40)\n      dup1\n      swap2\n      sub\n      swap1\n      revert\n    tag_101:\n        /* \"crowdfunding/Crowdfunding.sol\":527:529  10 */\n      0x0a\n        /* \"crowdfunding/Crowdfunding.sol\":1062:1071  _startsAt */\n      dup3\n        /* \"crowdfunding/Crowdfunding.sol\":1062:1087  _startsAt +  MIN_DURATION */\n      tag_104\n      swap2\n      swap1\n      tag_105\n      jump\t// in\n    tag_104:\n        /* \"crowdfunding/Crowdfunding.sol\":1051:1058  _endsAt */\n      dup2\n        /* \"crowdfunding/Crowdfunding.sol\":1051:1087  _endsAt >= _startsAt +  MIN_DURATION */\n      lt\n      iszero\n        /* \"crowdfunding/Crowdfunding.sol\":1042:1105  require (_endsAt >= _startsAt +  MIN_DURATION, \"incorrect end\") */\n      tag_106\n      jumpi\n      mload(0x40)\n      0x08c379a000000000000000000000000000000000000000000000000000000000\n      dup2\n      mstore\n      0x04\n      add\n      tag_107\n      swap1\n      tag_108\n      jump\t// in\n    tag_107:\n      mload(0x40)\n      dup1\n      swap2\n      sub\n      swap1\n      revert\n    tag_106:\n        /* \"crowdfunding/Crowdfunding.sol\":476:484  100 days */\n      0x83d600\n        /* \"crowdfunding/Crowdfunding.sol\":1135:1144  _startsAt */\n      dup3\n        /* \"crowdfunding/Crowdfunding.sol\":1135:1159  _startsAt + MAX_DURATION */\n      tag_109\n      swap2\n      swap1\n      tag_105\n      jump\t// in\n    tag_109:\n        /* \"crowdfunding/Crowdfunding.sol\":1124:1131  _endsAt */\n      dup2\n        /* \"crowdfunding/Crowdfunding.sol\":1124:1159  _endsAt <= _startsAt + MAX_DURATION */\n      gt\n      iszero\n        /* \"crowdfunding/Crowdfunding.sol\":1115:1173  require (_endsAt <= _startsAt + MAX_DURATION, \"too long!\") */\n      tag_110\n      jumpi\n      mload(0x40)\n      0x08c379a000000000000000000000000000000000000000000000000000000000\n      dup2\n      mstore\n      0x04\n      add\n      tag_111\n      swap1\n      tag_112\n      jump\t// in\n    tag_111:\n      mload(0x40)\n      dup1\n      swap2\n      sub\n      swap1\n      revert\n    tag_110:\n        /* \"crowdfunding/Crowdfunding.sol\":1207:1400  Campaign ({... */\n      mload(0x40)\n      dup1\n      0xc0\n      add\n      0x40\n      mstore\n      dup1\n        /* \"crowdfunding/Crowdfunding.sol\":1237:1247  msg.sender */\n      caller\n        /* \"crowdfunding/Crowdfunding.sol\":1207:1400  Campaign ({... */\n      0xffffffffffffffffffffffffffffffffffffffff\n      and\n      dup2\n      mstore\n      0x20\n      add\n        /* \"crowdfunding/Crowdfunding.sol\":1272:1277  _goal */\n      dup5\n        /* \"crowdfunding/Crowdfunding.sol\":1207:1400  Campaign ({... */\n      dup2\n      mstore\n      0x20\n      add\n        /* \"crowdfunding/Crowdfunding.sol\":1300:1301  0 */\n      0x00\n        /* \"crowdfunding/Crowdfunding.sol\":1207:1400  Campaign ({... */\n      dup2\n      mstore\n      0x20\n      add\n        /* \"crowdfunding/Crowdfunding.sol\":1324:1333  _startsAt */\n      dup4\n        /* \"crowdfunding/Crowdfunding.sol\":1207:1400  Campaign ({... */\n      dup2\n      mstore\n      0x20\n      add\n        /* \"crowdfunding/Crowdfunding.sol\":1354:1361  _endsAt */\n      dup3\n        /* \"crowdfunding/Crowdfunding.sol\":1207:1400  Campaign ({... */\n      dup2\n      mstore\n      0x20\n      add\n        /* \"crowdfunding/Crowdfunding.sol\":1384:1389  false */\n      0x00\n        /* \"crowdfunding/Crowdfunding.sol\":1207:1400  Campaign ({... */\n      iszero\n      iszero\n      dup2\n      mstore\n      pop\n        /* \"crowdfunding/Crowdfunding.sol\":1184:1193  campaigns */\n      0x00\n        /* \"crowdfunding/Crowdfunding.sol\":1184:1204  campaigns[currentID] */\n      dup1\n        /* \"crowdfunding/Crowdfunding.sol\":1194:1203  currentID */\n      sload(0x01)\n        /* \"crowdfunding/Crowdfunding.sol\":1184:1204  campaigns[currentID] */\n      dup2\n      mstore\n      0x20\n      add\n      swap1\n      dup2\n      mstore\n      0x20\n      add\n      0x00\n      keccak256\n        /* \"crowdfunding/Crowdfunding.sol\":1184:1400  campaigns[currentID] = Campaign ({... */\n      0x00\n      dup3\n      add\n      mload\n      dup2\n      0x00\n      add\n      exp(0x0100, 0x00)\n      dup2\n      sload\n      dup2\n      0xffffffffffffffffffffffffffffffffffffffff\n      mul\n      not\n      and\n      swap1\n      dup4\n      0xffffffffffffffffffffffffffffffffffffffff\n      and\n      mul\n      or\n      swap1\n      sstore\n      pop\n      0x20\n      dup3\n      add\n      mload\n      dup2\n      0x01\n      add\n      sstore\n      0x40\n      dup3\n      add\n      mload\n      dup2\n      0x02\n      add\n      sstore\n      0x60\n      dup3\n      add\n      mload\n      dup2\n      0x03\n      add\n      sstore\n      0x80\n      dup3\n      add\n      mload\n      dup2\n      0x04\n      add\n      sstore\n      0xa0\n      dup3\n      add\n      mload\n      dup2\n      0x05\n      add\n      exp(0x0100, 0x00)\n      dup2\n      sload\n      dup2\n      0xff\n      mul\n      not\n      and\n      swap1\n      dup4\n      iszero\n      iszero\n      mul\n      or\n      swap1\n      sstore\n      pop\n      swap1\n      pop\n      pop\n        /* \"crowdfunding/Crowdfunding.sol\":1416:1470  Launched(currentID,msg.sender,_goal,_startsAt,_endsAt) */\n      0xea7dc5be41326789a621aaa33d671281d0a54aa87610751def19f8544c2004c3\n        /* \"crowdfunding/Crowdfunding.sol\":1425:1434  currentID */\n      sload(0x01)\n        /* \"crowdfunding/Crowdfunding.sol\":1435:1445  msg.sender */\n      caller\n        /* \"crowdfunding/Crowdfunding.sol\":1446:1451  _goal */\n      dup6\n        /* \"crowdfunding/Crowdfunding.sol\":1452:1461  _startsAt */\n      dup6\n        /* \"crowdfunding/Crowdfunding.sol\":1462:1469  _endsAt */\n      dup6\n        /* \"crowdfunding/Crowdfunding.sol\":1416:1470  Launched(currentID,msg.sender,_goal,_startsAt,_endsAt) */\n      mload(0x40)\n      tag_113\n      swap6\n      swap5\n      swap4\n      swap3\n      swap2\n      swap1\n      tag_114\n      jump\t// in\n    tag_113:\n      mload(0x40)\n      dup1\n      swap2\n      sub\n      swap1\n      log1\n        /* \"crowdfunding/Crowdfunding.sol\":1493:1494  1 */\n      0x01\n        /* \"crowdfunding/Crowdfunding.sol\":1480:1489  currentID */\n      dup1\n      0x00\n        /* \"crowdfunding/Crowdfunding.sol\":1480:1494  currentID += 1 */\n      dup3\n      dup3\n      sload\n      tag_115\n      swap2\n      swap1\n      tag_105\n      jump\t// in\n    tag_115:\n      swap3\n      pop\n      pop\n      dup2\n      swap1\n      sstore\n      pop\n        /* \"crowdfunding/Crowdfunding.sol\":900:1501  function launch(uint _goal, uint _startsAt,uint _endsAt) external {... */\n      pop\n      pop\n      pop\n      jump\t// out\n        /* \"crowdfunding/Crowdfunding.sol\":378:434  mapping(uint => mapping(address => uint)) public pledges */\n    tag_39:\n      mstore(0x20, 0x02)\n      dup2\n      0x00\n      mstore\n      mstore(0x20, keccak256(0x00, 0x40))\n      dup1\n      0x00\n      mstore\n      keccak256(0x00, 0x40)\n      0x00\n      swap2\n      pop\n      swap2\n      pop\n      pop\n      sload\n      dup2\n      jump\t// out\n        /* \"crowdfunding/Crowdfunding.sol\":440:484  uint public constant MAX_DURATION = 100 days */\n    tag_42:\n        /* \"crowdfunding/Crowdfunding.sol\":476:484  100 days */\n      0x83d600\n        /* \"crowdfunding/Crowdfunding.sol\":440:484  uint public constant MAX_DURATION = 100 days */\n      dup2\n      jump\t// out\n        /* \"crowdfunding/Crowdfunding.sol\":275:304  IERC20 public immutable token */\n    tag_45:\n      immutable(\"0xcc193713febc75d3d9bd2f9ce113f403ff19633f15c8cdbcf79756ae23e77f9a\")\n      dup2\n      jump\t// out\n        /* \"crowdfunding/Crowdfunding.sol\":1778:2209  function pledge(uint _id, uint _amount) external {... */\n    tag_50:\n        /* \"crowdfunding/Crowdfunding.sol\":1837:1862  Campaign storage campaign */\n      0x00\n        /* \"crowdfunding/Crowdfunding.sol\":1865:1874  campaigns */\n      dup1\n        /* \"crowdfunding/Crowdfunding.sol\":1865:1879  campaigns[_id] */\n      0x00\n        /* \"crowdfunding/Crowdfunding.sol\":1875:1878  _id */\n      dup5\n        /* \"crowdfunding/Crowdfunding.sol\":1865:1879  campaigns[_id] */\n      dup2\n      mstore\n      0x20\n      add\n      swap1\n      dup2\n      mstore\n      0x20\n      add\n      0x00\n      keccak256\n        /* \"crowdfunding/Crowdfunding.sol\":1837:1879  Campaign storage campaign = campaigns[_id] */\n      swap1\n      pop\n        /* \"crowdfunding/Crowdfunding.sol\":1916:1924  campaign */\n      dup1\n        /* \"crowdfunding/Crowdfunding.sol\":1916:1932  campaign.startAt */\n      0x03\n      add\n      sload\n        /* \"crowdfunding/Crowdfunding.sol\":1897:1912  block.timestamp */\n      timestamp\n        /* \"crowdfunding/Crowdfunding.sol\":1897:1932  block.timestamp >= campaign.startAt */\n      lt\n      iszero\n        /* \"crowdfunding/Crowdfunding.sol\":1889:1949  require(block.timestamp >= campaign.startAt, \"not Started!\") */\n      tag_117\n      jumpi\n      mload(0x40)\n      0x08c379a000000000000000000000000000000000000000000000000000000000\n      dup2\n      mstore\n      0x04\n      add\n      tag_118\n      swap1\n      tag_119\n      jump\t// in\n    tag_118:\n      mload(0x40)\n      dup1\n      swap2\n      sub\n      swap1\n      revert\n    tag_117:\n        /* \"crowdfunding/Crowdfunding.sol\":1985:1993  campaign */\n      dup1\n        /* \"crowdfunding/Crowdfunding.sol\":1985:2000  campaign.endsAt */\n      0x04\n      add\n      sload\n        /* \"crowdfunding/Crowdfunding.sol\":1967:1982  block.timestamp */\n      timestamp\n        /* \"crowdfunding/Crowdfunding.sol\":1967:2000  block.timestamp < campaign.endsAt */\n      lt\n        /* \"crowdfunding/Crowdfunding.sol\":1959:2011  require(block.timestamp < campaign.endsAt, \"ended!\") */\n      tag_120\n      jumpi\n      mload(0x40)\n      0x08c379a000000000000000000000000000000000000000000000000000000000\n      dup2\n      mstore\n      0x04\n      add\n      tag_121\n      swap1\n      tag_122\n      jump\t// in\n    tag_121:\n      mload(0x40)\n      dup1\n      swap2\n      sub\n      swap1\n      revert\n    tag_120:\n        /* \"crowdfunding/Crowdfunding.sol\":2042:2049  _amount */\n      dup2\n        /* \"crowdfunding/Crowdfunding.sol\":2022:2030  campaign */\n      dup2\n        /* \"crowdfunding/Crowdfunding.sol\":2022:2038  campaign.pledged */\n      0x02\n      add\n      0x00\n        /* \"crowdfunding/Crowdfunding.sol\":2022:2049  campaign.pledged += _amount */\n      dup3\n      dup3\n      sload\n      tag_123\n      swap2\n      swap1\n      tag_105\n      jump\t// in\n    tag_123:\n      swap3\n      pop\n      pop\n      dup2\n      swap1\n      sstore\n      pop\n        /* \"crowdfunding/Crowdfunding.sol\":2087:2094  _amount */\n      dup2\n        /* \"crowdfunding/Crowdfunding.sol\":2059:2066  pledges */\n      0x02\n        /* \"crowdfunding/Crowdfunding.sol\":2059:2071  pledges[_id] */\n      0x00\n        /* \"crowdfunding/Crowdfunding.sol\":2067:2070  _id */\n      dup6\n        /* \"crowdfunding/Crowdfunding.sol\":2059:2071  pledges[_id] */\n      dup2\n      mstore\n      0x20\n      add\n      swap1\n      dup2\n      mstore\n      0x20\n      add\n      0x00\n      keccak256\n        /* \"crowdfunding/Crowdfunding.sol\":2059:2083  pledges[_id][msg.sender] */\n      0x00\n        /* \"crowdfunding/Crowdfunding.sol\":2072:2082  msg.sender */\n      caller\n        /* \"crowdfunding/Crowdfunding.sol\":2059:2083  pledges[_id][msg.sender] */\n      0xffffffffffffffffffffffffffffffffffffffff\n      and\n      0xffffffffffffffffffffffffffffffffffffffff\n      and\n      dup2\n      mstore\n      0x20\n      add\n      swap1\n      dup2\n      mstore\n      0x20\n      add\n      0x00\n      keccak256\n      0x00\n        /* \"crowdfunding/Crowdfunding.sol\":2059:2094  pledges[_id][msg.sender] += _amount */\n      dup3\n      dup3\n      sload\n      tag_124\n      swap2\n      swap1\n      tag_105\n      jump\t// in\n    tag_124:\n      swap3\n      pop\n      pop\n      dup2\n      swap1\n      sstore\n      pop\n        /* \"crowdfunding/Crowdfunding.sol\":2104:2109  token */\n      immutable(\"0xcc193713febc75d3d9bd2f9ce113f403ff19633f15c8cdbcf79756ae23e77f9a\")\n        /* \"crowdfunding/Crowdfunding.sol\":2104:2122  token.transferFrom */\n      0xffffffffffffffffffffffffffffffffffffffff\n      and\n      0x23b872dd\n        /* \"crowdfunding/Crowdfunding.sol\":2123:2133  msg.sender */\n      caller\n        /* \"crowdfunding/Crowdfunding.sol\":2142:2146  this */\n      address\n        /* \"crowdfunding/Crowdfunding.sol\":2148:2155  _amount */\n      dup6\n        /* \"crowdfunding/Crowdfunding.sol\":2104:2156  token.transferFrom(msg.sender,address(this),_amount) */\n      mload(0x40)\n      dup5\n      0xffffffff\n      and\n      0xe0\n      shl\n      dup2\n      mstore\n      0x04\n      add\n      tag_125\n      swap4\n      swap3\n      swap2\n      swap1\n      tag_126\n      jump\t// in\n    tag_125:\n      0x00\n      mload(0x40)\n      dup1\n      dup4\n      sub\n      dup2\n      0x00\n      dup8\n      dup1\n      extcodesize\n      iszero\n      dup1\n      iszero\n      tag_127\n      jumpi\n      0x00\n      dup1\n      revert\n    tag_127:\n      pop\n      gas\n      call\n      iszero\n      dup1\n      iszero\n      tag_129\n      jumpi\n      returndatasize\n      0x00\n      dup1\n      returndatacopy\n      revert(0x00, returndatasize)\n    tag_129:\n      pop\n      pop\n      pop\n      pop\n        /* \"crowdfunding/Crowdfunding.sol\":2171:2202  Pledged(_id,msg.sender,_amount) */\n      0x2757ac6a40883f4491cc56930ae964df9034e343e660d5179eb01e198336756b\n        /* \"crowdfunding/Crowdfunding.sol\":2179:2182  _id */\n      dup4\n        /* \"crowdfunding/Crowdfunding.sol\":2183:2193  msg.sender */\n      caller\n        /* \"crowdfunding/Crowdfunding.sol\":2194:2201  _amount */\n      dup5\n        /* \"crowdfunding/Crowdfunding.sol\":2171:2202  Pledged(_id,msg.sender,_amount) */\n      mload(0x40)\n      tag_130\n      swap4\n      swap3\n      swap2\n      swap1\n      tag_64\n      jump\t// in\n    tag_130:\n      mload(0x40)\n      dup1\n      swap2\n      sub\n      swap1\n      log1\n        /* \"crowdfunding/Crowdfunding.sol\":1827:2209  {... */\n      pop\n        /* \"crowdfunding/Crowdfunding.sol\":1778:2209  function pledge(uint _id, uint _amount) external {... */\n      pop\n      pop\n      jump\t// out\n        /* \"#utility.yul\":7:146   */\n    tag_132:\n        /* \"#utility.yul\":53:58   */\n      0x00\n        /* \"#utility.yul\":91:97   */\n      dup2\n        /* \"#utility.yul\":78:98   */\n      calldataload\n        /* \"#utility.yul\":69:98   */\n      swap1\n      pop\n        /* \"#utility.yul\":107:140   */\n      tag_134\n        /* \"#utility.yul\":134:139   */\n      dup2\n        /* \"#utility.yul\":107:140   */\n      tag_135\n      jump\t// in\n    tag_134:\n        /* \"#utility.yul\":7:146   */\n      swap3\n      swap2\n      pop\n      pop\n      jump\t// out\n        /* \"#utility.yul\":152:291   */\n    tag_136:\n        /* \"#utility.yul\":198:203   */\n      0x00\n        /* \"#utility.yul\":236:242   */\n      dup2\n        /* \"#utility.yul\":223:243   */\n      calldataload\n        /* \"#utility.yul\":214:243   */\n      swap1\n      pop\n        /* \"#utility.yul\":252:285   */\n      tag_138\n        /* \"#utility.yul\":279:284   */\n      dup2\n        /* \"#utility.yul\":252:285   */\n      tag_139\n      jump\t// in\n    tag_138:\n        /* \"#utility.yul\":152:291   */\n      swap3\n      swap2\n      pop\n      pop\n      jump\t// out\n        /* \"#utility.yul\":297:626   */\n    tag_20:\n        /* \"#utility.yul\":356:362   */\n      0x00\n        /* \"#utility.yul\":405:407   */\n      0x20\n        /* \"#utility.yul\":393:402   */\n      dup3\n        /* \"#utility.yul\":384:391   */\n      dup5\n        /* \"#utility.yul\":380:403   */\n      sub\n        /* \"#utility.yul\":376:408   */\n      slt\n        /* \"#utility.yul\":373:492   */\n      iszero\n      tag_141\n      jumpi\n        /* \"#utility.yul\":411:490   */\n      tag_142\n      tag_143\n      jump\t// in\n    tag_142:\n        /* \"#utility.yul\":373:492   */\n    tag_141:\n        /* \"#utility.yul\":531:532   */\n      0x00\n        /* \"#utility.yul\":556:609   */\n      tag_144\n        /* \"#utility.yul\":601:608   */\n      dup5\n        /* \"#utility.yul\":592:598   */\n      dup3\n        /* \"#utility.yul\":581:590   */\n      dup6\n        /* \"#utility.yul\":577:599   */\n      add\n        /* \"#utility.yul\":556:609   */\n      tag_136\n      jump\t// in\n    tag_144:\n        /* \"#utility.yul\":546:609   */\n      swap2\n      pop\n        /* \"#utility.yul\":502:619   */\n      pop\n        /* \"#utility.yul\":297:626   */\n      swap3\n      swap2\n      pop\n      pop\n      jump\t// out\n        /* \"#utility.yul\":632:1106   */\n    tag_38:\n        /* \"#utility.yul\":700:706   */\n      0x00\n        /* \"#utility.yul\":708:714   */\n      dup1\n        /* \"#utility.yul\":757:759   */\n      0x40\n        /* \"#utility.yul\":745:754   */\n      dup4\n        /* \"#utility.yul\":736:743   */\n      dup6\n        /* \"#utility.yul\":732:755   */\n      sub\n        /* \"#utility.yul\":728:760   */\n      slt\n        /* \"#utility.yul\":725:844   */\n      iszero\n      tag_146\n      jumpi\n        /* \"#utility.yul\":763:842   */\n      tag_147\n      tag_143\n      jump\t// in\n    tag_147:\n        /* \"#utility.yul\":725:844   */\n    tag_146:\n        /* \"#utility.yul\":883:884   */\n      0x00\n        /* \"#utility.yul\":908:961   */\n      tag_148\n        /* \"#utility.yul\":953:960   */\n      dup6\n        /* \"#utility.yul\":944:950   */\n      dup3\n        /* \"#utility.yul\":933:942   */\n      dup7\n        /* \"#utility.yul\":929:951   */\n      add\n        /* \"#utility.yul\":908:961   */\n      tag_136\n      jump\t// in\n    tag_148:\n        /* \"#utility.yul\":898:961   */\n      swap3\n      pop\n        /* \"#utility.yul\":854:971   */\n      pop\n        /* \"#utility.yul\":1010:1012   */\n      0x20\n        /* \"#utility.yul\":1036:1089   */\n      tag_149\n        /* \"#utility.yul\":1081:1088   */\n      dup6\n        /* \"#utility.yul\":1072:1078   */\n      dup3\n        /* \"#utility.yul\":1061:1070   */\n      dup7\n        /* \"#utility.yul\":1057:1079   */\n      add\n        /* \"#utility.yul\":1036:1089   */\n      tag_132\n      jump\t// in\n    tag_149:\n        /* \"#utility.yul\":1026:1089   */\n      swap2\n      pop\n        /* \"#utility.yul\":981:1099   */\n      pop\n        /* \"#utility.yul\":632:1106   */\n      swap3\n      pop\n      swap3\n      swap1\n      pop\n      jump\t// out\n        /* \"#utility.yul\":1112:1586   */\n    tag_30:\n        /* \"#utility.yul\":1180:1186   */\n      0x00\n        /* \"#utility.yul\":1188:1194   */\n      dup1\n        /* \"#utility.yul\":1237:1239   */\n      0x40\n        /* \"#utility.yul\":1225:1234   */\n      dup4\n        /* \"#utility.yul\":1216:1223   */\n      dup6\n        /* \"#utility.yul\":1212:1235   */\n      sub\n        /* \"#utility.yul\":1208:1240   */\n      slt\n        /* \"#utility.yul\":1205:1324   */\n      iszero\n      tag_151\n      jumpi\n        /* \"#utility.yul\":1243:1322   */\n      tag_152\n      tag_143\n      jump\t// in\n    tag_152:\n        /* \"#utility.yul\":1205:1324   */\n    tag_151:\n        /* \"#utility.yul\":1363:1364   */\n      0x00\n        /* \"#utility.yul\":1388:1441   */\n      tag_153\n        /* \"#utility.yul\":1433:1440   */\n      dup6\n        /* \"#utility.yul\":1424:1430   */\n      dup3\n        /* \"#utility.yul\":1413:1422   */\n      dup7\n        /* \"#utility.yul\":1409:1431   */\n      add\n        /* \"#utility.yul\":1388:1441   */\n      tag_136\n      jump\t// in\n    tag_153:\n        /* \"#utility.yul\":1378:1441   */\n      swap3\n      pop\n        /* \"#utility.yul\":1334:1451   */\n      pop\n        /* \"#utility.yul\":1490:1492   */\n      0x20\n        /* \"#utility.yul\":1516:1569   */\n      tag_154\n        /* \"#utility.yul\":1561:1568   */\n      dup6\n        /* \"#utility.yul\":1552:1558   */\n      dup3\n        /* \"#utility.yul\":1541:1550   */\n      dup7\n        /* \"#utility.yul\":1537:1559   */\n      add\n        /* \"#utility.yul\":1516:1569   */\n      tag_136\n      jump\t// in\n    tag_154:\n        /* \"#utility.yul\":1506:1569   */\n      swap2\n      pop\n        /* \"#utility.yul\":1461:1579   */\n      pop\n        /* \"#utility.yul\":1112:1586   */\n      swap3\n      pop\n      swap3\n      swap1\n      pop\n      jump\t// out\n        /* \"#utility.yul\":1592:2211   */\n    tag_34:\n        /* \"#utility.yul\":1669:1675   */\n      0x00\n        /* \"#utility.yul\":1677:1683   */\n      dup1\n        /* \"#utility.yul\":1685:1691   */\n      0x00\n        /* \"#utility.yul\":1734:1736   */\n      0x60\n        /* \"#utility.yul\":1722:1731   */\n      dup5\n        /* \"#utility.yul\":1713:1720   */\n      dup7\n        /* \"#utility.yul\":1709:1732   */\n      sub\n        /* \"#utility.yul\":1705:1737   */\n      slt\n        /* \"#utility.yul\":1702:1821   */\n      iszero\n      tag_156\n      jumpi\n        /* \"#utility.yul\":1740:1819   */\n      tag_157\n      tag_143\n      jump\t// in\n    tag_157:\n        /* \"#utility.yul\":1702:1821   */\n    tag_156:\n        /* \"#utility.yul\":1860:1861   */\n      0x00\n        /* \"#utility.yul\":1885:1938   */\n      tag_158\n        /* \"#utility.yul\":1930:1937   */\n      dup7\n        /* \"#utility.yul\":1921:1927   */\n      dup3\n        /* \"#utility.yul\":1910:1919   */\n      dup8\n        /* \"#utility.yul\":1906:1928   */\n      add\n        /* \"#utility.yul\":1885:1938   */\n      tag_136\n      jump\t// in\n    tag_158:\n        /* \"#utility.yul\":1875:1938   */\n      swap4\n      pop\n        /* \"#utility.yul\":1831:1948   */\n      pop\n        /* \"#utility.yul\":1987:1989   */\n      0x20\n        /* \"#utility.yul\":2013:2066   */\n      tag_159\n        /* \"#utility.yul\":2058:2065   */\n      dup7\n        /* \"#utility.yul\":2049:2055   */\n      dup3\n        /* \"#utility.yul\":2038:2047   */\n      dup8\n        /* \"#utility.yul\":2034:2056   */\n      add\n        /* \"#utility.yul\":2013:2066   */\n      tag_136\n      jump\t// in\n    tag_159:\n        /* \"#utility.yul\":2003:2066   */\n      swap3\n      pop\n        /* \"#utility.yul\":1958:2076   */\n      pop\n        /* \"#utility.yul\":2115:2117   */\n      0x40\n        /* \"#utility.yul\":2141:2194   */\n      tag_160\n        /* \"#utility.yul\":2186:2193   */\n      dup7\n        /* \"#utility.yul\":2177:2183   */\n      dup3\n        /* \"#utility.yul\":2166:2175   */\n      dup8\n        /* \"#utility.yul\":2162:2184   */\n      add\n        /* \"#utility.yul\":2141:2194   */\n      tag_136\n      jump\t// in\n    tag_160:\n        /* \"#utility.yul\":2131:2194   */\n      swap2\n      pop\n        /* \"#utility.yul\":2086:2204   */\n      pop\n        /* \"#utility.yul\":1592:2211   */\n      swap3\n      pop\n      swap3\n      pop\n      swap3\n      jump\t// out\n        /* \"#utility.yul\":2217:2335   */\n    tag_161:\n        /* \"#utility.yul\":2304:2328   */\n      tag_163\n        /* \"#utility.yul\":2322:2327   */\n      dup2\n        /* \"#utility.yul\":2304:2328   */\n      tag_164\n      jump\t// in\n    tag_163:\n        /* \"#utility.yul\":2299:2302   */\n      dup3\n        /* \"#utility.yul\":2292:2329   */\n      mstore\n        /* \"#utility.yul\":2217:2335   */\n      pop\n      pop\n      jump\t// out\n        /* \"#utility.yul\":2341:2498   */\n    tag_165:\n        /* \"#utility.yul\":2441:2491   */\n      tag_167\n        /* \"#utility.yul\":2485:2490   */\n      dup2\n        /* \"#utility.yul\":2441:2491   */\n      tag_168\n      jump\t// in\n    tag_167:\n        /* \"#utility.yul\":2436:2439   */\n      dup3\n        /* \"#utility.yul\":2429:2492   */\n      mstore\n        /* \"#utility.yul\":2341:2498   */\n      pop\n      pop\n      jump\t// out\n        /* \"#utility.yul\":2504:2870   */\n    tag_169:\n        /* \"#utility.yul\":2646:2649   */\n      0x00\n        /* \"#utility.yul\":2667:2734   */\n      tag_171\n        /* \"#utility.yul\":2731:2733   */\n      0x10\n        /* \"#utility.yul\":2726:2729   */\n      dup4\n        /* \"#utility.yul\":2667:2734   */\n      tag_172\n      jump\t// in\n    tag_171:\n        /* \"#utility.yul\":2660:2734   */\n      swap2\n      pop\n        /* \"#utility.yul\":2743:2836   */\n      tag_173\n        /* \"#utility.yul\":2832:2835   */\n      dup3\n        /* \"#utility.yul\":2743:2836   */\n      tag_174\n      jump\t// in\n    tag_173:\n        /* \"#utility.yul\":2861:2863   */\n      0x20\n        /* \"#utility.yul\":2856:2859   */\n      dup3\n        /* \"#utility.yul\":2852:2864   */\n      add\n        /* \"#utility.yul\":2845:2864   */\n      swap1\n      pop\n        /* \"#utility.yul\":2504:2870   */\n      swap2\n      swap1\n      pop\n      jump\t// out\n        /* \"#utility.yul\":2876:3242   */\n    tag_175:\n        /* \"#utility.yul\":3018:3021   */\n      0x00\n        /* \"#utility.yul\":3039:3106   */\n      tag_177\n        /* \"#utility.yul\":3103:3105   */\n      0x0d\n        /* \"#utility.yul\":3098:3101   */\n      dup4\n        /* \"#utility.yul\":3039:3106   */\n      tag_172\n      jump\t// in\n    tag_177:\n        /* \"#utility.yul\":3032:3106   */\n      swap2\n      pop\n        /* \"#utility.yul\":3115:3208   */\n      tag_178\n        /* \"#utility.yul\":3204:3207   */\n      dup3\n        /* \"#utility.yul\":3115:3208   */\n      tag_179\n      jump\t// in\n    tag_178:\n        /* \"#utility.yul\":3233:3235   */\n      0x20\n        /* \"#utility.yul\":3228:3231   */\n      dup3\n        /* \"#utility.yul\":3224:3236   */\n      add\n        /* \"#utility.yul\":3217:3236   */\n      swap1\n      pop\n        /* \"#utility.yul\":2876:3242   */\n      swap2\n      swap1\n      pop\n      jump\t// out\n        /* \"#utility.yul\":3248:3614   */\n    tag_180:\n        /* \"#utility.yul\":3390:3393   */\n      0x00\n        /* \"#utility.yul\":3411:3478   */\n      tag_182\n        /* \"#utility.yul\":3475:3477   */\n      0x0f\n        /* \"#utility.yul\":3470:3473   */\n      dup4\n        /* \"#utility.yul\":3411:3478   */\n      tag_172\n      jump\t// in\n    tag_182:\n        /* \"#utility.yul\":3404:3478   */\n      swap2\n      pop\n        /* \"#utility.yul\":3487:3580   */\n      tag_183\n        /* \"#utility.yul\":3576:3579   */\n      dup3\n        /* \"#utility.yul\":3487:3580   */\n      tag_184\n      jump\t// in\n    tag_183:\n        /* \"#utility.yul\":3605:3607   */\n      0x20\n        /* \"#utility.yul\":3600:3603   */\n      dup3\n        /* \"#utility.yul\":3596:3608   */\n      add\n        /* \"#utility.yul\":3589:3608   */\n      swap1\n      pop\n        /* \"#utility.yul\":3248:3614   */\n      swap2\n      swap1\n      pop\n      jump\t// out\n        /* \"#utility.yul\":3620:3985   */\n    tag_185:\n        /* \"#utility.yul\":3762:3765   */\n      0x00\n        /* \"#utility.yul\":3783:3849   */\n      tag_187\n        /* \"#utility.yul\":3847:3848   */\n      0x09\n        /* \"#utility.yul\":3842:3845   */\n      dup4\n        /* \"#utility.yul\":3783:3849   */\n      tag_172\n      jump\t// in\n    tag_187:\n        /* \"#utility.yul\":3776:3849   */\n      swap2\n      pop\n        /* \"#utility.yul\":3858:3951   */\n      tag_188\n        /* \"#utility.yul\":3947:3950   */\n      dup3\n        /* \"#utility.yul\":3858:3951   */\n      tag_189\n      jump\t// in\n    tag_188:\n        /* \"#utility.yul\":3976:3978   */\n      0x20\n        /* \"#utility.yul\":3971:3974   */\n      dup3\n        /* \"#utility.yul\":3967:3979   */\n      add\n        /* \"#utility.yul\":3960:3979   */\n      swap1\n      pop\n        /* \"#utility.yul\":3620:3985   */\n      swap2\n      swap1\n      pop\n      jump\t// out\n        /* \"#utility.yul\":3991:4357   */\n    tag_190:\n        /* \"#utility.yul\":4133:4136   */\n      0x00\n        /* \"#utility.yul\":4154:4221   */\n      tag_192\n        /* \"#utility.yul\":4218:4220   */\n      0x0e\n        /* \"#utility.yul\":4213:4216   */\n      dup4\n        /* \"#utility.yul\":4154:4221   */\n      tag_172\n      jump\t// in\n    tag_192:\n        /* \"#utility.yul\":4147:4221   */\n      swap2\n      pop\n        /* \"#utility.yul\":4230:4323   */\n      tag_193\n        /* \"#utility.yul\":4319:4322   */\n      dup3\n        /* \"#utility.yul\":4230:4323   */\n      tag_194\n      jump\t// in\n    tag_193:\n        /* \"#utility.yul\":4348:4350   */\n      0x20\n        /* \"#utility.yul\":4343:4346   */\n      dup3\n        /* \"#utility.yul\":4339:4351   */\n      add\n        /* \"#utility.yul\":4332:4351   */\n      swap1\n      pop\n        /* \"#utility.yul\":3991:4357   */\n      swap2\n      swap1\n      pop\n      jump\t// out\n        /* \"#utility.yul\":4363:4729   */\n    tag_195:\n        /* \"#utility.yul\":4505:4508   */\n      0x00\n        /* \"#utility.yul\":4526:4593   */\n      tag_197\n        /* \"#utility.yul\":4590:4592   */\n      0x0c\n        /* \"#utility.yul\":4585:4588   */\n      dup4\n        /* \"#utility.yul\":4526:4593   */\n      tag_172\n      jump\t// in\n    tag_197:\n        /* \"#utility.yul\":4519:4593   */\n      swap2\n      pop\n        /* \"#utility.yul\":4602:4695   */\n      tag_198\n        /* \"#utility.yul\":4691:4694   */\n      dup3\n        /* \"#utility.yul\":4602:4695   */\n      tag_199\n      jump\t// in\n    tag_198:\n        /* \"#utility.yul\":4720:4722   */\n      0x20\n        /* \"#utility.yul\":4715:4718   */\n      dup3\n        /* \"#utility.yul\":4711:4723   */\n      add\n        /* \"#utility.yul\":4704:4723   */\n      swap1\n      pop\n        /* \"#utility.yul\":4363:4729   */\n      swap2\n      swap1\n      pop\n      jump\t// out\n        /* \"#utility.yul\":4735:5101   */\n    tag_200:\n        /* \"#utility.yul\":4877:4880   */\n      0x00\n        /* \"#utility.yul\":4898:4965   */\n      tag_202\n        /* \"#utility.yul\":4962:4964   */\n      0x0d\n        /* \"#utility.yul\":4957:4960   */\n      dup4\n        /* \"#utility.yul\":4898:4965   */\n      tag_172\n      jump\t// in\n    tag_202:\n        /* \"#utility.yul\":4891:4965   */\n      swap2\n      pop\n        /* \"#utility.yul\":4974:5067   */\n      tag_203\n        /* \"#utility.yul\":5063:5066   */\n      dup3\n        /* \"#utility.yul\":4974:5067   */\n      tag_204\n      jump\t// in\n    tag_203:\n        /* \"#utility.yul\":5092:5094   */\n      0x20\n        /* \"#utility.yul\":5087:5090   */\n      dup3\n        /* \"#utility.yul\":5083:5095   */\n      add\n        /* \"#utility.yul\":5076:5095   */\n      swap1\n      pop\n        /* \"#utility.yul\":4735:5101   */\n      swap2\n      swap1\n      pop\n      jump\t// out\n        /* \"#utility.yul\":5107:5473   */\n    tag_205:\n        /* \"#utility.yul\":5249:5252   */\n      0x00\n        /* \"#utility.yul\":5270:5337   */\n      tag_207\n        /* \"#utility.yul\":5334:5336   */\n      0x12\n        /* \"#utility.yul\":5329:5332   */\n      dup4\n        /* \"#utility.yul\":5270:5337   */\n      tag_172\n      jump\t// in\n    tag_207:\n        /* \"#utility.yul\":5263:5337   */\n      swap2\n      pop\n        /* \"#utility.yul\":5346:5439   */\n      tag_208\n        /* \"#utility.yul\":5435:5438   */\n      dup3\n        /* \"#utility.yul\":5346:5439   */\n      tag_209\n      jump\t// in\n    tag_208:\n        /* \"#utility.yul\":5464:5466   */\n      0x20\n        /* \"#utility.yul\":5459:5462   */\n      dup3\n        /* \"#utility.yul\":5455:5467   */\n      add\n        /* \"#utility.yul\":5448:5467   */\n      swap1\n      pop\n        /* \"#utility.yul\":5107:5473   */\n      swap2\n      swap1\n      pop\n      jump\t// out\n        /* \"#utility.yul\":5479:5845   */\n    tag_210:\n        /* \"#utility.yul\":5621:5624   */\n      0x00\n        /* \"#utility.yul\":5642:5709   */\n      tag_212\n        /* \"#utility.yul\":5706:5708   */\n      0x0f\n        /* \"#utility.yul\":5701:5704   */\n      dup4\n        /* \"#utility.yul\":5642:5709   */\n      tag_172\n      jump\t// in\n    tag_212:\n        /* \"#utility.yul\":5635:5709   */\n      swap2\n      pop\n        /* \"#utility.yul\":5718:5811   */\n      tag_213\n        /* \"#utility.yul\":5807:5810   */\n      dup3\n        /* \"#utility.yul\":5718:5811   */\n      tag_214\n      jump\t// in\n    tag_213:\n        /* \"#utility.yul\":5836:5838   */\n      0x20\n        /* \"#utility.yul\":5831:5834   */\n      dup3\n        /* \"#utility.yul\":5827:5839   */\n      add\n        /* \"#utility.yul\":5820:5839   */\n      swap1\n      pop\n        /* \"#utility.yul\":5479:5845   */\n      swap2\n      swap1\n      pop\n      jump\t// out\n        /* \"#utility.yul\":5851:6216   */\n    tag_215:\n        /* \"#utility.yul\":5993:5996   */\n      0x00\n        /* \"#utility.yul\":6014:6080   */\n      tag_217\n        /* \"#utility.yul\":6078:6079   */\n      0x06\n        /* \"#utility.yul\":6073:6076   */\n      dup4\n        /* \"#utility.yul\":6014:6080   */\n      tag_172\n      jump\t// in\n    tag_217:\n        /* \"#utility.yul\":6007:6080   */\n      swap2\n      pop\n        /* \"#utility.yul\":6089:6182   */\n      tag_218\n        /* \"#utility.yul\":6178:6181   */\n      dup3\n        /* \"#utility.yul\":6089:6182   */\n      tag_219\n      jump\t// in\n    tag_218:\n        /* \"#utility.yul\":6207:6209   */\n      0x20\n        /* \"#utility.yul\":6202:6205   */\n      dup3\n        /* \"#utility.yul\":6198:6210   */\n      add\n        /* \"#utility.yul\":6191:6210   */\n      swap1\n      pop\n        /* \"#utility.yul\":5851:6216   */\n      swap2\n      swap1\n      pop\n      jump\t// out\n        /* \"#utility.yul\":6222:6588   */\n    tag_220:\n        /* \"#utility.yul\":6364:6367   */\n      0x00\n        /* \"#utility.yul\":6385:6452   */\n      tag_222\n        /* \"#utility.yul\":6449:6451   */\n      0x0a\n        /* \"#utility.yul\":6444:6447   */\n      dup4\n        /* \"#utility.yul\":6385:6452   */\n      tag_172\n      jump\t// in\n    tag_222:\n        /* \"#utility.yul\":6378:6452   */\n      swap2\n      pop\n        /* \"#utility.yul\":6461:6554   */\n      tag_223\n        /* \"#utility.yul\":6550:6553   */\n      dup3\n        /* \"#utility.yul\":6461:6554   */\n      tag_224\n      jump\t// in\n    tag_223:\n        /* \"#utility.yul\":6579:6581   */\n      0x20\n        /* \"#utility.yul\":6574:6577   */\n      dup3\n        /* \"#utility.yul\":6570:6582   */\n      add\n        /* \"#utility.yul\":6563:6582   */\n      swap1\n      pop\n        /* \"#utility.yul\":6222:6588   */\n      swap2\n      swap1\n      pop\n      jump\t// out\n        /* \"#utility.yul\":6594:6959   */\n    tag_225:\n        /* \"#utility.yul\":6736:6739   */\n      0x00\n        /* \"#utility.yul\":6757:6823   */\n      tag_227\n        /* \"#utility.yul\":6821:6822   */\n      0x05\n        /* \"#utility.yul\":6816:6819   */\n      dup4\n        /* \"#utility.yul\":6757:6823   */\n      tag_172\n      jump\t// in\n    tag_227:\n        /* \"#utility.yul\":6750:6823   */\n      swap2\n      pop\n        /* \"#utility.yul\":6832:6925   */\n      tag_228\n        /* \"#utility.yul\":6921:6924   */\n      dup3\n        /* \"#utility.yul\":6832:6925   */\n      tag_229\n      jump\t// in\n    tag_228:\n        /* \"#utility.yul\":6950:6952   */\n      0x20\n        /* \"#utility.yul\":6945:6948   */\n      dup3\n        /* \"#utility.yul\":6941:6953   */\n      add\n        /* \"#utility.yul\":6934:6953   */\n      swap1\n      pop\n        /* \"#utility.yul\":6594:6959   */\n      swap2\n      swap1\n      pop\n      jump\t// out\n        /* \"#utility.yul\":6965:7083   */\n    tag_230:\n        /* \"#utility.yul\":7052:7076   */\n      tag_232\n        /* \"#utility.yul\":7070:7075   */\n      dup2\n        /* \"#utility.yul\":7052:7076   */\n      tag_233\n      jump\t// in\n    tag_232:\n        /* \"#utility.yul\":7047:7050   */\n      dup3\n        /* \"#utility.yul\":7040:7077   */\n      mstore\n        /* \"#utility.yul\":6965:7083   */\n      pop\n      pop\n      jump\t// out\n        /* \"#utility.yul\":7089:7531   */\n    tag_126:\n        /* \"#utility.yul\":7238:7242   */\n      0x00\n        /* \"#utility.yul\":7276:7278   */\n      0x60\n        /* \"#utility.yul\":7265:7274   */\n      dup3\n        /* \"#utility.yul\":7261:7279   */\n      add\n        /* \"#utility.yul\":7253:7279   */\n      swap1\n      pop\n        /* \"#utility.yul\":7289:7360   */\n      tag_235\n        /* \"#utility.yul\":7357:7358   */\n      0x00\n        /* \"#utility.yul\":7346:7355   */\n      dup4\n        /* \"#utility.yul\":7342:7359   */\n      add\n        /* \"#utility.yul\":7333:7339   */\n      dup7\n        /* \"#utility.yul\":7289:7360   */\n      tag_161\n      jump\t// in\n    tag_235:\n        /* \"#utility.yul\":7370:7442   */\n      tag_236\n        /* \"#utility.yul\":7438:7440   */\n      0x20\n        /* \"#utility.yul\":7427:7436   */\n      dup4\n        /* \"#utility.yul\":7423:7441   */\n      add\n        /* \"#utility.yul\":7414:7420   */\n      dup6\n        /* \"#utility.yul\":7370:7442   */\n      tag_161\n      jump\t// in\n    tag_236:\n        /* \"#utility.yul\":7452:7524   */\n      tag_237\n        /* \"#utility.yul\":7520:7522   */\n      0x40\n        /* \"#utility.yul\":7509:7518   */\n      dup4\n        /* \"#utility.yul\":7505:7523   */\n      add\n        /* \"#utility.yul\":7496:7502   */\n      dup5\n        /* \"#utility.yul\":7452:7524   */\n      tag_230\n      jump\t// in\n    tag_237:\n        /* \"#utility.yul\":7089:7531   */\n      swap5\n      swap4\n      pop\n      pop\n      pop\n      pop\n      jump\t// out\n        /* \"#utility.yul\":7537:7869   */\n    tag_59:\n        /* \"#utility.yul\":7658:7662   */\n      0x00\n        /* \"#utility.yul\":7696:7698   */\n      0x40\n        /* \"#utility.yul\":7685:7694   */\n      dup3\n        /* \"#utility.yul\":7681:7699   */\n      add\n        /* \"#utility.yul\":7673:7699   */\n      swap1\n      pop\n        /* \"#utility.yul\":7709:7780   */\n      tag_239\n        /* \"#utility.yul\":7777:7778   */\n      0x00\n        /* \"#utility.yul\":7766:7775   */\n      dup4\n        /* \"#utility.yul\":7762:7779   */\n      add\n        /* \"#utility.yul\":7753:7759   */\n      dup6\n        /* \"#utility.yul\":7709:7780   */\n      tag_161\n      jump\t// in\n    tag_239:\n        /* \"#utility.yul\":7790:7862   */\n      tag_240\n        /* \"#utility.yul\":7858:7860   */\n      0x20\n        /* \"#utility.yul\":7847:7856   */\n      dup4\n        /* \"#utility.yul\":7843:7861   */\n      add\n        /* \"#utility.yul\":7834:7840   */\n      dup5\n        /* \"#utility.yul\":7790:7862   */\n      tag_230\n      jump\t// in\n    tag_240:\n        /* \"#utility.yul\":7537:7869   */\n      swap4\n      swap3\n      pop\n      pop\n      pop\n      jump\t// out\n        /* \"#utility.yul\":7875:8123   */\n    tag_47:\n        /* \"#utility.yul\":7981:7985   */\n      0x00\n        /* \"#utility.yul\":8019:8021   */\n      0x20\n        /* \"#utility.yul\":8008:8017   */\n      dup3\n        /* \"#utility.yul\":8004:8022   */\n      add\n        /* \"#utility.yul\":7996:8022   */\n      swap1\n      pop\n        /* \"#utility.yul\":8032:8116   */\n      tag_242\n        /* \"#utility.yul\":8113:8114   */\n      0x00\n        /* \"#utility.yul\":8102:8111   */\n      dup4\n        /* \"#utility.yul\":8098:8115   */\n      add\n        /* \"#utility.yul\":8089:8095   */\n      dup5\n        /* \"#utility.yul\":8032:8116   */\n      tag_165\n      jump\t// in\n    tag_242:\n        /* \"#utility.yul\":7875:8123   */\n      swap3\n      swap2\n      pop\n      pop\n      jump\t// out\n        /* \"#utility.yul\":8129:8548   */\n    tag_73:\n        /* \"#utility.yul\":8295:8299   */\n      0x00\n        /* \"#utility.yul\":8333:8335   */\n      0x20\n        /* \"#utility.yul\":8322:8331   */\n      dup3\n        /* \"#utility.yul\":8318:8336   */\n      add\n        /* \"#utility.yul\":8310:8336   */\n      swap1\n      pop\n        /* \"#utility.yul\":8382:8391   */\n      dup2\n        /* \"#utility.yul\":8376:8380   */\n      dup2\n        /* \"#utility.yul\":8372:8392   */\n      sub\n        /* \"#utility.yul\":8368:8369   */\n      0x00\n        /* \"#utility.yul\":8357:8366   */\n      dup4\n        /* \"#utility.yul\":8353:8370   */\n      add\n        /* \"#utility.yul\":8346:8393   */\n      mstore\n        /* \"#utility.yul\":8410:8541   */\n      tag_244\n        /* \"#utility.yul\":8536:8540   */\n      dup2\n        /* \"#utility.yul\":8410:8541   */\n      tag_169\n      jump\t// in\n    tag_244:\n        /* \"#utility.yul\":8402:8541   */\n      swap1\n      pop\n        /* \"#utility.yul\":8129:8548   */\n      swap2\n      swap1\n      pop\n      jump\t// out\n        /* \"#utility.yul\":8554:8973   */\n    tag_68:\n        /* \"#utility.yul\":8720:8724   */\n      0x00\n        /* \"#utility.yul\":8758:8760   */\n      0x20\n        /* \"#utility.yul\":8747:8756   */\n      dup3\n        /* \"#utility.yul\":8743:8761   */\n      add\n        /* \"#utility.yul\":8735:8761   */\n      swap1\n      pop\n        /* \"#utility.yul\":8807:8816   */\n      dup2\n        /* \"#utility.yul\":8801:8805   */\n      dup2\n        /* \"#utility.yul\":8797:8817   */\n      sub\n        /* \"#utility.yul\":8793:8794   */\n      0x00\n        /* \"#utility.yul\":8782:8791   */\n      dup4\n        /* \"#utility.yul\":8778:8795   */\n      add\n        /* \"#utility.yul\":8771:8818   */\n      mstore\n        /* \"#utility.yul\":8835:8966   */\n      tag_246\n        /* \"#utility.yul\":8961:8965   */\n      dup2\n        /* \"#utility.yul\":8835:8966   */\n      tag_175\n      jump\t// in\n    tag_246:\n        /* \"#utility.yul\":8827:8966   */\n      swap1\n      pop\n        /* \"#utility.yul\":8554:8973   */\n      swap2\n      swap1\n      pop\n      jump\t// out\n        /* \"#utility.yul\":8979:9398   */\n    tag_76:\n        /* \"#utility.yul\":9145:9149   */\n      0x00\n        /* \"#utility.yul\":9183:9185   */\n      0x20\n        /* \"#utility.yul\":9172:9181   */\n      dup3\n        /* \"#utility.yul\":9168:9186   */\n      add\n        /* \"#utility.yul\":9160:9186   */\n      swap1\n      pop\n        /* \"#utility.yul\":9232:9241   */\n      dup2\n        /* \"#utility.yul\":9226:9230   */\n      dup2\n        /* \"#utility.yul\":9222:9242   */\n      sub\n        /* \"#utility.yul\":9218:9219   */\n      0x00\n        /* \"#utility.yul\":9207:9216   */\n      dup4\n        /* \"#utility.yul\":9203:9220   */\n      add\n        /* \"#utility.yul\":9196:9243   */\n      mstore\n        /* \"#utility.yul\":9260:9391   */\n      tag_248\n        /* \"#utility.yul\":9386:9390   */\n      dup2\n        /* \"#utility.yul\":9260:9391   */\n      tag_180\n      jump\t// in\n    tag_248:\n        /* \"#utility.yul\":9252:9391   */\n      swap1\n      pop\n        /* \"#utility.yul\":8979:9398   */\n      swap2\n      swap1\n      pop\n      jump\t// out\n        /* \"#utility.yul\":9404:9823   */\n    tag_112:\n        /* \"#utility.yul\":9570:9574   */\n      0x00\n        /* \"#utility.yul\":9608:9610   */\n      0x20\n        /* \"#utility.yul\":9597:9606   */\n      dup3\n        /* \"#utility.yul\":9593:9611   */\n      add\n        /* \"#utility.yul\":9585:9611   */\n      swap1\n      pop\n        /* \"#utility.yul\":9657:9666   */\n      dup2\n        /* \"#utility.yul\":9651:9655   */\n      dup2\n        /* \"#utility.yul\":9647:9667   */\n      sub\n        /* \"#utility.yul\":9643:9644   */\n      0x00\n        /* \"#utility.yul\":9632:9641   */\n      dup4\n        /* \"#utility.yul\":9628:9645   */\n      add\n        /* \"#utility.yul\":9621:9668   */\n      mstore\n        /* \"#utility.yul\":9685:9816   */\n      tag_250\n        /* \"#utility.yul\":9811:9815   */\n      dup2\n        /* \"#utility.yul\":9685:9816   */\n      tag_185\n      jump\t// in\n    tag_250:\n        /* \"#utility.yul\":9677:9816   */\n      swap1\n      pop\n        /* \"#utility.yul\":9404:9823   */\n      swap2\n      swap1\n      pop\n      jump\t// out\n        /* \"#utility.yul\":9829:10248   */\n    tag_87:\n        /* \"#utility.yul\":9995:9999   */\n      0x00\n        /* \"#utility.yul\":10033:10035   */\n      0x20\n        /* \"#utility.yul\":10022:10031   */\n      dup3\n        /* \"#utility.yul\":10018:10036   */\n      add\n        /* \"#utility.yul\":10010:10036   */\n      swap1\n      pop\n        /* \"#utility.yul\":10082:10091   */\n      dup2\n        /* \"#utility.yul\":10076:10080   */\n      dup2\n        /* \"#utility.yul\":10072:10092   */\n      sub\n        /* \"#utility.yul\":10068:10069   */\n      0x00\n        /* \"#utility.yul\":10057:10066   */\n      dup4\n        /* \"#utility.yul\":10053:10070   */\n      add\n        /* \"#utility.yul\":10046:10093   */\n      mstore\n        /* \"#utility.yul\":10110:10241   */\n      tag_252\n        /* \"#utility.yul\":10236:10240   */\n      dup2\n        /* \"#utility.yul\":10110:10241   */\n      tag_190\n      jump\t// in\n    tag_252:\n        /* \"#utility.yul\":10102:10241   */\n      swap1\n      pop\n        /* \"#utility.yul\":9829:10248   */\n      swap2\n      swap1\n      pop\n      jump\t// out\n        /* \"#utility.yul\":10254:10673   */\n    tag_119:\n        /* \"#utility.yul\":10420:10424   */\n      0x00\n        /* \"#utility.yul\":10458:10460   */\n      0x20\n        /* \"#utility.yul\":10447:10456   */\n      dup3\n        /* \"#utility.yul\":10443:10461   */\n      add\n        /* \"#utility.yul\":10435:10461   */\n      swap1\n      pop\n        /* \"#utility.yul\":10507:10516   */\n      dup2\n        /* \"#utility.yul\":10501:10505   */\n      dup2\n        /* \"#utility.yul\":10497:10517   */\n      sub\n        /* \"#utility.yul\":10493:10494   */\n      0x00\n        /* \"#utility.yul\":10482:10491   */\n      dup4\n        /* \"#utility.yul\":10478:10495   */\n      add\n        /* \"#utility.yul\":10471:10518   */\n      mstore\n        /* \"#utility.yul\":10535:10666   */\n      tag_254\n        /* \"#utility.yul\":10661:10665   */\n      dup2\n        /* \"#utility.yul\":10535:10666   */\n      tag_195\n      jump\t// in\n    tag_254:\n        /* \"#utility.yul\":10527:10666   */\n      swap1\n      pop\n        /* \"#utility.yul\":10254:10673   */\n      swap2\n      swap1\n      pop\n      jump\t// out\n        /* \"#utility.yul\":10679:11098   */\n    tag_108:\n        /* \"#utility.yul\":10845:10849   */\n      0x00\n        /* \"#utility.yul\":10883:10885   */\n      0x20\n        /* \"#utility.yul\":10872:10881   */\n      dup3\n        /* \"#utility.yul\":10868:10886   */\n      add\n        /* \"#utility.yul\":10860:10886   */\n      swap1\n      pop\n        /* \"#utility.yul\":10932:10941   */\n      dup2\n        /* \"#utility.yul\":10926:10930   */\n      dup2\n        /* \"#utility.yul\":10922:10942   */\n      sub\n        /* \"#utility.yul\":10918:10919   */\n      0x00\n        /* \"#utility.yul\":10907:10916   */\n      dup4\n        /* \"#utility.yul\":10903:10920   */\n      add\n        /* \"#utility.yul\":10896:10943   */\n      mstore\n        /* \"#utility.yul\":10960:11091   */\n      tag_256\n        /* \"#utility.yul\":11086:11090   */\n      dup2\n        /* \"#utility.yul\":10960:11091   */\n      tag_200\n      jump\t// in\n    tag_256:\n        /* \"#utility.yul\":10952:11091   */\n      swap1\n      pop\n        /* \"#utility.yul\":10679:11098   */\n      swap2\n      swap1\n      pop\n      jump\t// out\n        /* \"#utility.yul\":11104:11523   */\n    tag_57:\n        /* \"#utility.yul\":11270:11274   */\n      0x00\n        /* \"#utility.yul\":11308:11310   */\n      0x20\n        /* \"#utility.yul\":11297:11306   */\n      dup3\n        /* \"#utility.yul\":11293:11311   */\n      add\n        /* \"#utility.yul\":11285:11311   */\n      swap1\n      pop\n        /* \"#utility.yul\":11357:11366   */\n      dup2\n        /* \"#utility.yul\":11351:11355   */\n      dup2\n        /* \"#utility.yul\":11347:11367   */\n      sub\n        /* \"#utility.yul\":11343:11344   */\n      0x00\n        /* \"#utility.yul\":11332:11341   */\n      dup4\n        /* \"#utility.yul\":11328:11345   */\n      add\n        /* \"#utility.yul\":11321:11368   */\n      mstore\n        /* \"#utility.yul\":11385:11516   */\n      tag_258\n        /* \"#utility.yul\":11511:11515   */\n      dup2\n        /* \"#utility.yul\":11385:11516   */\n      tag_205\n      jump\t// in\n    tag_258:\n        /* \"#utility.yul\":11377:11516   */\n      swap1\n      pop\n        /* \"#utility.yul\":11104:11523   */\n      swap2\n      swap1\n      pop\n      jump\t// out\n        /* \"#utility.yul\":11529:11948   */\n    tag_103:\n        /* \"#utility.yul\":11695:11699   */\n      0x00\n        /* \"#utility.yul\":11733:11735   */\n      0x20\n        /* \"#utility.yul\":11722:11731   */\n      dup3\n        /* \"#utility.yul\":11718:11736   */\n      add\n        /* \"#utility.yul\":11710:11736   */\n      swap1\n      pop\n        /* \"#utility.yul\":11782:11791   */\n      dup2\n        /* \"#utility.yul\":11776:11780   */\n      dup2\n        /* \"#utility.yul\":11772:11792   */\n      sub\n        /* \"#utility.yul\":11768:11769   */\n      0x00\n        /* \"#utility.yul\":11757:11766   */\n      dup4\n        /* \"#utility.yul\":11753:11770   */\n      add\n        /* \"#utility.yul\":11746:11793   */\n      mstore\n        /* \"#utility.yul\":11810:11941   */\n      tag_260\n        /* \"#utility.yul\":11936:11940   */\n      dup2\n        /* \"#utility.yul\":11810:11941   */\n      tag_210\n      jump\t// in\n    tag_260:\n        /* \"#utility.yul\":11802:11941   */\n      swap1\n      pop\n        /* \"#utility.yul\":11529:11948   */\n      swap2\n      swap1\n      pop\n      jump\t// out\n        /* \"#utility.yul\":11954:12373   */\n    tag_122:\n        /* \"#utility.yul\":12120:12124   */\n      0x00\n        /* \"#utility.yul\":12158:12160   */\n      0x20\n        /* \"#utility.yul\":12147:12156   */\n      dup3\n        /* \"#utility.yul\":12143:12161   */\n      add\n        /* \"#utility.yul\":12135:12161   */\n      swap1\n      pop\n        /* \"#utility.yul\":12207:12216   */\n      dup2\n        /* \"#utility.yul\":12201:12205   */\n      dup2\n        /* \"#utility.yul\":12197:12217   */\n      sub\n        /* \"#utility.yul\":12193:12194   */\n      0x00\n        /* \"#utility.yul\":12182:12191   */\n      dup4\n        /* \"#utility.yul\":12178:12195   */\n      add\n        /* \"#utility.yul\":12171:12218   */\n      mstore\n        /* \"#utility.yul\":12235:12366   */\n      tag_262\n        /* \"#utility.yul\":12361:12365   */\n      dup2\n        /* \"#utility.yul\":12235:12366   */\n      tag_215\n      jump\t// in\n    tag_262:\n        /* \"#utility.yul\":12227:12366   */\n      swap1\n      pop\n        /* \"#utility.yul\":11954:12373   */\n      swap2\n      swap1\n      pop\n      jump\t// out\n        /* \"#utility.yul\":12379:12798   */\n    tag_54:\n        /* \"#utility.yul\":12545:12549   */\n      0x00\n        /* \"#utility.yul\":12583:12585   */\n      0x20\n        /* \"#utility.yul\":12572:12581   */\n      dup3\n        /* \"#utility.yul\":12568:12586   */\n      add\n        /* \"#utility.yul\":12560:12586   */\n      swap1\n      pop\n        /* \"#utility.yul\":12632:12641   */\n      dup2\n        /* \"#utility.yul\":12626:12630   */\n      dup2\n        /* \"#utility.yul\":12622:12642   */\n      sub\n        /* \"#utility.yul\":12618:12619   */\n      0x00\n        /* \"#utility.yul\":12607:12616   */\n      dup4\n        /* \"#utility.yul\":12603:12620   */\n      add\n        /* \"#utility.yul\":12596:12643   */\n      mstore\n        /* \"#utility.yul\":12660:12791   */\n      tag_264\n        /* \"#utility.yul\":12786:12790   */\n      dup2\n        /* \"#utility.yul\":12660:12791   */\n      tag_220\n      jump\t// in\n    tag_264:\n        /* \"#utility.yul\":12652:12791   */\n      swap1\n      pop\n        /* \"#utility.yul\":12379:12798   */\n      swap2\n      swap1\n      pop\n      jump\t// out\n        /* \"#utility.yul\":12804:13223   */\n    tag_91:\n        /* \"#utility.yul\":12970:12974   */\n      0x00\n        /* \"#utility.yul\":13008:13010   */\n      0x20\n        /* \"#utility.yul\":12997:13006   */\n      dup3\n        /* \"#utility.yul\":12993:13011   */\n      add\n        /* \"#utility.yul\":12985:13011   */\n      swap1\n      pop\n        /* \"#utility.yul\":13057:13066   */\n      dup2\n        /* \"#utility.yul\":13051:13055   */\n      dup2\n        /* \"#utility.yul\":13047:13067   */\n      sub\n        /* \"#utility.yul\":13043:13044   */\n      0x00\n        /* \"#utility.yul\":13032:13041   */\n      dup4\n        /* \"#utility.yul\":13028:13045   */\n      add\n        /* \"#utility.yul\":13021:13068   */\n      mstore\n        /* \"#utility.yul\":13085:13216   */\n      tag_266\n        /* \"#utility.yul\":13211:13215   */\n      dup2\n        /* \"#utility.yul\":13085:13216   */\n      tag_225\n      jump\t// in\n    tag_266:\n        /* \"#utility.yul\":13077:13216   */\n      swap1\n      pop\n        /* \"#utility.yul\":12804:13223   */\n      swap2\n      swap1\n      pop\n      jump\t// out\n        /* \"#utility.yul\":13229:13451   */\n    tag_17:\n        /* \"#utility.yul\":13322:13326   */\n      0x00\n        /* \"#utility.yul\":13360:13362   */\n      0x20\n        /* \"#utility.yul\":13349:13358   */\n      dup3\n        /* \"#utility.yul\":13345:13363   */\n      add\n        /* \"#utility.yul\":13337:13363   */\n      swap1\n      pop\n        /* \"#utility.yul\":13373:13444   */\n      tag_268\n        /* \"#utility.yul\":13441:13442   */\n      0x00\n        /* \"#utility.yul\":13430:13439   */\n      dup4\n        /* \"#utility.yul\":13426:13443   */\n      add\n        /* \"#utility.yul\":13417:13423   */\n      dup5\n        /* \"#utility.yul\":13373:13444   */\n      tag_230\n      jump\t// in\n    tag_268:\n        /* \"#utility.yul\":13229:13451   */\n      swap3\n      swap2\n      pop\n      pop\n      jump\t// out\n        /* \"#utility.yul\":13457:13899   */\n    tag_64:\n        /* \"#utility.yul\":13606:13610   */\n      0x00\n        /* \"#utility.yul\":13644:13646   */\n      0x60\n        /* \"#utility.yul\":13633:13642   */\n      dup3\n        /* \"#utility.yul\":13629:13647   */\n      add\n        /* \"#utility.yul\":13621:13647   */\n      swap1\n      pop\n        /* \"#utility.yul\":13657:13728   */\n      tag_270\n        /* \"#utility.yul\":13725:13726   */\n      0x00\n        /* \"#utility.yul\":13714:13723   */\n      dup4\n        /* \"#utility.yul\":13710:13727   */\n      add\n        /* \"#utility.yul\":13701:13707   */\n      dup7\n        /* \"#utility.yul\":13657:13728   */\n      tag_230\n      jump\t// in\n    tag_270:\n        /* \"#utility.yul\":13738:13810   */\n      tag_271\n        /* \"#utility.yul\":13806:13808   */\n      0x20\n        /* \"#utility.yul\":13795:13804   */\n      dup4\n        /* \"#utility.yul\":13791:13809   */\n      add\n        /* \"#utility.yul\":13782:13788   */\n      dup6\n        /* \"#utility.yul\":13738:13810   */\n      tag_161\n      jump\t// in\n    tag_271:\n        /* \"#utility.yul\":13820:13892   */\n      tag_272\n        /* \"#utility.yul\":13888:13890   */\n      0x40\n        /* \"#utility.yul\":13877:13886   */\n      dup4\n        /* \"#utility.yul\":13873:13891   */\n      add\n        /* \"#utility.yul\":13864:13870   */\n      dup5\n        /* \"#utility.yul\":13820:13892   */\n      tag_230\n      jump\t// in\n    tag_272:\n        /* \"#utility.yul\":13457:13899   */\n      swap5\n      swap4\n      pop\n      pop\n      pop\n      pop\n      jump\t// out\n        /* \"#utility.yul\":13905:14569   */\n    tag_114:\n        /* \"#utility.yul\":14110:14114   */\n      0x00\n        /* \"#utility.yul\":14148:14151   */\n      0xa0\n        /* \"#utility.yul\":14137:14146   */\n      dup3\n        /* \"#utility.yul\":14133:14152   */\n      add\n        /* \"#utility.yul\":14125:14152   */\n      swap1\n      pop\n        /* \"#utility.yul\":14162:14233   */\n      tag_274\n        /* \"#utility.yul\":14230:14231   */\n      0x00\n        /* \"#utility.yul\":14219:14228   */\n      dup4\n        /* \"#utility.yul\":14215:14232   */\n      add\n        /* \"#utility.yul\":14206:14212   */\n      dup9\n        /* \"#utility.yul\":14162:14233   */\n      tag_230\n      jump\t// in\n    tag_274:\n        /* \"#utility.yul\":14243:14315   */\n      tag_275\n        /* \"#utility.yul\":14311:14313   */\n      0x20\n        /* \"#utility.yul\":14300:14309   */\n      dup4\n        /* \"#utility.yul\":14296:14314   */\n      add\n        /* \"#utility.yul\":14287:14293   */\n      dup8\n        /* \"#utility.yul\":14243:14315   */\n      tag_161\n      jump\t// in\n    tag_275:\n        /* \"#utility.yul\":14325:14397   */\n      tag_276\n        /* \"#utility.yul\":14393:14395   */\n      0x40\n        /* \"#utility.yul\":14382:14391   */\n      dup4\n        /* \"#utility.yul\":14378:14396   */\n      add\n        /* \"#utility.yul\":14369:14375   */\n      dup7\n        /* \"#utility.yul\":14325:14397   */\n      tag_230\n      jump\t// in\n    tag_276:\n        /* \"#utility.yul\":14407:14479   */\n      tag_277\n        /* \"#utility.yul\":14475:14477   */\n      0x60\n        /* \"#utility.yul\":14464:14473   */\n      dup4\n        /* \"#utility.yul\":14460:14478   */\n      add\n        /* \"#utility.yul\":14451:14457   */\n      dup6\n        /* \"#utility.yul\":14407:14479   */\n      tag_230\n      jump\t// in\n    tag_277:\n        /* \"#utility.yul\":14489:14562   */\n      tag_278\n        /* \"#utility.yul\":14557:14560   */\n      0x80\n        /* \"#utility.yul\":14546:14555   */\n      dup4\n        /* \"#utility.yul\":14542:14561   */\n      add\n        /* \"#utility.yul\":14533:14539   */\n      dup5\n        /* \"#utility.yul\":14489:14562   */\n      tag_230\n      jump\t// in\n    tag_278:\n        /* \"#utility.yul\":13905:14569   */\n      swap7\n      swap6\n      pop\n      pop\n      pop\n      pop\n      pop\n      pop\n      jump\t// out\n        /* \"#utility.yul\":14656:14825   */\n    tag_172:\n        /* \"#utility.yul\":14740:14751   */\n      0x00\n        /* \"#utility.yul\":14774:14780   */\n      dup3\n        /* \"#utility.yul\":14769:14772   */\n      dup3\n        /* \"#utility.yul\":14762:14781   */\n      mstore\n        /* \"#utility.yul\":14814:14818   */\n      0x20\n        /* \"#utility.yul\":14809:14812   */\n      dup3\n        /* \"#utility.yul\":14805:14819   */\n      add\n        /* \"#utility.yul\":14790:14819   */\n      swap1\n      pop\n        /* \"#utility.yul\":14656:14825   */\n      swap3\n      swap2\n      pop\n      pop\n      jump\t// out\n        /* \"#utility.yul\":14831:15136   */\n    tag_105:\n        /* \"#utility.yul\":14871:14874   */\n      0x00\n        /* \"#utility.yul\":14890:14910   */\n      tag_283\n        /* \"#utility.yul\":14908:14909   */\n      dup3\n        /* \"#utility.yul\":14890:14910   */\n      tag_233\n      jump\t// in\n    tag_283:\n        /* \"#utility.yul\":14885:14910   */\n      swap2\n      pop\n        /* \"#utility.yul\":14924:14944   */\n      tag_284\n        /* \"#utility.yul\":14942:14943   */\n      dup4\n        /* \"#utility.yul\":14924:14944   */\n      tag_233\n      jump\t// in\n    tag_284:\n        /* \"#utility.yul\":14919:14944   */\n      swap3\n      pop\n        /* \"#utility.yul\":15078:15079   */\n      dup3\n        /* \"#utility.yul\":15010:15076   */\n      0xffffffffffffffffffffffffffffffffffffffffffffffffffffffffffffffff\n        /* \"#utility.yul\":15006:15080   */\n      sub\n        /* \"#utility.yul\":15003:15004   */\n      dup3\n        /* \"#utility.yul\":15000:15081   */\n      gt\n        /* \"#utility.yul\":14997:15104   */\n      iszero\n      tag_285\n      jumpi\n        /* \"#utility.yul\":15084:15102   */\n      tag_286\n      tag_287\n      jump\t// in\n    tag_286:\n        /* \"#utility.yul\":14997:15104   */\n    tag_285:\n        /* \"#utility.yul\":15128:15129   */\n      dup3\n        /* \"#utility.yul\":15125:15126   */\n      dup3\n        /* \"#utility.yul\":15121:15130   */\n      add\n        /* \"#utility.yul\":15114:15130   */\n      swap1\n      pop\n        /* \"#utility.yul\":14831:15136   */\n      swap3\n      swap2\n      pop\n      pop\n      jump\t// out\n        /* \"#utility.yul\":15142:15333   */\n    tag_93:\n        /* \"#utility.yul\":15182:15186   */\n      0x00\n        /* \"#utility.yul\":15202:15222   */\n      tag_289\n        /* \"#utility.yul\":15220:15221   */\n      dup3\n        /* \"#utility.yul\":15202:15222   */\n      tag_233\n      jump\t// in\n    tag_289:\n        /* \"#utility.yul\":15197:15222   */\n      swap2\n      pop\n        /* \"#utility.yul\":15236:15256   */\n      tag_290\n        /* \"#utility.yul\":15254:15255   */\n      dup4\n        /* \"#utility.yul\":15236:15256   */\n      tag_233\n      jump\t// in\n    tag_290:\n        /* \"#utility.yul\":15231:15256   */\n      swap3\n      pop\n        /* \"#utility.yul\":15275:15276   */\n      dup3\n        /* \"#utility.yul\":15272:15273   */\n      dup3\n        /* \"#utility.yul\":15269:15277   */\n      lt\n        /* \"#utility.yul\":15266:15300   */\n      iszero\n      tag_291\n      jumpi\n        /* \"#utility.yul\":15280:15298   */\n      tag_292\n      tag_287\n      jump\t// in\n    tag_292:\n        /* \"#utility.yul\":15266:15300   */\n    tag_291:\n        /* \"#utility.yul\":15325:15326   */\n      dup3\n        /* \"#utility.yul\":15322:15323   */\n      dup3\n        /* \"#utility.yul\":15318:15327   */\n      sub\n        /* \"#utility.yul\":15310:15327   */\n      swap1\n      pop\n        /* \"#utility.yul\":15142:15333   */\n      swap3\n      swap2\n      pop\n      pop\n      jump\t// out\n        /* \"#utility.yul\":15339:15435   */\n    tag_164:\n        /* \"#utility.yul\":15376:15383   */\n      0x00\n        /* \"#utility.yul\":15405:15429   */\n      tag_294\n        /* \"#utility.yul\":15423:15428   */\n      dup3\n        /* \"#utility.yul\":15405:15429   */\n      tag_295\n      jump\t// in\n    tag_294:\n        /* \"#utility.yul\":15394:15429   */\n      swap1\n      pop\n        /* \"#utility.yul\":15339:15435   */\n      swap2\n      swap1\n      pop\n      jump\t// out\n        /* \"#utility.yul\":15441:15567   */\n    tag_295:\n        /* \"#utility.yul\":15478:15485   */\n      0x00\n        /* \"#utility.yul\":15518:15560   */\n      0xffffffffffffffffffffffffffffffffffffffff\n        /* \"#utility.yul\":15511:15516   */\n      dup3\n        /* \"#utility.yul\":15507:15561   */\n      and\n        /* \"#utility.yul\":15496:15561   */\n      swap1\n      pop\n        /* \"#utility.yul\":15441:15567   */\n      swap2\n      swap1\n      pop\n      jump\t// out\n        /* \"#utility.yul\":15573:15650   */\n    tag_233:\n        /* \"#utility.yul\":15610:15617   */\n      0x00\n        /* \"#utility.yul\":15639:15644   */\n      dup2\n        /* \"#utility.yul\":15628:15644   */\n      swap1\n      pop\n        /* \"#utility.yul\":15573:15650   */\n      swap2\n      swap1\n      pop\n      jump\t// out\n        /* \"#utility.yul\":15656:15795   */\n    tag_168:\n        /* \"#utility.yul\":15719:15728   */\n      0x00\n        /* \"#utility.yul\":15752:15789   */\n      tag_299\n        /* \"#utility.yul\":15783:15788   */\n      dup3\n        /* \"#utility.yul\":15752:15789   */\n      tag_300\n      jump\t// in\n    tag_299:\n        /* \"#utility.yul\":15739:15789   */\n      swap1\n      pop\n        /* \"#utility.yul\":15656:15795   */\n      swap2\n      swap1\n      pop\n      jump\t// out\n        /* \"#utility.yul\":15801:15927   */\n    tag_300:\n        /* \"#utility.yul\":15851:15860   */\n      0x00\n        /* \"#utility.yul\":15884:15921   */\n      tag_302\n        /* \"#utility.yul\":15915:15920   */\n      dup3\n        /* \"#utility.yul\":15884:15921   */\n      tag_303\n      jump\t// in\n    tag_302:\n        /* \"#utility.yul\":15871:15921   */\n      swap1\n      pop\n        /* \"#utility.yul\":15801:15927   */\n      swap2\n      swap1\n      pop\n      jump\t// out\n        /* \"#utility.yul\":15933:16046   */\n    tag_303:\n        /* \"#utility.yul\":15983:15992   */\n      0x00\n        /* \"#utility.yul\":16016:16040   */\n      tag_305\n        /* \"#utility.yul\":16034:16039   */\n      dup3\n        /* \"#utility.yul\":16016:16040   */\n      tag_295\n      jump\t// in\n    tag_305:\n        /* \"#utility.yul\":16003:16040   */\n      swap1\n      pop\n        /* \"#utility.yul\":15933:16046   */\n      swap2\n      swap1\n      pop\n      jump\t// out\n        /* \"#utility.yul\":16052:16232   */\n    tag_287:\n        /* \"#utility.yul\":16100:16177   */\n      0x4e487b7100000000000000000000000000000000000000000000000000000000\n        /* \"#utility.yul\":16097:16098   */\n      0x00\n        /* \"#utility.yul\":16090:16178   */\n      mstore\n        /* \"#utility.yul\":16197:16201   */\n      0x11\n        /* \"#utility.yul\":16194:16195   */\n      0x04\n        /* \"#utility.yul\":16187:16202   */\n      mstore\n        /* \"#utility.yul\":16221:16225   */\n      0x24\n        /* \"#utility.yul\":16218:16219   */\n      0x00\n        /* \"#utility.yul\":16211:16226   */\n      revert\n        /* \"#utility.yul\":16361:16478   */\n    tag_143:\n        /* \"#utility.yul\":16470:16471   */\n      0x00\n        /* \"#utility.yul\":16467:16468   */\n      dup1\n        /* \"#utility.yul\":16460:16472   */\n      revert\n        /* \"#utility.yul\":16484:16650   */\n    tag_174:\n        /* \"#utility.yul\":16624:16642   */\n      0x706c656467656420746f6f206c6f772100000000000000000000000000000000\n        /* \"#utility.yul\":16620:16621   */\n      0x00\n        /* \"#utility.yul\":16612:16618   */\n      dup3\n        /* \"#utility.yul\":16608:16622   */\n      add\n        /* \"#utility.yul\":16601:16643   */\n      mstore\n        /* \"#utility.yul\":16484:16650   */\n      pop\n      jump\t// out\n        /* \"#utility.yul\":16656:16819   */\n    tag_179:\n        /* \"#utility.yul\":16796:16811   */\n      0x6e6f7420616e206f776e65722100000000000000000000000000000000000000\n        /* \"#utility.yul\":16792:16793   */\n      0x00\n        /* \"#utility.yul\":16784:16790   */\n      dup3\n        /* \"#utility.yul\":16780:16794   */\n      add\n        /* \"#utility.yul\":16773:16812   */\n      mstore\n        /* \"#utility.yul\":16656:16819   */\n      pop\n      jump\t// out\n        /* \"#utility.yul\":16825:16990   */\n    tag_184:\n        /* \"#utility.yul\":16965:16982   */\n      0x616c726561647920636c61696d65640000000000000000000000000000000000\n        /* \"#utility.yul\":16961:16962   */\n      0x00\n        /* \"#utility.yul\":16953:16959   */\n      dup3\n        /* \"#utility.yul\":16949:16963   */\n      add\n        /* \"#utility.yul\":16942:16983   */\n      mstore\n        /* \"#utility.yul\":16825:16990   */\n      pop\n      jump\t// out\n        /* \"#utility.yul\":16996:17155   */\n    tag_189:\n        /* \"#utility.yul\":17136:17147   */\n      0x746f6f206c6f6e67210000000000000000000000000000000000000000000000\n        /* \"#utility.yul\":17132:17133   */\n      0x00\n        /* \"#utility.yul\":17124:17130   */\n      dup3\n        /* \"#utility.yul\":17120:17134   */\n      add\n        /* \"#utility.yul\":17113:17148   */\n      mstore\n        /* \"#utility.yul\":16996:17155   */\n      pop\n      jump\t// out\n        /* \"#utility.yul\":17161:17325   */\n    tag_194:\n        /* \"#utility.yul\":17301:17317   */\n      0x5452594e4120464f4f4c204d453f000000000000000000000000000000000000\n        /* \"#utility.yul\":17297:17298   */\n      0x00\n        /* \"#utility.yul\":17289:17295   */\n      dup3\n        /* \"#utility.yul\":17285:17299   */\n      add\n        /* \"#utility.yul\":17278:17318   */\n      mstore\n        /* \"#utility.yul\":17161:17325   */\n      pop\n      jump\t// out\n        /* \"#utility.yul\":17331:17493   */\n    tag_199:\n        /* \"#utility.yul\":17471:17485   */\n      0x6e6f742053746172746564210000000000000000000000000000000000000000\n        /* \"#utility.yul\":17467:17468   */\n      0x00\n        /* \"#utility.yul\":17459:17465   */\n      dup3\n        /* \"#utility.yul\":17455:17469   */\n      add\n        /* \"#utility.yul\":17448:17486   */\n      mstore\n        /* \"#utility.yul\":17331:17493   */\n      pop\n      jump\t// out\n        /* \"#utility.yul\":17499:17662   */\n    tag_204:\n        /* \"#utility.yul\":17639:17654   */\n      0x696e636f727265637420656e6400000000000000000000000000000000000000\n        /* \"#utility.yul\":17635:17636   */\n      0x00\n        /* \"#utility.yul\":17627:17633   */\n      dup3\n        /* \"#utility.yul\":17623:17637   */\n      add\n        /* \"#utility.yul\":17616:17655   */\n      mstore\n        /* \"#utility.yul\":17499:17662   */\n      pop\n      jump\t// out\n        /* \"#utility.yul\":17668:17836   */\n    tag_209:\n        /* \"#utility.yul\":17808:17828   */\n      0x726561636865642074686520676f616c21210000000000000000000000000000\n        /* \"#utility.yul\":17804:17805   */\n      0x00\n        /* \"#utility.yul\":17796:17802   */\n      dup3\n        /* \"#utility.yul\":17792:17806   */\n      add\n        /* \"#utility.yul\":17785:17829   */\n      mstore\n        /* \"#utility.yul\":17668:17836   */\n      pop\n      jump\t// out\n        /* \"#utility.yul\":17842:18007   */\n    tag_214:\n        /* \"#utility.yul\":17982:17999   */\n      0x696e636f72726563742073746172740000000000000000000000000000000000\n        /* \"#utility.yul\":17978:17979   */\n      0x00\n        /* \"#utility.yul\":17970:17976   */\n      dup3\n        /* \"#utility.yul\":17966:17980   */\n      add\n        /* \"#utility.yul\":17959:18000   */\n      mstore\n        /* \"#utility.yul\":17842:18007   */\n      pop\n      jump\t// out\n        /* \"#utility.yul\":18013:18169   */\n    tag_219:\n        /* \"#utility.yul\":18153:18161   */\n      0x656e646564210000000000000000000000000000000000000000000000000000\n        /* \"#utility.yul\":18149:18150   */\n      0x00\n        /* \"#utility.yul\":18141:18147   */\n      dup3\n        /* \"#utility.yul\":18137:18151   */\n      add\n        /* \"#utility.yul\":18130:18162   */\n      mstore\n        /* \"#utility.yul\":18013:18169   */\n      pop\n      jump\t// out\n        /* \"#utility.yul\":18175:18335   */\n    tag_224:\n        /* \"#utility.yul\":18315:18327   */\n      0x6e6f7420656e6465642100000000000000000000000000000000000000000000\n        /* \"#utility.yul\":18311:18312   */\n      0x00\n        /* \"#utility.yul\":18303:18309   */\n      dup3\n        /* \"#utility.yul\":18299:18313   */\n      add\n        /* \"#utility.yul\":18292:18328   */\n      mstore\n        /* \"#utility.yul\":18175:18335   */\n      pop\n      jump\t// out\n        /* \"#utility.yul\":18341:18496   */\n    tag_229:\n        /* \"#utility.yul\":18481:18488   */\n      0x656e646564000000000000000000000000000000000000000000000000000000\n        /* \"#utility.yul\":18477:18478   */\n      0x00\n        /* \"#utility.yul\":18469:18475   */\n      dup3\n        /* \"#utility.yul\":18465:18479   */\n      add\n        /* \"#utility.yul\":18458:18489   */\n      mstore\n        /* \"#utility.yul\":18341:18496   */\n      pop\n      jump\t// out\n        /* \"#utility.yul\":18502:18624   */\n    tag_135:\n        /* \"#utility.yul\":18575:18599   */\n      tag_323\n        /* \"#utility.yul\":18593:18598   */\n      dup2\n        /* \"#utility.yul\":18575:18599   */\n      tag_164\n      jump\t// in\n    tag_323:\n        /* \"#utility.yul\":18568:18573   */\n      dup2\n        /* \"#utility.yul\":18565:18600   */\n      eq\n        /* \"#utility.yul\":18555:18618   */\n      tag_324\n      jumpi\n        /* \"#utility.yul\":18614:18615   */\n      0x00\n        /* \"#utility.yul\":18611:18612   */\n      dup1\n        /* \"#utility.yul\":18604:18616   */\n      revert\n        /* \"#utility.yul\":18555:18618   */\n    tag_324:\n        /* \"#utility.yul\":18502:18624   */\n      pop\n      jump\t// out\n        /* \"#utility.yul\":18630:18752   */\n    tag_139:\n        /* \"#utility.yul\":18703:18727   */\n      tag_326\n        /* \"#utility.yul\":18721:18726   */\n      dup2\n        /* \"#utility.yul\":18703:18727   */\n      tag_233\n      jump\t// in\n    tag_326:\n        /* \"#utility.yul\":18696:18701   */\n      dup2\n        /* \"#utility.yul\":18693:18728   */\n      eq\n        /* \"#utility.yul\":18683:18746   */\n      tag_327\n      jumpi\n        /* \"#utility.yul\":18742:18743   */\n      0x00\n        /* \"#utility.yul\":18739:18740   */\n      dup1\n        /* \"#utility.yul\":18732:18744   */\n      revert\n        /* \"#utility.yul\":18683:18746   */\n    tag_327:\n        /* \"#utility.yul\":18630:18752   */\n      pop\n      jump\t// out\n\n    auxdata: 0xa2646970667358221220885fa18e73e817184f394a0ea281b710c6e74efa11586e7d5df3d0e1768254e164736f6c63430008070033\n}\n",
				"bytecode": {
					"linkReferences": {},
					"object": "60a06040523480156200001157600080fd5b50604051620018e8380380620018e883398181016040528101906200003791906200008c565b8073ffffffffffffffffffffffffffffffffffffffff1660808173ffffffffffffffffffffffffffffffffffffffff1660601b815250505062000111565b6000815190506200008681620000f7565b92915050565b600060208284031215620000a557620000a4620000f2565b5b6000620000b58482850162000075565b91505092915050565b6000620000cb82620000d2565b9050919050565b600073ffffffffffffffffffffffffffffffffffffffff82169050919050565b600080fd5b6200010281620000be565b81146200010e57600080fd5b50565b60805160601c61179c6200014c6000396000818161032e015281816105a20152818161093201528181610c5a0152610da3015261179c6000f3fe608060405234801561001057600080fd5b506004361061009e5760003560e01c80638736c179116100665780638736c179146101315780638e97f5241461014d578063b1724b461461017d578063fc0c546a1461019b578063fde327be146101b95761009e565b80631c75cfb4146100a3578063278ecde1146100c1578063379607f5146100dd57806340e58ee5146100f9578063711853ab14610115575b600080fd5b6100ab6101d5565b6040516100b89190611366565b60405180910390f35b6100db60048036038101906100d69190610e9a565b6101db565b005b6100f760048036038101906100f29190610e9a565b6103f9565b005b610113600480360381019061010e9190610e9a565b61066c565b005b61012f600480360381019061012a9190610f07565b610852565b005b61014b60048036038101906101469190610f47565b6109fd565b005b61016760048036038101906101629190610ec7565b610c2c565b6040516101749190611366565b60405180910390f35b610185610c51565b6040516101929190611366565b60405180910390f35b6101a3610c58565b6040516101b091906111cb565b60405180910390f35b6101d360048036038101906101ce9190610f07565b610c7c565b005b60015481565b6000806000838152602001908152602001600020905080600401544211610237576040517f08c379a000000000000000000000000000000000000000000000000000000000815260040161022e90611326565b60405180910390fd5b8060010154816002015410610281576040517f08c379a0000000000000000000000000000000000000000000000000000000008152600401610278906112c6565b60405180910390fd5b60006002600084815260200190815260200160002060003373ffffffffffffffffffffffffffffffffffffffff1673ffffffffffffffffffffffffffffffffffffffff16815260200190815260200160002054905060006002600085815260200190815260200160002060003373ffffffffffffffffffffffffffffffffffffffff1673ffffffffffffffffffffffffffffffffffffffff168152602001908152602001600020819055507f000000000000000000000000000000000000000000000000000000000000000073ffffffffffffffffffffffffffffffffffffffff1663a9059cbb33836040518363ffffffff1660e01b81526004016103879291906111a2565b600060405180830381600087803b1580156103a157600080fd5b505af11580156103b5573d6000803e3d6000fd5b505050507f7ca5472b7ea78c2c0141c5a12ee6d170cf4ce8ed06be3d22c8252ddfc7a6a2c48333836040516103ec93929190611381565b60405180910390a1505050565b600080600083815260200190815260200160002090508060000160009054906101000a900473ffffffffffffffffffffffffffffffffffffffff1673ffffffffffffffffffffffffffffffffffffffff163373ffffffffffffffffffffffffffffffffffffffff16146104a1576040517f08c379a000000000000000000000000000000000000000000000000000000000815260040161049890611206565b60405180910390fd5b806004015442116104e7576040517f08c379a00000000000000000000000000000000000000000000000000000000081526004016104de90611326565b60405180910390fd5b806001015481600201541015610532576040517f08c379a0000000000000000000000000000000000000000000000000000000008152600401610529906111e6565b60405180910390fd5b8060050160009054906101000a900460ff16610583576040517f08c379a000000000000000000000000000000000000000000000000000000000815260040161057a90611226565b60405180910390fd5b60018160050160006101000a81548160ff0219169083151502179055507f000000000000000000000000000000000000000000000000000000000000000073ffffffffffffffffffffffffffffffffffffffff1663a9059cbb3383600201546040518363ffffffff1660e01b81526004016105ff9291906111a2565b600060405180830381600087803b15801561061957600080fd5b505af115801561062d573d6000803e3d6000fd5b505050507f7a355715549cfe7c1cba26304350343fbddc4b4f72d3ce3e7c27117dd20b5cb8826040516106609190611366565b60405180910390a15050565b60008060008381526020019081526020016000206040518060c00160405290816000820160009054906101000a900473ffffffffffffffffffffffffffffffffffffffff1673ffffffffffffffffffffffffffffffffffffffff1673ffffffffffffffffffffffffffffffffffffffff168152602001600182015481526020016002820154815260200160038201548152602001600482015481526020016005820160009054906101000a900460ff1615151515815250509050806000015173ffffffffffffffffffffffffffffffffffffffff163373ffffffffffffffffffffffffffffffffffffffff1614610798576040517f08c379a000000000000000000000000000000000000000000000000000000000815260040161078f90611206565b60405180910390fd5b806060015142106107de576040517f08c379a00000000000000000000000000000000000000000000000000000000081526004016107d590611266565b60405180910390fd5b600080838152602001908152602001600020600080820160006101000a81549073ffffffffffffffffffffffffffffffffffffffff021916905560018201600090556002820160009055600382016000905560048201600090556005820160006101000a81549060ff021916905550505050565b60008060008481526020019081526020016000209050806004015442106108ae576040517f08c379a00000000000000000000000000000000000000000000000000000000081526004016108a590611346565b60405180910390fd5b818160020160008282546108c29190611472565b92505081905550816002600085815260200190815260200160002060003373ffffffffffffffffffffffffffffffffffffffff1673ffffffffffffffffffffffffffffffffffffffff16815260200190815260200160002060008282546109299190611472565b925050819055507f000000000000000000000000000000000000000000000000000000000000000073ffffffffffffffffffffffffffffffffffffffff1663a9059cbb33846040518363ffffffff1660e01b815260040161098b9291906111a2565b600060405180830381600087803b1580156109a557600080fd5b505af11580156109b9573d6000803e3d6000fd5b505050507ffcd29b1632c6748a9a4bb9b4cd5c6486c3c84a8550dce2368f83fef3969d96858333846040516109f093929190611381565b60405180910390a1505050565b42821015610a40576040517f08c379a0000000000000000000000000000000000000000000000000000000008152600401610a37906112e6565b60405180910390fd5b600a82610a4d919061141c565b811015610a8f576040517f08c379a0000000000000000000000000000000000000000000000000000000008152600401610a86906112a6565b60405180910390fd5b6283d60082610a9e919061141c565b811115610ae0576040517f08c379a0000000000000000000000000000000000000000000000000000000008152600401610ad790611246565b60405180910390fd5b6040518060c001604052803373ffffffffffffffffffffffffffffffffffffffff1681526020018481526020016000815260200183815260200182815260200160001515815250600080600154815260200190815260200160002060008201518160000160006101000a81548173ffffffffffffffffffffffffffffffffffffffff021916908373ffffffffffffffffffffffffffffffffffffffff1602179055506020820151816001015560408201518160020155606082015181600301556080820151816004015560a08201518160050160006101000a81548160ff0219169083151502179055509050507fea7dc5be41326789a621aaa33d671281d0a54aa87610751def19f8544c2004c360015433858585604051610c069594939291906113b8565b60405180910390a16001806000828254610c20919061141c565b92505081905550505050565b6002602052816000526040600020602052806000526040600020600091509150505481565b6283d60081565b7f000000000000000000000000000000000000000000000000000000000000000081565b600080600084815260200190815260200160002090508060030154421015610cd9576040517f08c379a0000000000000000000000000000000000000000000000000000000008152600401610cd090611286565b60405180910390fd5b80600401544210610d1f576040517f08c379a0000000000000000000000000000000000000000000000000000000008152600401610d1690611306565b60405180910390fd5b81816002016000828254610d33919061141c565b92505081905550816002600085815260200190815260200160002060003373ffffffffffffffffffffffffffffffffffffffff1673ffffffffffffffffffffffffffffffffffffffff1681526020019081526020016000206000828254610d9a919061141c565b925050819055507f000000000000000000000000000000000000000000000000000000000000000073ffffffffffffffffffffffffffffffffffffffff166323b872dd3330856040518463ffffffff1660e01b8152600401610dfe9392919061116b565b600060405180830381600087803b158015610e1857600080fd5b505af1158015610e2c573d6000803e3d6000fd5b505050507f2757ac6a40883f4491cc56930ae964df9034e343e660d5179eb01e198336756b833384604051610e6393929190611381565b60405180910390a1505050565b600081359050610e7f81611738565b92915050565b600081359050610e948161174f565b92915050565b600060208284031215610eb057610eaf611547565b5b6000610ebe84828501610e85565b91505092915050565b60008060408385031215610ede57610edd611547565b5b6000610eec85828601610e85565b9250506020610efd85828601610e70565b9150509250929050565b60008060408385031215610f1e57610f1d611547565b5b6000610f2c85828601610e85565b9250506020610f3d85828601610e85565b9150509250929050565b600080600060608486031215610f6057610f5f611547565b5b6000610f6e86828701610e85565b9350506020610f7f86828701610e85565b9250506040610f9086828701610e85565b9150509250925092565b610fa3816114a6565b82525050565b610fb2816114e2565b82525050565b6000610fc560108361140b565b9150610fd08261154c565b602082019050919050565b6000610fe8600d8361140b565b9150610ff382611575565b602082019050919050565b600061100b600f8361140b565b91506110168261159e565b602082019050919050565b600061102e60098361140b565b9150611039826115c7565b602082019050919050565b6000611051600e8361140b565b915061105c826115f0565b602082019050919050565b6000611074600c8361140b565b915061107f82611619565b602082019050919050565b6000611097600d8361140b565b91506110a282611642565b602082019050919050565b60006110ba60128361140b565b91506110c58261166b565b602082019050919050565b60006110dd600f8361140b565b91506110e882611694565b602082019050919050565b600061110060068361140b565b915061110b826116bd565b602082019050919050565b6000611123600a8361140b565b915061112e826116e6565b602082019050919050565b600061114660058361140b565b91506111518261170f565b602082019050919050565b611165816114d8565b82525050565b60006060820190506111806000830186610f9a565b61118d6020830185610f9a565b61119a604083018461115c565b949350505050565b60006040820190506111b76000830185610f9a565b6111c4602083018461115c565b9392505050565b60006020820190506111e06000830184610fa9565b92915050565b600060208201905081810360008301526111ff81610fb8565b9050919050565b6000602082019050818103600083015261121f81610fdb565b9050919050565b6000602082019050818103600083015261123f81610ffe565b9050919050565b6000602082019050818103600083015261125f81611021565b9050919050565b6000602082019050818103600083015261127f81611044565b9050919050565b6000602082019050818103600083015261129f81611067565b9050919050565b600060208201905081810360008301526112bf8161108a565b9050919050565b600060208201905081810360008301526112df816110ad565b9050919050565b600060208201905081810360008301526112ff816110d0565b9050919050565b6000602082019050818103600083015261131f816110f3565b9050919050565b6000602082019050818103600083015261133f81611116565b9050919050565b6000602082019050818103600083015261135f81611139565b9050919050565b600060208201905061137b600083018461115c565b92915050565b6000606082019050611396600083018661115c565b6113a36020830185610f9a565b6113b0604083018461115c565b949350505050565b600060a0820190506113cd600083018861115c565b6113da6020830187610f9a565b6113e7604083018661115c565b6113f4606083018561115c565b611401608083018461115c565b9695505050505050565b600082825260208201905092915050565b6000611427826114d8565b9150611432836114d8565b9250827fffffffffffffffffffffffffffffffffffffffffffffffffffffffffffffffff0382111561146757611466611518565b5b828201905092915050565b600061147d826114d8565b9150611488836114d8565b92508282101561149b5761149a611518565b5b828203905092915050565b60006114b1826114b8565b9050919050565b600073ffffffffffffffffffffffffffffffffffffffff82169050919050565b6000819050919050565b60006114ed826114f4565b9050919050565b60006114ff82611506565b9050919050565b6000611511826114b8565b9050919050565b7f4e487b7100000000000000000000000000000000000000000000000000000000600052601160045260246000fd5b600080fd5b7f706c656467656420746f6f206c6f772100000000000000000000000000000000600082015250565b7f6e6f7420616e206f776e65722100000000000000000000000000000000000000600082015250565b7f616c726561647920636c61696d65640000000000000000000000000000000000600082015250565b7f746f6f206c6f6e67210000000000000000000000000000000000000000000000600082015250565b7f5452594e4120464f4f4c204d453f000000000000000000000000000000000000600082015250565b7f6e6f742053746172746564210000000000000000000000000000000000000000600082015250565b7f696e636f727265637420656e6400000000000000000000000000000000000000600082015250565b7f726561636865642074686520676f616c21210000000000000000000000000000600082015250565b7f696e636f72726563742073746172740000000000000000000000000000000000600082015250565b7f656e646564210000000000000000000000000000000000000000000000000000600082015250565b7f6e6f7420656e6465642100000000000000000000000000000000000000000000600082015250565b7f656e646564000000000000000000000000000000000000000000000000000000600082015250565b611741816114a6565b811461174c57600080fd5b50565b611758816114d8565b811461176357600080fd5b5056fea2646970667358221220885fa18e73e817184f394a0ea281b710c6e74efa11586e7d5df3d0e1768254e164736f6c63430008070033",
					"opcodes": "PUSH1 0xA0 PUSH1 0x40 MSTORE CALLVALUE DUP1 ISZERO PUSH3 0x11 JUMPI PUSH1 0x0 DUP1 REVERT JUMPDEST POP PUSH1 0x40 MLOAD PUSH3 0x18E8 CODESIZE SUB DUP1 PUSH3 0x18E8 DUP4 CODECOPY DUP2 DUP2 ADD PUSH1 0x40 MSTORE DUP2 ADD SWAP1 PUSH3 0x37 SWAP2 SWAP1 PUSH3 0x8C JUMP JUMPDEST DUP1 PUSH20 0xFFFFFFFFFFFFFFFFFFFFFFFFFFFFFFFFFFFFFFFF AND PUSH1 0x80 DUP2 PUSH20 0xFFFFFFFFFFFFFFFFFFFFFFFFFFFFFFFFFFFFFFFF AND PUSH1 0x60 SHL DUP2 MSTORE POP POP POP PUSH3 0x111 JUMP JUMPDEST PUSH1 0x0 DUP2 MLOAD SWAP1 POP PUSH3 0x86 DUP2 PUSH3 0xF7 JUMP JUMPDEST SWAP3 SWAP2 POP POP JUMP JUMPDEST PUSH1 0x0 PUSH1 0x20 DUP3 DUP5 SUB SLT ISZERO PUSH3 0xA5 JUMPI PUSH3 0xA4 PUSH3 0xF2 JUMP JUMPDEST JUMPDEST PUSH1 0x0 PUSH3 0xB5 DUP5 DUP3 DUP6 ADD PUSH3 0x75 JUMP JUMPDEST SWAP2 POP POP SWAP3 SWAP2 POP POP JUMP JUMPDEST PUSH1 0x0 PUSH3 0xCB DUP3 PUSH3 0xD2 JUMP JUMPDEST SWAP1 POP SWAP2 SWAP1 POP JUMP JUMPDEST PUSH1 0x0 PUSH20 0xFFFFFFFFFFFFFFFFFFFFFFFFFFFFFFFFFFFFFFFF DUP3 AND SWAP1 POP SWAP2 SWAP1 POP JUMP JUMPDEST PUSH1 0x0 DUP1 REVERT JUMPDEST PUSH3 0x102 DUP2 PUSH3 0xBE JUMP JUMPDEST DUP2 EQ PUSH3 0x10E JUMPI PUSH1 0x0 DUP1 REVERT JUMPDEST POP JUMP JUMPDEST PUSH1 0x80 MLOAD PUSH1 0x60 SHR PUSH2 0x179C PUSH3 0x14C PUSH1 0x0 CODECOPY PUSH1 0x0 DUP2 DUP2 PUSH2 0x32E ADD MSTORE DUP2 DUP2 PUSH2 0x5A2 ADD MSTORE DUP2 DUP2 PUSH2 0x932 ADD MSTORE DUP2 DUP2 PUSH2 0xC5A ADD MSTORE PUSH2 0xDA3 ADD MSTORE PUSH2 0x179C PUSH1 0x0 RETURN INVALID PUSH1 0x80 PUSH1 0x40 MSTORE CALLVALUE DUP1 ISZERO PUSH2 0x10 JUMPI PUSH1 0x0 DUP1 REVERT JUMPDEST POP PUSH1 0x4 CALLDATASIZE LT PUSH2 0x9E JUMPI PUSH1 0x0 CALLDATALOAD PUSH1 0xE0 SHR DUP1 PUSH4 0x8736C179 GT PUSH2 0x66 JUMPI DUP1 PUSH4 0x8736C179 EQ PUSH2 0x131 JUMPI DUP1 PUSH4 0x8E97F524 EQ PUSH2 0x14D JUMPI DUP1 PUSH4 0xB1724B46 EQ PUSH2 0x17D JUMPI DUP1 PUSH4 0xFC0C546A EQ PUSH2 0x19B JUMPI DUP1 PUSH4 0xFDE327BE EQ PUSH2 0x1B9 JUMPI PUSH2 0x9E JUMP JUMPDEST DUP1 PUSH4 0x1C75CFB4 EQ PUSH2 0xA3 JUMPI DUP1 PUSH4 0x278ECDE1 EQ PUSH2 0xC1 JUMPI DUP1 PUSH4 0x379607F5 EQ PUSH2 0xDD JUMPI DUP1 PUSH4 0x40E58EE5 EQ PUSH2 0xF9 JUMPI DUP1 PUSH4 0x711853AB EQ PUSH2 0x115 JUMPI JUMPDEST PUSH1 0x0 DUP1 REVERT JUMPDEST PUSH2 0xAB PUSH2 0x1D5 JUMP JUMPDEST PUSH1 0x40 MLOAD PUSH2 0xB8 SWAP2 SWAP1 PUSH2 0x1366 JUMP JUMPDEST PUSH1 0x40 MLOAD DUP1 SWAP2 SUB SWAP1 RETURN JUMPDEST PUSH2 0xDB PUSH1 0x4 DUP1 CALLDATASIZE SUB DUP2 ADD SWAP1 PUSH2 0xD6 SWAP2 SWAP1 PUSH2 0xE9A JUMP JUMPDEST PUSH2 0x1DB JUMP JUMPDEST STOP JUMPDEST PUSH2 0xF7 PUSH1 0x4 DUP1 CALLDATASIZE SUB DUP2 ADD SWAP1 PUSH2 0xF2 SWAP2 SWAP1 PUSH2 0xE9A JUMP JUMPDEST PUSH2 0x3F9 JUMP JUMPDEST STOP JUMPDEST PUSH2 0x113 PUSH1 0x4 DUP1 CALLDATASIZE SUB DUP2 ADD SWAP1 PUSH2 0x10E SWAP2 SWAP1 PUSH2 0xE9A JUMP JUMPDEST PUSH2 0x66C JUMP JUMPDEST STOP JUMPDEST PUSH2 0x12F PUSH1 0x4 DUP1 CALLDATASIZE SUB DUP2 ADD SWAP1 PUSH2 0x12A SWAP2 SWAP1 PUSH2 0xF07 JUMP JUMPDEST PUSH2 0x852 JUMP JUMPDEST STOP JUMPDEST PUSH2 0x14B PUSH1 0x4 DUP1 CALLDATASIZE SUB DUP2 ADD SWAP1 PUSH2 0x146 SWAP2 SWAP1 PUSH2 0xF47 JUMP JUMPDEST PUSH2 0x9FD JUMP JUMPDEST STOP JUMPDEST PUSH2 0x167 PUSH1 0x4 DUP1 CALLDATASIZE SUB DUP2 ADD SWAP1 PUSH2 0x162 SWAP2 SWAP1 PUSH2 0xEC7 JUMP JUMPDEST PUSH2 0xC2C JUMP JUMPDEST PUSH1 0x40 MLOAD PUSH2 0x174 SWAP2 SWAP1 PUSH2 0x1366 JUMP JUMPDEST PUSH1 0x40 MLOAD DUP1 SWAP2 SUB SWAP1 RETURN JUMPDEST PUSH2 0x185 PUSH2 0xC51 JUMP JUMPDEST PUSH1 0x40 MLOAD PUSH2 0x192 SWAP2 SWAP1 PUSH2 0x1366 JUMP JUMPDEST PUSH1 0x40 MLOAD DUP1 SWAP2 SUB SWAP1 RETURN JUMPDEST PUSH2 0x1A3 PUSH2 0xC58 JUMP JUMPDEST PUSH1 0x40 MLOAD PUSH2 0x1B0 SWAP2 SWAP1 PUSH2 0x11CB JUMP JUMPDEST PUSH1 0x40 MLOAD DUP1 SWAP2 SUB SWAP1 RETURN JUMPDEST PUSH2 0x1D3 PUSH1 0x4 DUP1 CALLDATASIZE SUB DUP2 ADD SWAP1 PUSH2 0x1CE SWAP2 SWAP1 PUSH2 0xF07 JUMP JUMPDEST PUSH2 0xC7C JUMP JUMPDEST STOP JUMPDEST PUSH1 0x1 SLOAD DUP2 JUMP JUMPDEST PUSH1 0x0 DUP1 PUSH1 0x0 DUP4 DUP2 MSTORE PUSH1 0x20 ADD SWAP1 DUP2 MSTORE PUSH1 0x20 ADD PUSH1 0x0 KECCAK256 SWAP1 POP DUP1 PUSH1 0x4 ADD SLOAD TIMESTAMP GT PUSH2 0x237 JUMPI PUSH1 0x40 MLOAD PUSH32 0x8C379A000000000000000000000000000000000000000000000000000000000 DUP2 MSTORE PUSH1 0x4 ADD PUSH2 0x22E SWAP1 PUSH2 0x1326 JUMP JUMPDEST PUSH1 0x40 MLOAD DUP1 SWAP2 SUB SWAP1 REVERT JUMPDEST DUP1 PUSH1 0x1 ADD SLOAD DUP2 PUSH1 0x2 ADD SLOAD LT PUSH2 0x281 JUMPI PUSH1 0x40 MLOAD PUSH32 0x8C379A000000000000000000000000000000000000000000000000000000000 DUP2 MSTORE PUSH1 0x4 ADD PUSH2 0x278 SWAP1 PUSH2 0x12C6 JUMP JUMPDEST PUSH1 0x40 MLOAD DUP1 SWAP2 SUB SWAP1 REVERT JUMPDEST PUSH1 0x0 PUSH1 0x2 PUSH1 0x0 DUP5 DUP2 MSTORE PUSH1 0x20 ADD SWAP1 DUP2 MSTORE PUSH1 0x20 ADD PUSH1 0x0 KECCAK256 PUSH1 0x0 CALLER PUSH20 0xFFFFFFFFFFFFFFFFFFFFFFFFFFFFFFFFFFFFFFFF AND PUSH20 0xFFFFFFFFFFFFFFFFFFFFFFFFFFFFFFFFFFFFFFFF AND DUP2 MSTORE PUSH1 0x20 ADD SWAP1 DUP2 MSTORE PUSH1 0x20 ADD PUSH1 0x0 KECCAK256 SLOAD SWAP1 POP PUSH1 0x0 PUSH1 0x2 PUSH1 0x0 DUP6 DUP2 MSTORE PUSH1 0x20 ADD SWAP1 DUP2 MSTORE PUSH1 0x20 ADD PUSH1 0x0 KECCAK256 PUSH1 0x0 CALLER PUSH20 0xFFFFFFFFFFFFFFFFFFFFFFFFFFFFFFFFFFFFFFFF AND PUSH20 0xFFFFFFFFFFFFFFFFFFFFFFFFFFFFFFFFFFFFFFFF AND DUP2 MSTORE PUSH1 0x20 ADD SWAP1 DUP2 MSTORE PUSH1 0x20 ADD PUSH1 0x0 KECCAK256 DUP2 SWAP1 SSTORE POP PUSH32 0x0 PUSH20 0xFFFFFFFFFFFFFFFFFFFFFFFFFFFFFFFFFFFFFFFF AND PUSH4 0xA9059CBB CALLER DUP4 PUSH1 0x40 MLOAD DUP4 PUSH4 0xFFFFFFFF AND PUSH1 0xE0 SHL DUP2 MSTORE PUSH1 0x4 ADD PUSH2 0x387 SWAP3 SWAP2 SWAP1 PUSH2 0x11A2 JUMP JUMPDEST PUSH1 0x0 PUSH1 0x40 MLOAD DUP1 DUP4 SUB DUP2 PUSH1 0x0 DUP8 DUP1 EXTCODESIZE ISZERO DUP1 ISZERO PUSH2 0x3A1 JUMPI PUSH1 0x0 DUP1 REVERT JUMPDEST POP GAS CALL ISZERO DUP1 ISZERO PUSH2 0x3B5 JUMPI RETURNDATASIZE PUSH1 0x0 DUP1 RETURNDATACOPY RETURNDATASIZE PUSH1 0x0 REVERT JUMPDEST POP POP POP POP PUSH32 0x7CA5472B7EA78C2C0141C5A12EE6D170CF4CE8ED06BE3D22C8252DDFC7A6A2C4 DUP4 CALLER DUP4 PUSH1 0x40 MLOAD PUSH2 0x3EC SWAP4 SWAP3 SWAP2 SWAP1 PUSH2 0x1381 JUMP JUMPDEST PUSH1 0x40 MLOAD DUP1 SWAP2 SUB SWAP1 LOG1 POP POP POP JUMP JUMPDEST PUSH1 0x0 DUP1 PUSH1 0x0 DUP4 DUP2 MSTORE PUSH1 0x20 ADD SWAP1 DUP2 MSTORE PUSH1 0x20 ADD PUSH1 0x0 KECCAK256 SWAP1 POP DUP1 PUSH1 0x0 ADD PUSH1 0x0 SWAP1 SLOAD SWAP1 PUSH2 0x100 EXP SWAP1 DIV PUSH20 0xFFFFFFFFFFFFFFFFFFFFFFFFFFFFFFFFFFFFFFFF AND PUSH20 0xFFFFFFFFFFFFFFFFFFFFFFFFFFFFFFFFFFFFFFFF AND CALLER PUSH20 0xFFFFFFFFFFFFFFFFFFFFFFFFFFFFFFFFFFFFFFFF AND EQ PUSH2 0x4A1 JUMPI PUSH1 0x40 MLOAD PUSH32 0x8C379A000000000000000000000000000000000000000000000000000000000 DUP2 MSTORE PUSH1 0x4 ADD PUSH2 0x498 SWAP1 PUSH2 0x1206 JUMP JUMPDEST PUSH1 0x40 MLOAD DUP1 SWAP2 SUB SWAP1 REVERT JUMPDEST DUP1 PUSH1 0x4 ADD SLOAD TIMESTAMP GT PUSH2 0x4E7 JUMPI PUSH1 0x40 MLOAD PUSH32 0x8C379A000000000000000000000000000000000000000000000000000000000 DUP2 MSTORE PUSH1 0x4 ADD PUSH2 0x4DE SWAP1 PUSH2 0x1326 JUMP JUMPDEST PUSH1 0x40 MLOAD DUP1 SWAP2 SUB SWAP1 REVERT JUMPDEST DUP1 PUSH1 0x1 ADD SLOAD DUP2 PUSH1 0x2 ADD SLOAD LT ISZERO PUSH2 0x532 JUMPI PUSH1 0x40 MLOAD PUSH32 0x8C379A000000000000000000000000000000000000000000000000000000000 DUP2 MSTORE PUSH1 0x4 ADD PUSH2 0x529 SWAP1 PUSH2 0x11E6 JUMP JUMPDEST PUSH1 0x40 MLOAD DUP1 SWAP2 SUB SWAP1 REVERT JUMPDEST DUP1 PUSH1 0x5 ADD PUSH1 0x0 SWAP1 SLOAD SWAP1 PUSH2 0x100 EXP SWAP1 DIV PUSH1 0xFF AND PUSH2 0x583 JUMPI PUSH1 0x40 MLOAD PUSH32 0x8C379A000000000000000000000000000000000000000000000000000000000 DUP2 MSTORE PUSH1 0x4 ADD PUSH2 0x57A SWAP1 PUSH2 0x1226 JUMP JUMPDEST PUSH1 0x40 MLOAD DUP1 SWAP2 SUB SWAP1 REVERT JUMPDEST PUSH1 0x1 DUP2 PUSH1 0x5 ADD PUSH1 0x0 PUSH2 0x100 EXP DUP2 SLOAD DUP2 PUSH1 0xFF MUL NOT AND SWAP1 DUP4 ISZERO ISZERO MUL OR SWAP1 SSTORE POP PUSH32 0x0 PUSH20 0xFFFFFFFFFFFFFFFFFFFFFFFFFFFFFFFFFFFFFFFF AND PUSH4 0xA9059CBB CALLER DUP4 PUSH1 0x2 ADD SLOAD PUSH1 0x40 MLOAD DUP4 PUSH4 0xFFFFFFFF AND PUSH1 0xE0 SHL DUP2 MSTORE PUSH1 0x4 ADD PUSH2 0x5FF SWAP3 SWAP2 SWAP1 PUSH2 0x11A2 JUMP JUMPDEST PUSH1 0x0 PUSH1 0x40 MLOAD DUP1 DUP4 SUB DUP2 PUSH1 0x0 DUP8 DUP1 EXTCODESIZE ISZERO DUP1 ISZERO PUSH2 0x619 JUMPI PUSH1 0x0 DUP1 REVERT JUMPDEST POP GAS CALL ISZERO DUP1 ISZERO PUSH2 0x62D JUMPI RETURNDATASIZE PUSH1 0x0 DUP1 RETURNDATACOPY RETURNDATASIZE PUSH1 0x0 REVERT JUMPDEST POP POP POP POP PUSH32 0x7A355715549CFE7C1CBA26304350343FBDDC4B4F72D3CE3E7C27117DD20B5CB8 DUP3 PUSH1 0x40 MLOAD PUSH2 0x660 SWAP2 SWAP1 PUSH2 0x1366 JUMP JUMPDEST PUSH1 0x40 MLOAD DUP1 SWAP2 SUB SWAP1 LOG1 POP POP JUMP JUMPDEST PUSH1 0x0 DUP1 PUSH1 0x0 DUP4 DUP2 MSTORE PUSH1 0x20 ADD SWAP1 DUP2 MSTORE PUSH1 0x20 ADD PUSH1 0x0 KECCAK256 PUSH1 0x40 MLOAD DUP1 PUSH1 0xC0 ADD PUSH1 0x40 MSTORE SWAP1 DUP2 PUSH1 0x0 DUP3 ADD PUSH1 0x0 SWAP1 SLOAD SWAP1 PUSH2 0x100 EXP SWAP1 DIV PUSH20 0xFFFFFFFFFFFFFFFFFFFFFFFFFFFFFFFFFFFFFFFF AND PUSH20 0xFFFFFFFFFFFFFFFFFFFFFFFFFFFFFFFFFFFFFFFF AND PUSH20 0xFFFFFFFFFFFFFFFFFFFFFFFFFFFFFFFFFFFFFFFF AND DUP2 MSTORE PUSH1 0x20 ADD PUSH1 0x1 DUP3 ADD SLOAD DUP2 MSTORE PUSH1 0x20 ADD PUSH1 0x2 DUP3 ADD SLOAD DUP2 MSTORE PUSH1 0x20 ADD PUSH1 0x3 DUP3 ADD SLOAD DUP2 MSTORE PUSH1 0x20 ADD PUSH1 0x4 DUP3 ADD SLOAD DUP2 MSTORE PUSH1 0x20 ADD PUSH1 0x5 DUP3 ADD PUSH1 0x0 SWAP1 SLOAD SWAP1 PUSH2 0x100 EXP SWAP1 DIV PUSH1 0xFF AND ISZERO ISZERO ISZERO ISZERO DUP2 MSTORE POP POP SWAP1 POP DUP1 PUSH1 0x0 ADD MLOAD PUSH20 0xFFFFFFFFFFFFFFFFFFFFFFFFFFFFFFFFFFFFFFFF AND CALLER PUSH20 0xFFFFFFFFFFFFFFFFFFFFFFFFFFFFFFFFFFFFFFFF AND EQ PUSH2 0x798 JUMPI PUSH1 0x40 MLOAD PUSH32 0x8C379A000000000000000000000000000000000000000000000000000000000 DUP2 MSTORE PUSH1 0x4 ADD PUSH2 0x78F SWAP1 PUSH2 0x1206 JUMP JUMPDEST PUSH1 0x40 MLOAD DUP1 SWAP2 SUB SWAP1 REVERT JUMPDEST DUP1 PUSH1 0x60 ADD MLOAD TIMESTAMP LT PUSH2 0x7DE JUMPI PUSH1 0x40 MLOAD PUSH32 0x8C379A000000000000000000000000000000000000000000000000000000000 DUP2 MSTORE PUSH1 0x4 ADD PUSH2 0x7D5 SWAP1 PUSH2 0x1266 JUMP JUMPDEST PUSH1 0x40 MLOAD DUP1 SWAP2 SUB SWAP1 REVERT JUMPDEST PUSH1 0x0 DUP1 DUP4 DUP2 MSTORE PUSH1 0x20 ADD SWAP1 DUP2 MSTORE PUSH1 0x20 ADD PUSH1 0x0 KECCAK256 PUSH1 0x0 DUP1 DUP3 ADD PUSH1 0x0 PUSH2 0x100 EXP DUP2 SLOAD SWAP1 PUSH20 0xFFFFFFFFFFFFFFFFFFFFFFFFFFFFFFFFFFFFFFFF MUL NOT AND SWAP1 SSTORE PUSH1 0x1 DUP3 ADD PUSH1 0x0 SWAP1 SSTORE PUSH1 0x2 DUP3 ADD PUSH1 0x0 SWAP1 SSTORE PUSH1 0x3 DUP3 ADD PUSH1 0x0 SWAP1 SSTORE PUSH1 0x4 DUP3 ADD PUSH1 0x0 SWAP1 SSTORE PUSH1 0x5 DUP3 ADD PUSH1 0x0 PUSH2 0x100 EXP DUP2 SLOAD SWAP1 PUSH1 0xFF MUL NOT AND SWAP1 SSTORE POP POP POP POP JUMP JUMPDEST PUSH1 0x0 DUP1 PUSH1 0x0 DUP5 DUP2 MSTORE PUSH1 0x20 ADD SWAP1 DUP2 MSTORE PUSH1 0x20 ADD PUSH1 0x0 KECCAK256 SWAP1 POP DUP1 PUSH1 0x4 ADD SLOAD TIMESTAMP LT PUSH2 0x8AE JUMPI PUSH1 0x40 MLOAD PUSH32 0x8C379A000000000000000000000000000000000000000000000000000000000 DUP2 MSTORE PUSH1 0x4 ADD PUSH2 0x8A5 SWAP1 PUSH2 0x1346 JUMP JUMPDEST PUSH1 0x40 MLOAD DUP1 SWAP2 SUB SWAP1 REVERT JUMPDEST DUP2 DUP2 PUSH1 0x2 ADD PUSH1 0x0 DUP3 DUP3 SLOAD PUSH2 0x8C2 SWAP2 SWAP1 PUSH2 0x1472 JUMP JUMPDEST SWAP3 POP POP DUP2 SWAP1 SSTORE POP DUP2 PUSH1 0x2 PUSH1 0x0 DUP6 DUP2 MSTORE PUSH1 0x20 ADD SWAP1 DUP2 MSTORE PUSH1 0x20 ADD PUSH1 0x0 KECCAK256 PUSH1 0x0 CALLER PUSH20 0xFFFFFFFFFFFFFFFFFFFFFFFFFFFFFFFFFFFFFFFF AND PUSH20 0xFFFFFFFFFFFFFFFFFFFFFFFFFFFFFFFFFFFFFFFF AND DUP2 MSTORE PUSH1 0x20 ADD SWAP1 DUP2 MSTORE PUSH1 0x20 ADD PUSH1 0x0 KECCAK256 PUSH1 0x0 DUP3 DUP3 SLOAD PUSH2 0x929 SWAP2 SWAP1 PUSH2 0x1472 JUMP JUMPDEST SWAP3 POP POP DUP2 SWAP1 SSTORE POP PUSH32 0x0 PUSH20 0xFFFFFFFFFFFFFFFFFFFFFFFFFFFFFFFFFFFFFFFF AND PUSH4 0xA9059CBB CALLER DUP5 PUSH1 0x40 MLOAD DUP4 PUSH4 0xFFFFFFFF AND PUSH1 0xE0 SHL DUP2 MSTORE PUSH1 0x4 ADD PUSH2 0x98B SWAP3 SWAP2 SWAP1 PUSH2 0x11A2 JUMP JUMPDEST PUSH1 0x0 PUSH1 0x40 MLOAD DUP1 DUP4 SUB DUP2 PUSH1 0x0 DUP8 DUP1 EXTCODESIZE ISZERO DUP1 ISZERO PUSH2 0x9A5 JUMPI PUSH1 0x0 DUP1 REVERT JUMPDEST POP GAS CALL ISZERO DUP1 ISZERO PUSH2 0x9B9 JUMPI RETURNDATASIZE PUSH1 0x0 DUP1 RETURNDATACOPY RETURNDATASIZE PUSH1 0x0 REVERT JUMPDEST POP POP POP POP PUSH32 0xFCD29B1632C6748A9A4BB9B4CD5C6486C3C84A8550DCE2368F83FEF3969D9685 DUP4 CALLER DUP5 PUSH1 0x40 MLOAD PUSH2 0x9F0 SWAP4 SWAP3 SWAP2 SWAP1 PUSH2 0x1381 JUMP JUMPDEST PUSH1 0x40 MLOAD DUP1 SWAP2 SUB SWAP1 LOG1 POP POP POP JUMP JUMPDEST TIMESTAMP DUP3 LT ISZERO PUSH2 0xA40 JUMPI PUSH1 0x40 MLOAD PUSH32 0x8C379A000000000000000000000000000000000000000000000000000000000 DUP2 MSTORE PUSH1 0x4 ADD PUSH2 0xA37 SWAP1 PUSH2 0x12E6 JUMP JUMPDEST PUSH1 0x40 MLOAD DUP1 SWAP2 SUB SWAP1 REVERT JUMPDEST PUSH1 0xA DUP3 PUSH2 0xA4D SWAP2 SWAP1 PUSH2 0x141C JUMP JUMPDEST DUP2 LT ISZERO PUSH2 0xA8F JUMPI PUSH1 0x40 MLOAD PUSH32 0x8C379A000000000000000000000000000000000000000000000000000000000 DUP2 MSTORE PUSH1 0x4 ADD PUSH2 0xA86 SWAP1 PUSH2 0x12A6 JUMP JUMPDEST PUSH1 0x40 MLOAD DUP1 SWAP2 SUB SWAP1 REVERT JUMPDEST PUSH3 0x83D600 DUP3 PUSH2 0xA9E SWAP2 SWAP1 PUSH2 0x141C JUMP JUMPDEST DUP2 GT ISZERO PUSH2 0xAE0 JUMPI PUSH1 0x40 MLOAD PUSH32 0x8C379A000000000000000000000000000000000000000000000000000000000 DUP2 MSTORE PUSH1 0x4 ADD PUSH2 0xAD7 SWAP1 PUSH2 0x1246 JUMP JUMPDEST PUSH1 0x40 MLOAD DUP1 SWAP2 SUB SWAP1 REVERT JUMPDEST PUSH1 0x40 MLOAD DUP1 PUSH1 0xC0 ADD PUSH1 0x40 MSTORE DUP1 CALLER PUSH20 0xFFFFFFFFFFFFFFFFFFFFFFFFFFFFFFFFFFFFFFFF AND DUP2 MSTORE PUSH1 0x20 ADD DUP5 DUP2 MSTORE PUSH1 0x20 ADD PUSH1 0x0 DUP2 MSTORE PUSH1 0x20 ADD DUP4 DUP2 MSTORE PUSH1 0x20 ADD DUP3 DUP2 MSTORE PUSH1 0x20 ADD PUSH1 0x0 ISZERO ISZERO DUP2 MSTORE POP PUSH1 0x0 DUP1 PUSH1 0x1 SLOAD DUP2 MSTORE PUSH1 0x20 ADD SWAP1 DUP2 MSTORE PUSH1 0x20 ADD PUSH1 0x0 KECCAK256 PUSH1 0x0 DUP3 ADD MLOAD DUP2 PUSH1 0x0 ADD PUSH1 0x0 PUSH2 0x100 EXP DUP2 SLOAD DUP2 PUSH20 0xFFFFFFFFFFFFFFFFFFFFFFFFFFFFFFFFFFFFFFFF MUL NOT AND SWAP1 DUP4 PUSH20 0xFFFFFFFFFFFFFFFFFFFFFFFFFFFFFFFFFFFFFFFF AND MUL OR SWAP1 SSTORE POP PUSH1 0x20 DUP3 ADD MLOAD DUP2 PUSH1 0x1 ADD SSTORE PUSH1 0x40 DUP3 ADD MLOAD DUP2 PUSH1 0x2 ADD SSTORE PUSH1 0x60 DUP3 ADD MLOAD DUP2 PUSH1 0x3 ADD SSTORE PUSH1 0x80 DUP3 ADD MLOAD DUP2 PUSH1 0x4 ADD SSTORE PUSH1 0xA0 DUP3 ADD MLOAD DUP2 PUSH1 0x5 ADD PUSH1 0x0 PUSH2 0x100 EXP DUP2 SLOAD DUP2 PUSH1 0xFF MUL NOT AND SWAP1 DUP4 ISZERO ISZERO MUL OR SWAP1 SSTORE POP SWAP1 POP POP PUSH32 0xEA7DC5BE41326789A621AAA33D671281D0A54AA87610751DEF19F8544C2004C3 PUSH1 0x1 SLOAD CALLER DUP6 DUP6 DUP6 PUSH1 0x40 MLOAD PUSH2 0xC06 SWAP6 SWAP5 SWAP4 SWAP3 SWAP2 SWAP1 PUSH2 0x13B8 JUMP JUMPDEST PUSH1 0x40 MLOAD DUP1 SWAP2 SUB SWAP1 LOG1 PUSH1 0x1 DUP1 PUSH1 0x0 DUP3 DUP3 SLOAD PUSH2 0xC20 SWAP2 SWAP1 PUSH2 0x141C JUMP JUMPDEST SWAP3 POP POP DUP2 SWAP1 SSTORE POP POP POP POP JUMP JUMPDEST PUSH1 0x2 PUSH1 0x20 MSTORE DUP2 PUSH1 0x0 MSTORE PUSH1 0x40 PUSH1 0x0 KECCAK256 PUSH1 0x20 MSTORE DUP1 PUSH1 0x0 MSTORE PUSH1 0x40 PUSH1 0x0 KECCAK256 PUSH1 0x0 SWAP2 POP SWAP2 POP POP SLOAD DUP2 JUMP JUMPDEST PUSH3 0x83D600 DUP2 JUMP JUMPDEST PUSH32 0x0 DUP2 JUMP JUMPDEST PUSH1 0x0 DUP1 PUSH1 0x0 DUP5 DUP2 MSTORE PUSH1 0x20 ADD SWAP1 DUP2 MSTORE PUSH1 0x20 ADD PUSH1 0x0 KECCAK256 SWAP1 POP DUP1 PUSH1 0x3 ADD SLOAD TIMESTAMP LT ISZERO PUSH2 0xCD9 JUMPI PUSH1 0x40 MLOAD PUSH32 0x8C379A000000000000000000000000000000000000000000000000000000000 DUP2 MSTORE PUSH1 0x4 ADD PUSH2 0xCD0 SWAP1 PUSH2 0x1286 JUMP JUMPDEST PUSH1 0x40 MLOAD DUP1 SWAP2 SUB SWAP1 REVERT JUMPDEST DUP1 PUSH1 0x4 ADD SLOAD TIMESTAMP LT PUSH2 0xD1F JUMPI PUSH1 0x40 MLOAD PUSH32 0x8C379A000000000000000000000000000000000000000000000000000000000 DUP2 MSTORE PUSH1 0x4 ADD PUSH2 0xD16 SWAP1 PUSH2 0x1306 JUMP JUMPDEST PUSH1 0x40 MLOAD DUP1 SWAP2 SUB SWAP1 REVERT JUMPDEST DUP2 DUP2 PUSH1 0x2 ADD PUSH1 0x0 DUP3 DUP3 SLOAD PUSH2 0xD33 SWAP2 SWAP1 PUSH2 0x141C JUMP JUMPDEST SWAP3 POP POP DUP2 SWAP1 SSTORE POP DUP2 PUSH1 0x2 PUSH1 0x0 DUP6 DUP2 MSTORE PUSH1 0x20 ADD SWAP1 DUP2 MSTORE PUSH1 0x20 ADD PUSH1 0x0 KECCAK256 PUSH1 0x0 CALLER PUSH20 0xFFFFFFFFFFFFFFFFFFFFFFFFFFFFFFFFFFFFFFFF AND PUSH20 0xFFFFFFFFFFFFFFFFFFFFFFFFFFFFFFFFFFFFFFFF AND DUP2 MSTORE PUSH1 0x20 ADD SWAP1 DUP2 MSTORE PUSH1 0x20 ADD PUSH1 0x0 KECCAK256 PUSH1 0x0 DUP3 DUP3 SLOAD PUSH2 0xD9A SWAP2 SWAP1 PUSH2 0x141C JUMP JUMPDEST SWAP3 POP POP DUP2 SWAP1 SSTORE POP PUSH32 0x0 PUSH20 0xFFFFFFFFFFFFFFFFFFFFFFFFFFFFFFFFFFFFFFFF AND PUSH4 0x23B872DD CALLER ADDRESS DUP6 PUSH1 0x40 MLOAD DUP5 PUSH4 0xFFFFFFFF AND PUSH1 0xE0 SHL DUP2 MSTORE PUSH1 0x4 ADD PUSH2 0xDFE SWAP4 SWAP3 SWAP2 SWAP1 PUSH2 0x116B JUMP JUMPDEST PUSH1 0x0 PUSH1 0x40 MLOAD DUP1 DUP4 SUB DUP2 PUSH1 0x0 DUP8 DUP1 EXTCODESIZE ISZERO DUP1 ISZERO PUSH2 0xE18 JUMPI PUSH1 0x0 DUP1 REVERT JUMPDEST POP GAS CALL ISZERO DUP1 ISZERO PUSH2 0xE2C JUMPI RETURNDATASIZE PUSH1 0x0 DUP1 RETURNDATACOPY RETURNDATASIZE PUSH1 0x0 REVERT JUMPDEST POP POP POP POP PUSH32 0x2757AC6A40883F4491CC56930AE964DF9034E343E660D5179EB01E198336756B DUP4 CALLER DUP5 PUSH1 0x40 MLOAD PUSH2 0xE63 SWAP4 SWAP3 SWAP2 SWAP1 PUSH2 0x1381 JUMP JUMPDEST PUSH1 0x40 MLOAD DUP1 SWAP2 SUB SWAP1 LOG1 POP POP POP JUMP JUMPDEST PUSH1 0x0 DUP2 CALLDATALOAD SWAP1 POP PUSH2 0xE7F DUP2 PUSH2 0x1738 JUMP JUMPDEST SWAP3 SWAP2 POP POP JUMP JUMPDEST PUSH1 0x0 DUP2 CALLDATALOAD SWAP1 POP PUSH2 0xE94 DUP2 PUSH2 0x174F JUMP JUMPDEST SWAP3 SWAP2 POP POP JUMP JUMPDEST PUSH1 0x0 PUSH1 0x20 DUP3 DUP5 SUB SLT ISZERO PUSH2 0xEB0 JUMPI PUSH2 0xEAF PUSH2 0x1547 JUMP JUMPDEST JUMPDEST PUSH1 0x0 PUSH2 0xEBE DUP5 DUP3 DUP6 ADD PUSH2 0xE85 JUMP JUMPDEST SWAP2 POP POP SWAP3 SWAP2 POP POP JUMP JUMPDEST PUSH1 0x0 DUP1 PUSH1 0x40 DUP4 DUP6 SUB SLT ISZERO PUSH2 0xEDE JUMPI PUSH2 0xEDD PUSH2 0x1547 JUMP JUMPDEST JUMPDEST PUSH1 0x0 PUSH2 0xEEC DUP6 DUP3 DUP7 ADD PUSH2 0xE85 JUMP JUMPDEST SWAP3 POP POP PUSH1 0x20 PUSH2 0xEFD DUP6 DUP3 DUP7 ADD PUSH2 0xE70 JUMP JUMPDEST SWAP2 POP POP SWAP3 POP SWAP3 SWAP1 POP JUMP JUMPDEST PUSH1 0x0 DUP1 PUSH1 0x40 DUP4 DUP6 SUB SLT ISZERO PUSH2 0xF1E JUMPI PUSH2 0xF1D PUSH2 0x1547 JUMP JUMPDEST JUMPDEST PUSH1 0x0 PUSH2 0xF2C DUP6 DUP3 DUP7 ADD PUSH2 0xE85 JUMP JUMPDEST SWAP3 POP POP PUSH1 0x20 PUSH2 0xF3D DUP6 DUP3 DUP7 ADD PUSH2 0xE85 JUMP JUMPDEST SWAP2 POP POP SWAP3 POP SWAP3 SWAP1 POP JUMP JUMPDEST PUSH1 0x0 DUP1 PUSH1 0x0 PUSH1 0x60 DUP5 DUP7 SUB SLT ISZERO PUSH2 0xF60 JUMPI PUSH2 0xF5F PUSH2 0x1547 JUMP JUMPDEST JUMPDEST PUSH1 0x0 PUSH2 0xF6E DUP7 DUP3 DUP8 ADD PUSH2 0xE85 JUMP JUMPDEST SWAP4 POP POP PUSH1 0x20 PUSH2 0xF7F DUP7 DUP3 DUP8 ADD PUSH2 0xE85 JUMP JUMPDEST SWAP3 POP POP PUSH1 0x40 PUSH2 0xF90 DUP7 DUP3 DUP8 ADD PUSH2 0xE85 JUMP JUMPDEST SWAP2 POP POP SWAP3 POP SWAP3 POP SWAP3 JUMP JUMPDEST PUSH2 0xFA3 DUP2 PUSH2 0x14A6 JUMP JUMPDEST DUP3 MSTORE POP POP JUMP JUMPDEST PUSH2 0xFB2 DUP2 PUSH2 0x14E2 JUMP JUMPDEST DUP3 MSTORE POP POP JUMP JUMPDEST PUSH1 0x0 PUSH2 0xFC5 PUSH1 0x10 DUP4 PUSH2 0x140B JUMP JUMPDEST SWAP2 POP PUSH2 0xFD0 DUP3 PUSH2 0x154C JUMP JUMPDEST PUSH1 0x20 DUP3 ADD SWAP1 POP SWAP2 SWAP1 POP JUMP JUMPDEST PUSH1 0x0 PUSH2 0xFE8 PUSH1 0xD DUP4 PUSH2 0x140B JUMP JUMPDEST SWAP2 POP PUSH2 0xFF3 DUP3 PUSH2 0x1575 JUMP JUMPDEST PUSH1 0x20 DUP3 ADD SWAP1 POP SWAP2 SWAP1 POP JUMP JUMPDEST PUSH1 0x0 PUSH2 0x100B PUSH1 0xF DUP4 PUSH2 0x140B JUMP JUMPDEST SWAP2 POP PUSH2 0x1016 DUP3 PUSH2 0x159E JUMP JUMPDEST PUSH1 0x20 DUP3 ADD SWAP1 POP SWAP2 SWAP1 POP JUMP JUMPDEST PUSH1 0x0 PUSH2 0x102E PUSH1 0x9 DUP4 PUSH2 0x140B JUMP JUMPDEST SWAP2 POP PUSH2 0x1039 DUP3 PUSH2 0x15C7 JUMP JUMPDEST PUSH1 0x20 DUP3 ADD SWAP1 POP SWAP2 SWAP1 POP JUMP JUMPDEST PUSH1 0x0 PUSH2 0x1051 PUSH1 0xE DUP4 PUSH2 0x140B JUMP JUMPDEST SWAP2 POP PUSH2 0x105C DUP3 PUSH2 0x15F0 JUMP JUMPDEST PUSH1 0x20 DUP3 ADD SWAP1 POP SWAP2 SWAP1 POP JUMP JUMPDEST PUSH1 0x0 PUSH2 0x1074 PUSH1 0xC DUP4 PUSH2 0x140B JUMP JUMPDEST SWAP2 POP PUSH2 0x107F DUP3 PUSH2 0x1619 JUMP JUMPDEST PUSH1 0x20 DUP3 ADD SWAP1 POP SWAP2 SWAP1 POP JUMP JUMPDEST PUSH1 0x0 PUSH2 0x1097 PUSH1 0xD DUP4 PUSH2 0x140B JUMP JUMPDEST SWAP2 POP PUSH2 0x10A2 DUP3 PUSH2 0x1642 JUMP JUMPDEST PUSH1 0x20 DUP3 ADD SWAP1 POP SWAP2 SWAP1 POP JUMP JUMPDEST PUSH1 0x0 PUSH2 0x10BA PUSH1 0x12 DUP4 PUSH2 0x140B JUMP JUMPDEST SWAP2 POP PUSH2 0x10C5 DUP3 PUSH2 0x166B JUMP JUMPDEST PUSH1 0x20 DUP3 ADD SWAP1 POP SWAP2 SWAP1 POP JUMP JUMPDEST PUSH1 0x0 PUSH2 0x10DD PUSH1 0xF DUP4 PUSH2 0x140B JUMP JUMPDEST SWAP2 POP PUSH2 0x10E8 DUP3 PUSH2 0x1694 JUMP JUMPDEST PUSH1 0x20 DUP3 ADD SWAP1 POP SWAP2 SWAP1 POP JUMP JUMPDEST PUSH1 0x0 PUSH2 0x1100 PUSH1 0x6 DUP4 PUSH2 0x140B JUMP JUMPDEST SWAP2 POP PUSH2 0x110B DUP3 PUSH2 0x16BD JUMP JUMPDEST PUSH1 0x20 DUP3 ADD SWAP1 POP SWAP2 SWAP1 POP JUMP JUMPDEST PUSH1 0x0 PUSH2 0x1123 PUSH1 0xA DUP4 PUSH2 0x140B JUMP JUMPDEST SWAP2 POP PUSH2 0x112E DUP3 PUSH2 0x16E6 JUMP JUMPDEST PUSH1 0x20 DUP3 ADD SWAP1 POP SWAP2 SWAP1 POP JUMP JUMPDEST PUSH1 0x0 PUSH2 0x1146 PUSH1 0x5 DUP4 PUSH2 0x140B JUMP JUMPDEST SWAP2 POP PUSH2 0x1151 DUP3 PUSH2 0x170F JUMP JUMPDEST PUSH1 0x20 DUP3 ADD SWAP1 POP SWAP2 SWAP1 POP JUMP JUMPDEST PUSH2 0x1165 DUP2 PUSH2 0x14D8 JUMP JUMPDEST DUP3 MSTORE POP POP JUMP JUMPDEST PUSH1 0x0 PUSH1 0x60 DUP3 ADD SWAP1 POP PUSH2 0x1180 PUSH1 0x0 DUP4 ADD DUP7 PUSH2 0xF9A JUMP JUMPDEST PUSH2 0x118D PUSH1 0x20 DUP4 ADD DUP6 PUSH2 0xF9A JUMP JUMPDEST PUSH2 0x119A PUSH1 0x40 DUP4 ADD DUP5 PUSH2 0x115C JUMP JUMPDEST SWAP5 SWAP4 POP POP POP POP JUMP JUMPDEST PUSH1 0x0 PUSH1 0x40 DUP3 ADD SWAP1 POP PUSH2 0x11B7 PUSH1 0x0 DUP4 ADD DUP6 PUSH2 0xF9A JUMP JUMPDEST PUSH2 0x11C4 PUSH1 0x20 DUP4 ADD DUP5 PUSH2 0x115C JUMP JUMPDEST SWAP4 SWAP3 POP POP POP JUMP JUMPDEST PUSH1 0x0 PUSH1 0x20 DUP3 ADD SWAP1 POP PUSH2 0x11E0 PUSH1 0x0 DUP4 ADD DUP5 PUSH2 0xFA9 JUMP JUMPDEST SWAP3 SWAP2 POP POP JUMP JUMPDEST PUSH1 0x0 PUSH1 0x20 DUP3 ADD SWAP1 POP DUP2 DUP2 SUB PUSH1 0x0 DUP4 ADD MSTORE PUSH2 0x11FF DUP2 PUSH2 0xFB8 JUMP JUMPDEST SWAP1 POP SWAP2 SWAP1 POP JUMP JUMPDEST PUSH1 0x0 PUSH1 0x20 DUP3 ADD SWAP1 POP DUP2 DUP2 SUB PUSH1 0x0 DUP4 ADD MSTORE PUSH2 0x121F DUP2 PUSH2 0xFDB JUMP JUMPDEST SWAP1 POP SWAP2 SWAP1 POP JUMP JUMPDEST PUSH1 0x0 PUSH1 0x20 DUP3 ADD SWAP1 POP DUP2 DUP2 SUB PUSH1 0x0 DUP4 ADD MSTORE PUSH2 0x123F DUP2 PUSH2 0xFFE JUMP JUMPDEST SWAP1 POP SWAP2 SWAP1 POP JUMP JUMPDEST PUSH1 0x0 PUSH1 0x20 DUP3 ADD SWAP1 POP DUP2 DUP2 SUB PUSH1 0x0 DUP4 ADD MSTORE PUSH2 0x125F DUP2 PUSH2 0x1021 JUMP JUMPDEST SWAP1 POP SWAP2 SWAP1 POP JUMP JUMPDEST PUSH1 0x0 PUSH1 0x20 DUP3 ADD SWAP1 POP DUP2 DUP2 SUB PUSH1 0x0 DUP4 ADD MSTORE PUSH2 0x127F DUP2 PUSH2 0x1044 JUMP JUMPDEST SWAP1 POP SWAP2 SWAP1 POP JUMP JUMPDEST PUSH1 0x0 PUSH1 0x20 DUP3 ADD SWAP1 POP DUP2 DUP2 SUB PUSH1 0x0 DUP4 ADD MSTORE PUSH2 0x129F DUP2 PUSH2 0x1067 JUMP JUMPDEST SWAP1 POP SWAP2 SWAP1 POP JUMP JUMPDEST PUSH1 0x0 PUSH1 0x20 DUP3 ADD SWAP1 POP DUP2 DUP2 SUB PUSH1 0x0 DUP4 ADD MSTORE PUSH2 0x12BF DUP2 PUSH2 0x108A JUMP JUMPDEST SWAP1 POP SWAP2 SWAP1 POP JUMP JUMPDEST PUSH1 0x0 PUSH1 0x20 DUP3 ADD SWAP1 POP DUP2 DUP2 SUB PUSH1 0x0 DUP4 ADD MSTORE PUSH2 0x12DF DUP2 PUSH2 0x10AD JUMP JUMPDEST SWAP1 POP SWAP2 SWAP1 POP JUMP JUMPDEST PUSH1 0x0 PUSH1 0x20 DUP3 ADD SWAP1 POP DUP2 DUP2 SUB PUSH1 0x0 DUP4 ADD MSTORE PUSH2 0x12FF DUP2 PUSH2 0x10D0 JUMP JUMPDEST SWAP1 POP SWAP2 SWAP1 POP JUMP JUMPDEST PUSH1 0x0 PUSH1 0x20 DUP3 ADD SWAP1 POP DUP2 DUP2 SUB PUSH1 0x0 DUP4 ADD MSTORE PUSH2 0x131F DUP2 PUSH2 0x10F3 JUMP JUMPDEST SWAP1 POP SWAP2 SWAP1 POP JUMP JUMPDEST PUSH1 0x0 PUSH1 0x20 DUP3 ADD SWAP1 POP DUP2 DUP2 SUB PUSH1 0x0 DUP4 ADD MSTORE PUSH2 0x133F DUP2 PUSH2 0x1116 JUMP JUMPDEST SWAP1 POP SWAP2 SWAP1 POP JUMP JUMPDEST PUSH1 0x0 PUSH1 0x20 DUP3 ADD SWAP1 POP DUP2 DUP2 SUB PUSH1 0x0 DUP4 ADD MSTORE PUSH2 0x135F DUP2 PUSH2 0x1139 JUMP JUMPDEST SWAP1 POP SWAP2 SWAP1 POP JUMP JUMPDEST PUSH1 0x0 PUSH1 0x20 DUP3 ADD SWAP1 POP PUSH2 0x137B PUSH1 0x0 DUP4 ADD DUP5 PUSH2 0x115C JUMP JUMPDEST SWAP3 SWAP2 POP POP JUMP JUMPDEST PUSH1 0x0 PUSH1 0x60 DUP3 ADD SWAP1 POP PUSH2 0x1396 PUSH1 0x0 DUP4 ADD DUP7 PUSH2 0x115C JUMP JUMPDEST PUSH2 0x13A3 PUSH1 0x20 DUP4 ADD DUP6 PUSH2 0xF9A JUMP JUMPDEST PUSH2 0x13B0 PUSH1 0x40 DUP4 ADD DUP5 PUSH2 0x115C JUMP JUMPDEST SWAP5 SWAP4 POP POP POP POP JUMP JUMPDEST PUSH1 0x0 PUSH1 0xA0 DUP3 ADD SWAP1 POP PUSH2 0x13CD PUSH1 0x0 DUP4 ADD DUP9 PUSH2 0x115C JUMP JUMPDEST PUSH2 0x13DA PUSH1 0x20 DUP4 ADD DUP8 PUSH2 0xF9A JUMP JUMPDEST PUSH2 0x13E7 PUSH1 0x40 DUP4 ADD DUP7 PUSH2 0x115C JUMP JUMPDEST PUSH2 0x13F4 PUSH1 0x60 DUP4 ADD DUP6 PUSH2 0x115C JUMP JUMPDEST PUSH2 0x1401 PUSH1 0x80 DUP4 ADD DUP5 PUSH2 0x115C JUMP JUMPDEST SWAP7 SWAP6 POP POP POP POP POP POP JUMP JUMPDEST PUSH1 0x0 DUP3 DUP3 MSTORE PUSH1 0x20 DUP3 ADD SWAP1 POP SWAP3 SWAP2 POP POP JUMP JUMPDEST PUSH1 0x0 PUSH2 0x1427 DUP3 PUSH2 0x14D8 JUMP JUMPDEST SWAP2 POP PUSH2 0x1432 DUP4 PUSH2 0x14D8 JUMP JUMPDEST SWAP3 POP DUP3 PUSH32 0xFFFFFFFFFFFFFFFFFFFFFFFFFFFFFFFFFFFFFFFFFFFFFFFFFFFFFFFFFFFFFFFF SUB DUP3 GT ISZERO PUSH2 0x1467 JUMPI PUSH2 0x1466 PUSH2 0x1518 JUMP JUMPDEST JUMPDEST DUP3 DUP3 ADD SWAP1 POP SWAP3 SWAP2 POP POP JUMP JUMPDEST PUSH1 0x0 PUSH2 0x147D DUP3 PUSH2 0x14D8 JUMP JUMPDEST SWAP2 POP PUSH2 0x1488 DUP4 PUSH2 0x14D8 JUMP JUMPDEST SWAP3 POP DUP3 DUP3 LT ISZERO PUSH2 0x149B JUMPI PUSH2 0x149A PUSH2 0x1518 JUMP JUMPDEST JUMPDEST DUP3 DUP3 SUB SWAP1 POP SWAP3 SWAP2 POP POP JUMP JUMPDEST PUSH1 0x0 PUSH2 0x14B1 DUP3 PUSH2 0x14B8 JUMP JUMPDEST SWAP1 POP SWAP2 SWAP1 POP JUMP JUMPDEST PUSH1 0x0 PUSH20 0xFFFFFFFFFFFFFFFFFFFFFFFFFFFFFFFFFFFFFFFF DUP3 AND SWAP1 POP SWAP2 SWAP1 POP JUMP JUMPDEST PUSH1 0x0 DUP2 SWAP1 POP SWAP2 SWAP1 POP JUMP JUMPDEST PUSH1 0x0 PUSH2 0x14ED DUP3 PUSH2 0x14F4 JUMP JUMPDEST SWAP1 POP SWAP2 SWAP1 POP JUMP JUMPDEST PUSH1 0x0 PUSH2 0x14FF DUP3 PUSH2 0x1506 JUMP JUMPDEST SWAP1 POP SWAP2 SWAP1 POP JUMP JUMPDEST PUSH1 0x0 PUSH2 0x1511 DUP3 PUSH2 0x14B8 JUMP JUMPDEST SWAP1 POP SWAP2 SWAP1 POP JUMP JUMPDEST PUSH32 0x4E487B7100000000000000000000000000000000000000000000000000000000 PUSH1 0x0 MSTORE PUSH1 0x11 PUSH1 0x4 MSTORE PUSH1 0x24 PUSH1 0x0 REVERT JUMPDEST PUSH1 0x0 DUP1 REVERT JUMPDEST PUSH32 0x706C656467656420746F6F206C6F772100000000000000000000000000000000 PUSH1 0x0 DUP3 ADD MSTORE POP JUMP JUMPDEST PUSH32 0x6E6F7420616E206F776E65722100000000000000000000000000000000000000 PUSH1 0x0 DUP3 ADD MSTORE POP JUMP JUMPDEST PUSH32 0x616C726561647920636C61696D65640000000000000000000000000000000000 PUSH1 0x0 DUP3 ADD MSTORE POP JUMP JUMPDEST PUSH32 0x746F6F206C6F6E67210000000000000000000000000000000000000000000000 PUSH1 0x0 DUP3 ADD MSTORE POP JUMP JUMPDEST PUSH32 0x5452594E4120464F4F4C204D453F000000000000000000000000000000000000 PUSH1 0x0 DUP3 ADD MSTORE POP JUMP JUMPDEST PUSH32 0x6E6F742053746172746564210000000000000000000000000000000000000000 PUSH1 0x0 DUP3 ADD MSTORE POP JUMP JUMPDEST PUSH32 0x696E636F727265637420656E6400000000000000000000000000000000000000 PUSH1 0x0 DUP3 ADD MSTORE POP JUMP JUMPDEST PUSH32 0x726561636865642074686520676F616C21210000000000000000000000000000 PUSH1 0x0 DUP3 ADD MSTORE POP JUMP JUMPDEST PUSH32 0x696E636F72726563742073746172740000000000000000000000000000000000 PUSH1 0x0 DUP3 ADD MSTORE POP JUMP JUMPDEST PUSH32 0x656E646564210000000000000000000000000000000000000000000000000000 PUSH1 0x0 DUP3 ADD MSTORE POP JUMP JUMPDEST PUSH32 0x6E6F7420656E6465642100000000000000000000000000000000000000000000 PUSH1 0x0 DUP3 ADD MSTORE POP JUMP JUMPDEST PUSH32 0x656E646564000000000000000000000000000000000000000000000000000000 PUSH1 0x0 DUP3 ADD MSTORE POP JUMP JUMPDEST PUSH2 0x1741 DUP2 PUSH2 0x14A6 JUMP JUMPDEST DUP2 EQ PUSH2 0x174C JUMPI PUSH1 0x0 DUP1 REVERT JUMPDEST POP JUMP JUMPDEST PUSH2 0x1758 DUP2 PUSH2 0x14D8 JUMP JUMPDEST DUP2 EQ PUSH2 0x1763 JUMPI PUSH1 0x0 DUP1 REVERT JUMPDEST POP JUMP INVALID LOG2 PUSH5 0x6970667358 0x22 SLT KECCAK256 DUP9 0x5F LOG1 DUP15 PUSH20 0xE817184F394A0EA281B710C6E74EFA11586E7D5D RETURN 0xD0 0xE1 PUSH23 0x8254E164736F6C63430008070033000000000000000000 "
				},
				"gasEstimates": {
					"creation": {
						"codeDepositCost": "1208800",
						"executionCost": "infinite",
						"totalCost": "infinite"
					},
					"external": {
						"MAX_DURATION()": "373",
						"cancel(uint256)": "82150",
						"claim(uint256)": "infinite",
						"currentID()": "2430",
						"launch(uint256,uint256,uint256)": "infinite",
						"pledge(uint256,uint256)": "infinite",
						"pledges(uint256,address)": "infinite",
						"refund(uint256)": "infinite",
						"token()": "infinite",
						"unpledge(uint256,uint256)": "infinite"
					}
				},
				"methodIdentifiers": {
					"MAX_DURATION()": "b1724b46",
					"cancel(uint256)": "40e58ee5",
					"claim(uint256)": "379607f5",
					"currentID()": "1c75cfb4",
					"launch(uint256,uint256,uint256)": "8736c179",
					"pledge(uint256,uint256)": "fde327be",
					"pledges(uint256,address)": "8e97f524",
					"refund(uint256)": "278ecde1",
					"token()": "fc0c546a",
					"unpledge(uint256,uint256)": "711853ab"
				}
			},
			"storageLayout": {
				"storage": [
					{
						"astId": 91,
						"contract": "crowdfunding/Crowdfunding.sol:Crowd",
						"label": "campaigns",
						"offset": 0,
						"slot": "0",
						"type": "t_mapping(t_uint256,t_struct(Campaign)83_storage)"
					},
					{
						"astId": 93,
						"contract": "crowdfunding/Crowdfunding.sol:Crowd",
						"label": "currentID",
						"offset": 0,
						"slot": "1",
						"type": "t_uint256"
					},
					{
						"astId": 99,
						"contract": "crowdfunding/Crowdfunding.sol:Crowd",
						"label": "pledges",
						"offset": 0,
						"slot": "2",
						"type": "t_mapping(t_uint256,t_mapping(t_address,t_uint256))"
					}
				],
				"types": {
					"t_address": {
						"encoding": "inplace",
						"label": "address",
						"numberOfBytes": "20"
					},
					"t_bool": {
						"encoding": "inplace",
						"label": "bool",
						"numberOfBytes": "1"
					},
					"t_mapping(t_address,t_uint256)": {
						"encoding": "mapping",
						"key": "t_address",
						"label": "mapping(address => uint256)",
						"numberOfBytes": "32",
						"value": "t_uint256"
					},
					"t_mapping(t_uint256,t_mapping(t_address,t_uint256))": {
						"encoding": "mapping",
						"key": "t_uint256",
						"label": "mapping(uint256 => mapping(address => uint256))",
						"numberOfBytes": "32",
						"value": "t_mapping(t_address,t_uint256)"
					},
					"t_mapping(t_uint256,t_struct(Campaign)83_storage)": {
						"encoding": "mapping",
						"key": "t_uint256",
						"label": "mapping(uint256 => struct Crowd.Campaign)",
						"numberOfBytes": "32",
						"value": "t_struct(Campaign)83_storage"
					},
					"t_struct(Campaign)83_storage": {
						"encoding": "inplace",
						"label": "struct Crowd.Campaign",
						"members": [
							{
								"astId": 72,
								"contract": "crowdfunding/Crowdfunding.sol:Crowd",
								"label": "owner",
								"offset": 0,
								"slot": "0",
								"type": "t_address"
							},
							{
								"astId": 74,
								"contract": "crowdfunding/Crowdfunding.sol:Crowd",
								"label": "goalfunds",
								"offset": 0,
								"slot": "1",
								"type": "t_uint256"
							},
							{
								"astId": 76,
								"contract": "crowdfunding/Crowdfunding.sol:Crowd",
								"label": "pledged",
								"offset": 0,
								"slot": "2",
								"type": "t_uint256"
							},
							{
								"astId": 78,
								"contract": "crowdfunding/Crowdfunding.sol:Crowd",
								"label": "startAt",
								"offset": 0,
								"slot": "3",
								"type": "t_uint256"
							},
							{
								"astId": 80,
								"contract": "crowdfunding/Crowdfunding.sol:Crowd",
								"label": "endsAt",
								"offset": 0,
								"slot": "4",
								"type": "t_uint256"
							},
							{
								"astId": 82,
								"contract": "crowdfunding/Crowdfunding.sol:Crowd",
								"label": "claimed",
								"offset": 0,
								"slot": "5",
								"type": "t_bool"
							}
						],
						"numberOfBytes": "192"
					},
					"t_uint256": {
						"encoding": "inplace",
						"label": "uint256",
						"numberOfBytes": "32"
					}
				}
			},
			"userdoc": {
				"kind": "user",
				"methods": {},
				"version": 1
			}
		}
	}
}